{
  "_format": "hh-sol-artifact-1",
  "contractName": "Space",
  "sourceName": "contracts/Space.sol",
  "abi": [
    {
      "inputs": [
        {
          "internalType": "address",
          "name": "target",
          "type": "address"
        }
      ],
      "name": "AddressEmptyCode",
      "type": "error"
    },
    {
      "inputs": [],
      "name": "ArrayLengthMismatch",
      "type": "error"
    },
    {
      "inputs": [],
      "name": "AuthenticatorNotWhitelisted",
      "type": "error"
    },
    {
      "inputs": [
        {
          "internalType": "uint8",
          "name": "index",
          "type": "uint8"
        }
      ],
      "name": "DuplicateFound",
      "type": "error"
    },
    {
      "inputs": [
        {
          "internalType": "address",
          "name": "implementation",
          "type": "address"
        }
      ],
      "name": "ERC1967InvalidImplementation",
      "type": "error"
    },
    {
      "inputs": [],
      "name": "ERC1967NonPayable",
      "type": "error"
    },
    {
      "inputs": [],
      "name": "EmptyArray",
      "type": "error"
    },
    {
      "inputs": [],
      "name": "ExceedsStrategyLimit",
      "type": "error"
    },
    {
      "inputs": [],
      "name": "FailedCall",
      "type": "error"
    },
    {
      "inputs": [],
      "name": "FailedToPassProposalValidation",
      "type": "error"
    },
    {
      "inputs": [],
      "name": "InvalidCaller",
      "type": "error"
    },
    {
      "inputs": [
        {
          "internalType": "uint32",
          "name": "minVotingDuration",
          "type": "uint32"
        },
        {
          "internalType": "uint32",
          "name": "maxVotingDuration",
          "type": "uint32"
        }
      ],
      "name": "InvalidDuration",
      "type": "error"
    },
    {
      "inputs": [],
      "name": "InvalidInitialization",
      "type": "error"
    },
    {
      "inputs": [],
      "name": "InvalidPayload",
      "type": "error"
    },
    {
      "inputs": [],
      "name": "InvalidProposal",
      "type": "error"
    },
    {
      "inputs": [
        {
          "internalType": "uint256",
          "name": "index",
          "type": "uint256"
        }
      ],
      "name": "InvalidStrategyIndex",
      "type": "error"
    },
    {
      "inputs": [],
      "name": "NoActiveVotingStrategies",
      "type": "error"
    },
    {
      "inputs": [],
      "name": "NotInitializing",
      "type": "error"
    },
    {
      "inputs": [
        {
          "internalType": "address",
          "name": "owner",
          "type": "address"
        }
      ],
      "name": "OwnableInvalidOwner",
      "type": "error"
    },
    {
      "inputs": [
        {
          "internalType": "address",
          "name": "account",
          "type": "address"
        }
      ],
      "name": "OwnableUnauthorizedAccount",
      "type": "error"
    },
    {
      "inputs": [],
      "name": "ProposalFinalized",
      "type": "error"
    },
    {
      "inputs": [],
      "name": "ReentrancyGuardReentrantCall",
      "type": "error"
    },
    {
      "inputs": [],
      "name": "UUPSUnauthorizedCallContext",
      "type": "error"
    },
    {
      "inputs": [
        {
          "internalType": "bytes32",
          "name": "slot",
          "type": "bytes32"
        }
      ],
      "name": "UUPSUnsupportedProxiableUUID",
      "type": "error"
    },
    {
      "inputs": [],
      "name": "UserAlreadyVoted",
      "type": "error"
    },
    {
      "inputs": [],
      "name": "UserHasNoVotingPower",
      "type": "error"
    },
    {
      "inputs": [],
      "name": "VotingDelayHasPassed",
      "type": "error"
    },
    {
      "inputs": [],
      "name": "VotingPeriodHasEnded",
      "type": "error"
    },
    {
      "inputs": [],
      "name": "VotingPeriodHasNotStarted",
      "type": "error"
    },
    {
      "inputs": [],
      "name": "ZeroAddress",
      "type": "error"
    },
    {
      "anonymous": false,
      "inputs": [
        {
          "indexed": false,
          "internalType": "address[]",
          "name": "newAuthenticators",
          "type": "address[]"
        }
      ],
      "name": "AuthenticatorsAdded",
      "type": "event"
    },
    {
      "anonymous": false,
      "inputs": [
        {
          "indexed": false,
          "internalType": "address[]",
          "name": "authenticators",
          "type": "address[]"
        }
      ],
      "name": "AuthenticatorsRemoved",
      "type": "event"
    },
    {
      "anonymous": false,
      "inputs": [
        {
          "indexed": false,
          "internalType": "string",
          "name": "newDaoURI",
          "type": "string"
        }
      ],
      "name": "DaoURIUpdated",
      "type": "event"
    },
    {
      "anonymous": false,
      "inputs": [
        {
          "indexed": false,
          "internalType": "uint64",
          "name": "version",
          "type": "uint64"
        }
      ],
      "name": "Initialized",
      "type": "event"
    },
    {
      "anonymous": false,
      "inputs": [
        {
          "indexed": false,
          "internalType": "uint32",
          "name": "newMaxVotingDuration",
          "type": "uint32"
        }
      ],
      "name": "MaxVotingDurationUpdated",
      "type": "event"
    },
    {
      "anonymous": false,
      "inputs": [
        {
          "indexed": false,
          "internalType": "string",
          "name": "newMetadataURI",
          "type": "string"
        }
      ],
      "name": "MetadataURIUpdated",
      "type": "event"
    },
    {
      "anonymous": false,
      "inputs": [
        {
          "indexed": false,
          "internalType": "uint32",
          "name": "newMinVotingDuration",
          "type": "uint32"
        }
      ],
      "name": "MinVotingDurationUpdated",
      "type": "event"
    },
    {
      "anonymous": false,
      "inputs": [
        {
          "indexed": true,
          "internalType": "address",
          "name": "previousOwner",
          "type": "address"
        },
        {
          "indexed": true,
          "internalType": "address",
          "name": "newOwner",
          "type": "address"
        }
      ],
      "name": "OwnershipTransferred",
      "type": "event"
    },
    {
      "anonymous": false,
      "inputs": [
        {
          "indexed": false,
          "internalType": "uint256",
          "name": "proposalId",
          "type": "uint256"
        }
      ],
      "name": "ProposalCancelled",
      "type": "event"
    },
    {
      "anonymous": false,
      "inputs": [
        {
          "indexed": false,
          "internalType": "uint256",
          "name": "proposalId",
          "type": "uint256"
        },
        {
          "indexed": false,
          "internalType": "address",
          "name": "author",
          "type": "address"
        },
        {
          "components": [
            {
              "internalType": "address",
              "name": "author",
              "type": "address"
            },
            {
              "internalType": "uint32",
              "name": "startBlockNumber",
              "type": "uint32"
            },
            {
              "internalType": "contract IExecutionStrategy",
              "name": "executionStrategy",
              "type": "address"
            },
            {
              "internalType": "uint32",
              "name": "minEndBlockNumber",
              "type": "uint32"
            },
            {
              "internalType": "uint32",
              "name": "maxEndBlockNumber",
              "type": "uint32"
            },
            {
              "internalType": "enum FinalizationStatus",
              "name": "finalizationStatus",
              "type": "uint8"
            },
            {
              "internalType": "bytes32",
              "name": "executionPayloadHash",
              "type": "bytes32"
            },
            {
              "internalType": "uint256",
              "name": "activeVotingStrategies",
              "type": "uint256"
            }
          ],
          "indexed": false,
          "internalType": "struct Proposal",
          "name": "proposal",
          "type": "tuple"
        },
        {
          "indexed": false,
          "internalType": "string",
          "name": "metadataUri",
          "type": "string"
        },
        {
          "indexed": false,
          "internalType": "bytes",
          "name": "payload",
          "type": "bytes"
        }
      ],
      "name": "ProposalCreated",
      "type": "event"
    },
    {
      "anonymous": false,
      "inputs": [
        {
          "indexed": false,
          "internalType": "uint256",
          "name": "proposalId",
          "type": "uint256"
        }
      ],
      "name": "ProposalExecuted",
      "type": "event"
    },
    {
      "anonymous": false,
      "inputs": [
        {
          "indexed": false,
          "internalType": "uint256",
          "name": "proposalId",
          "type": "uint256"
        },
        {
          "components": [
            {
              "internalType": "address",
              "name": "addr",
              "type": "address"
            },
            {
              "internalType": "bytes",
              "name": "params",
              "type": "bytes"
            }
          ],
          "indexed": false,
          "internalType": "struct Strategy",
          "name": "newExecutionStrategy",
          "type": "tuple"
        },
        {
          "indexed": false,
          "internalType": "string",
          "name": "newMetadataURI",
          "type": "string"
        }
      ],
      "name": "ProposalUpdated",
      "type": "event"
    },
    {
      "anonymous": false,
      "inputs": [
        {
          "components": [
            {
              "internalType": "address",
              "name": "addr",
              "type": "address"
            },
            {
              "internalType": "bytes",
              "name": "params",
              "type": "bytes"
            }
          ],
          "indexed": false,
          "internalType": "struct Strategy",
          "name": "newProposalValidationStrategy",
          "type": "tuple"
        },
        {
          "indexed": false,
          "internalType": "string",
          "name": "newProposalValidationStrategyMetadataURI",
          "type": "string"
        }
      ],
      "name": "ProposalValidationStrategyUpdated",
      "type": "event"
    },
    {
      "anonymous": false,
      "inputs": [
        {
          "indexed": false,
          "internalType": "address",
          "name": "space",
          "type": "address"
        },
        {
          "components": [
            {
              "internalType": "address",
              "name": "owner",
              "type": "address"
            },
            {
              "internalType": "uint32",
              "name": "votingDelay",
              "type": "uint32"
            },
            {
              "internalType": "uint32",
              "name": "minVotingDuration",
              "type": "uint32"
            },
            {
              "internalType": "uint32",
              "name": "maxVotingDuration",
              "type": "uint32"
            },
            {
              "components": [
                {
                  "internalType": "address",
                  "name": "addr",
                  "type": "address"
                },
                {
                  "internalType": "bytes",
                  "name": "params",
                  "type": "bytes"
                }
              ],
              "internalType": "struct Strategy",
              "name": "proposalValidationStrategy",
              "type": "tuple"
            },
            {
              "internalType": "string",
              "name": "proposalValidationStrategyMetadataURI",
              "type": "string"
            },
            {
              "internalType": "string",
              "name": "daoURI",
              "type": "string"
            },
            {
              "internalType": "string",
              "name": "metadataURI",
              "type": "string"
            },
            {
              "components": [
                {
                  "internalType": "address",
                  "name": "addr",
                  "type": "address"
                },
                {
                  "internalType": "bytes",
                  "name": "params",
                  "type": "bytes"
                }
              ],
              "internalType": "struct Strategy[]",
              "name": "votingStrategies",
              "type": "tuple[]"
            },
            {
              "internalType": "string[]",
              "name": "votingStrategyMetadataURIs",
              "type": "string[]"
            },
            {
              "internalType": "address[]",
              "name": "authenticators",
              "type": "address[]"
            }
          ],
          "indexed": false,
          "internalType": "struct InitializeCalldata",
          "name": "input",
          "type": "tuple"
        }
      ],
      "name": "SpaceCreated",
      "type": "event"
    },
    {
      "anonymous": false,
      "inputs": [
        {
          "indexed": true,
          "internalType": "address",
          "name": "implementation",
          "type": "address"
        }
      ],
      "name": "Upgraded",
      "type": "event"
    },
    {
      "anonymous": false,
      "inputs": [
        {
          "indexed": false,
          "internalType": "uint256",
          "name": "proposalId",
          "type": "uint256"
        },
        {
          "indexed": false,
          "internalType": "address",
          "name": "voter",
          "type": "address"
        },
        {
          "indexed": false,
          "internalType": "uint256",
          "name": "votingPower",
          "type": "uint256"
        }
      ],
      "name": "VoteCast",
      "type": "event"
    },
    {
      "anonymous": false,
      "inputs": [
        {
          "indexed": false,
          "internalType": "uint256",
          "name": "proposalId",
          "type": "uint256"
        },
        {
          "indexed": false,
          "internalType": "address",
          "name": "voter",
          "type": "address"
        },
        {
          "indexed": false,
          "internalType": "uint256",
          "name": "votingPower",
          "type": "uint256"
        },
        {
          "indexed": false,
          "internalType": "string",
          "name": "metadataUri",
          "type": "string"
        }
      ],
      "name": "VoteCastWithMetadata",
      "type": "event"
    },
    {
      "anonymous": false,
      "inputs": [
        {
          "indexed": false,
          "internalType": "uint32",
          "name": "newVotingDelay",
          "type": "uint32"
        }
      ],
      "name": "VotingDelayUpdated",
      "type": "event"
    },
    {
      "anonymous": false,
      "inputs": [
        {
          "components": [
            {
              "internalType": "address",
              "name": "addr",
              "type": "address"
            },
            {
              "internalType": "bytes",
              "name": "params",
              "type": "bytes"
            }
          ],
          "indexed": false,
          "internalType": "struct Strategy[]",
          "name": "newVotingStrategies",
          "type": "tuple[]"
        },
        {
          "indexed": false,
          "internalType": "string[]",
          "name": "newVotingStrategyMetadataURIs",
          "type": "string[]"
        }
      ],
      "name": "VotingStrategiesAdded",
      "type": "event"
    },
    {
      "anonymous": false,
      "inputs": [
        {
          "indexed": false,
          "internalType": "uint8[]",
          "name": "votingStrategyIndices",
          "type": "uint8[]"
        }
      ],
      "name": "VotingStrategiesRemoved",
      "type": "event"
    },
    {
      "inputs": [],
      "name": "UPGRADE_INTERFACE_VERSION",
      "outputs": [
        {
          "internalType": "string",
          "name": "",
          "type": "string"
        }
      ],
      "stateMutability": "view",
      "type": "function"
    },
    {
      "inputs": [
        {
          "internalType": "uint256",
          "name": "",
          "type": "uint256"
        },
        {
          "internalType": "bytes32",
          "name": "_decryptedQuorum",
          "type": "bytes32"
        },
        {
          "internalType": "bytes",
          "name": "data",
          "type": "bytes"
        }
      ],
      "name": "_quorumCallback",
      "outputs": [],
      "stateMutability": "nonpayable",
      "type": "function"
    },
    {
      "inputs": [
        {
          "internalType": "uint256",
          "name": "",
          "type": "uint256"
        },
        {
          "internalType": "bytes32",
          "name": "_decryptedSupport",
          "type": "bytes32"
        },
        {
          "internalType": "bytes",
          "name": "data",
          "type": "bytes"
        }
      ],
      "name": "_supportCallback",
      "outputs": [],
      "stateMutability": "nonpayable",
      "type": "function"
    },
    {
      "inputs": [],
      "name": "activeVotingStrategies",
      "outputs": [
        {
          "internalType": "uint256",
          "name": "",
          "type": "uint256"
        }
      ],
      "stateMutability": "view",
      "type": "function"
    },
    {
      "inputs": [
        {
          "internalType": "address",
          "name": "auth",
          "type": "address"
        }
      ],
      "name": "authenticators",
      "outputs": [
        {
          "internalType": "uint256",
          "name": "allowed",
          "type": "uint256"
        }
      ],
      "stateMutability": "view",
      "type": "function"
    },
    {
      "inputs": [
        {
          "internalType": "uint256",
          "name": "proposalId",
          "type": "uint256"
        }
      ],
      "name": "cancel",
      "outputs": [],
      "stateMutability": "nonpayable",
      "type": "function"
    },
    {
      "inputs": [],
      "name": "daoURI",
      "outputs": [
        {
          "internalType": "string",
          "name": "",
          "type": "string"
        }
      ],
      "stateMutability": "view",
      "type": "function"
    },
    {
      "inputs": [
        {
          "internalType": "uint256",
          "name": "proposalId",
          "type": "uint256"
        }
      ],
      "name": "getProposalStatus",
      "outputs": [
        {
          "internalType": "enum ProposalStatus",
          "name": "",
          "type": "uint8"
        }
      ],
      "stateMutability": "view",
      "type": "function"
    },
    {
      "inputs": [
        {
          "components": [
            {
              "internalType": "address",
              "name": "owner",
              "type": "address"
            },
            {
              "internalType": "uint32",
              "name": "votingDelay",
              "type": "uint32"
            },
            {
              "internalType": "uint32",
              "name": "minVotingDuration",
              "type": "uint32"
            },
            {
              "internalType": "uint32",
              "name": "maxVotingDuration",
              "type": "uint32"
            },
            {
              "components": [
                {
                  "internalType": "address",
                  "name": "addr",
                  "type": "address"
                },
                {
                  "internalType": "bytes",
                  "name": "params",
                  "type": "bytes"
                }
              ],
              "internalType": "struct Strategy",
              "name": "proposalValidationStrategy",
              "type": "tuple"
            },
            {
              "internalType": "string",
              "name": "proposalValidationStrategyMetadataURI",
              "type": "string"
            },
            {
              "internalType": "string",
              "name": "daoURI",
              "type": "string"
            },
            {
              "internalType": "string",
              "name": "metadataURI",
              "type": "string"
            },
            {
              "components": [
                {
                  "internalType": "address",
                  "name": "addr",
                  "type": "address"
                },
                {
                  "internalType": "bytes",
                  "name": "params",
                  "type": "bytes"
                }
              ],
              "internalType": "struct Strategy[]",
              "name": "votingStrategies",
              "type": "tuple[]"
            },
            {
              "internalType": "string[]",
              "name": "votingStrategyMetadataURIs",
              "type": "string[]"
            },
            {
              "internalType": "address[]",
              "name": "authenticators",
              "type": "address[]"
            }
          ],
          "internalType": "struct InitializeCalldata",
          "name": "input",
          "type": "tuple"
        }
      ],
      "name": "initialize",
      "outputs": [],
      "stateMutability": "nonpayable",
      "type": "function"
    },
    {
      "inputs": [],
      "name": "maxVotingDuration",
      "outputs": [
        {
          "internalType": "uint32",
          "name": "",
          "type": "uint32"
        }
      ],
      "stateMutability": "view",
      "type": "function"
    },
    {
      "inputs": [],
      "name": "minVotingDuration",
      "outputs": [
        {
          "internalType": "uint32",
          "name": "",
          "type": "uint32"
        }
      ],
      "stateMutability": "view",
      "type": "function"
    },
    {
      "inputs": [],
      "name": "nextProposalId",
      "outputs": [
        {
          "internalType": "uint256",
          "name": "",
          "type": "uint256"
        }
      ],
      "stateMutability": "view",
      "type": "function"
    },
    {
      "inputs": [],
      "name": "nextVotingStrategyIndex",
      "outputs": [
        {
          "internalType": "uint8",
          "name": "",
          "type": "uint8"
        }
      ],
      "stateMutability": "view",
      "type": "function"
    },
    {
      "inputs": [],
      "name": "owner",
      "outputs": [
        {
          "internalType": "address",
          "name": "",
          "type": "address"
        }
      ],
      "stateMutability": "view",
      "type": "function"
    },
    {
      "inputs": [
        {
          "internalType": "uint256",
          "name": "",
          "type": "uint256"
        }
      ],
      "name": "proposalIdToIsQuorumReached",
      "outputs": [
        {
          "internalType": "bool",
          "name": "",
          "type": "bool"
        }
      ],
      "stateMutability": "view",
      "type": "function"
    },
    {
      "inputs": [
        {
          "internalType": "uint256",
          "name": "",
          "type": "uint256"
        }
      ],
      "name": "proposalIdToIsSupportAchieved",
      "outputs": [
        {
          "internalType": "bool",
          "name": "",
          "type": "bool"
        }
      ],
      "stateMutability": "view",
      "type": "function"
    },
    {
      "inputs": [],
      "name": "proposalValidationStrategy",
      "outputs": [
        {
          "internalType": "address",
          "name": "addr",
          "type": "address"
        },
        {
          "internalType": "bytes",
          "name": "params",
          "type": "bytes"
        }
      ],
      "stateMutability": "view",
      "type": "function"
    },
    {
      "inputs": [
        {
          "internalType": "uint256",
          "name": "proposalId",
          "type": "uint256"
        }
      ],
      "name": "proposals",
      "outputs": [
        {
          "internalType": "address",
          "name": "author",
          "type": "address"
        },
        {
          "internalType": "uint32",
          "name": "startBlockNumber",
          "type": "uint32"
        },
        {
          "internalType": "contract IExecutionStrategy",
          "name": "executionStrategy",
          "type": "address"
        },
        {
          "internalType": "uint32",
          "name": "minEndBlockNumber",
          "type": "uint32"
        },
        {
          "internalType": "uint32",
          "name": "maxEndBlockNumber",
          "type": "uint32"
        },
        {
          "internalType": "enum FinalizationStatus",
          "name": "finalizationStatus",
          "type": "uint8"
        },
        {
          "internalType": "bytes32",
          "name": "executionPayloadHash",
          "type": "bytes32"
        },
        {
          "internalType": "uint256",
          "name": "activeVotingStrategies",
          "type": "uint256"
        }
      ],
      "stateMutability": "view",
      "type": "function"
    },
    {
      "inputs": [
        {
          "internalType": "address",
          "name": "author",
          "type": "address"
        },
        {
          "internalType": "string",
          "name": "metadataURI",
          "type": "string"
        },
        {
          "components": [
            {
              "internalType": "address",
              "name": "addr",
              "type": "address"
            },
            {
              "internalType": "bytes",
              "name": "params",
              "type": "bytes"
            }
          ],
          "internalType": "struct Strategy",
          "name": "executionStrategy",
          "type": "tuple"
        },
        {
          "internalType": "bytes",
          "name": "userProposalValidationParams",
          "type": "bytes"
        }
      ],
      "name": "propose",
      "outputs": [],
      "stateMutability": "nonpayable",
      "type": "function"
    },
    {
      "inputs": [],
      "name": "proxiableUUID",
      "outputs": [
        {
          "internalType": "bytes32",
          "name": "",
          "type": "bytes32"
        }
      ],
      "stateMutability": "view",
      "type": "function"
    },
    {
      "inputs": [],
      "name": "renounceOwnership",
      "outputs": [],
      "stateMutability": "nonpayable",
      "type": "function"
    },
    {
      "inputs": [
        {
          "internalType": "uint256",
          "name": "",
          "type": "uint256"
        }
      ],
      "name": "requestIdToCallBackStruct",
      "outputs": [
        {
          "internalType": "uint256",
          "name": "proposalId",
          "type": "uint256"
        },
        {
          "internalType": "bytes",
          "name": "executionPayload",
          "type": "bytes"
        }
      ],
      "stateMutability": "view",
      "type": "function"
    },
    {
      "inputs": [
        {
          "internalType": "address",
          "name": "newOwner",
          "type": "address"
        }
      ],
      "name": "transferOwnership",
      "outputs": [],
      "stateMutability": "nonpayable",
      "type": "function"
    },
    {
      "inputs": [
        {
          "internalType": "uint256",
          "name": "proposalId",
          "type": "uint256"
        },
        {
          "internalType": "bytes",
          "name": "executionPayload",
          "type": "bytes"
        }
      ],
      "name": "tryExecute",
      "outputs": [
        {
          "internalType": "uint256",
          "name": "",
          "type": "uint256"
        }
      ],
      "stateMutability": "nonpayable",
      "type": "function"
    },
    {
      "inputs": [
        {
          "internalType": "address",
          "name": "author",
          "type": "address"
        },
        {
          "internalType": "uint256",
          "name": "proposalId",
          "type": "uint256"
        },
        {
          "components": [
            {
              "internalType": "address",
              "name": "addr",
              "type": "address"
            },
            {
              "internalType": "bytes",
              "name": "params",
              "type": "bytes"
            }
          ],
          "internalType": "struct Strategy",
          "name": "executionStrategy",
          "type": "tuple"
        },
        {
          "internalType": "string",
          "name": "metadataURI",
          "type": "string"
        }
      ],
      "name": "updateProposal",
      "outputs": [],
      "stateMutability": "nonpayable",
      "type": "function"
    },
    {
      "inputs": [
        {
          "components": [
            {
              "internalType": "uint32",
              "name": "minVotingDuration",
              "type": "uint32"
            },
            {
              "internalType": "uint32",
              "name": "maxVotingDuration",
              "type": "uint32"
            },
            {
              "internalType": "uint32",
              "name": "votingDelay",
              "type": "uint32"
            },
            {
              "internalType": "string",
              "name": "metadataURI",
              "type": "string"
            },
            {
              "internalType": "string",
              "name": "daoURI",
              "type": "string"
            },
            {
              "components": [
                {
                  "internalType": "address",
                  "name": "addr",
                  "type": "address"
                },
                {
                  "internalType": "bytes",
                  "name": "params",
                  "type": "bytes"
                }
              ],
              "internalType": "struct Strategy",
              "name": "proposalValidationStrategy",
              "type": "tuple"
            },
            {
              "internalType": "string",
              "name": "proposalValidationStrategyMetadataURI",
              "type": "string"
            },
            {
              "internalType": "address[]",
              "name": "authenticatorsToAdd",
              "type": "address[]"
            },
            {
              "internalType": "address[]",
              "name": "authenticatorsToRemove",
              "type": "address[]"
            },
            {
              "components": [
                {
                  "internalType": "address",
                  "name": "addr",
                  "type": "address"
                },
                {
                  "internalType": "bytes",
                  "name": "params",
                  "type": "bytes"
                }
              ],
              "internalType": "struct Strategy[]",
              "name": "votingStrategiesToAdd",
              "type": "tuple[]"
            },
            {
              "internalType": "string[]",
              "name": "votingStrategyMetadataURIsToAdd",
              "type": "string[]"
            },
            {
              "internalType": "uint8[]",
              "name": "votingStrategiesToRemove",
              "type": "uint8[]"
            }
          ],
          "internalType": "struct UpdateSettingsCalldata",
          "name": "input",
          "type": "tuple"
        }
      ],
      "name": "updateSettings",
      "outputs": [],
      "stateMutability": "nonpayable",
      "type": "function"
    },
    {
      "inputs": [
        {
          "internalType": "address",
          "name": "newImplementation",
          "type": "address"
        },
        {
          "internalType": "bytes",
          "name": "data",
          "type": "bytes"
        }
      ],
      "name": "upgradeToAndCall",
      "outputs": [],
      "stateMutability": "payable",
      "type": "function"
    },
    {
      "inputs": [
        {
          "internalType": "address",
          "name": "voter",
          "type": "address"
        },
        {
          "internalType": "uint256",
          "name": "proposalId",
          "type": "uint256"
        },
        {
          "internalType": "bytes",
          "name": "ciphertext",
          "type": "bytes"
        },
        {
          "components": [
            {
              "internalType": "uint8",
              "name": "index",
              "type": "uint8"
            },
            {
              "internalType": "bytes",
              "name": "params",
              "type": "bytes"
            }
          ],
          "internalType": "struct IndexedStrategy[]",
          "name": "userVotingStrategies",
          "type": "tuple[]"
        },
        {
          "internalType": "string",
          "name": "metadataURI",
          "type": "string"
        }
      ],
      "name": "vote",
      "outputs": [],
      "stateMutability": "nonpayable",
      "type": "function"
    },
    {
      "inputs": [
        {
          "internalType": "uint256",
          "name": "proposalId",
          "type": "uint256"
        },
        {
          "internalType": "address",
          "name": "voter",
          "type": "address"
        }
      ],
      "name": "voteRegistry",
      "outputs": [
        {
          "internalType": "uint256",
          "name": "hasVoted",
          "type": "uint256"
        }
      ],
      "stateMutability": "view",
      "type": "function"
    },
    {
      "inputs": [],
      "name": "votingDelay",
      "outputs": [
        {
          "internalType": "uint32",
          "name": "",
          "type": "uint32"
        }
      ],
      "stateMutability": "view",
      "type": "function"
    },
    {
      "inputs": [
        {
          "internalType": "uint8",
          "name": "strategyIndex",
          "type": "uint8"
        }
      ],
      "name": "votingStrategies",
      "outputs": [
        {
          "internalType": "address",
          "name": "addr",
          "type": "address"
        },
        {
          "internalType": "bytes",
          "name": "params",
          "type": "bytes"
        }
      ],
      "stateMutability": "view",
      "type": "function"
    }
  ],
  "bytecode": "0x60a08060405234602d573060805260015f55613d7d908161003282396080518181816124ad015261253e0152f35b5f80fdfe6080806040526004361015610012575f80fd5b5f905f3560e01c908163013cf08b14612add575080630533710414612abd5780630b5155701461292a5780631880dd60146128fb5780632ab09d14146128de5780633932abb1146128bb5780633d41f02214612871578063401853b71461278257806340e58ee5146126f75780634f1ef2861461250157806352d1902d1461249b57806361ae2978146124475780636b2898001461228c5780636df7bab3146122665780637034731b14612183578063715018a61461211a578063791eb854146120e1578063792cb5a3146120905780638da5cb5b1461205b578063954ee6da1461197957806395fbe6e81461194a5780639d49257c14611926578063a44c31d514611908578063aad83f3b146114a4578063ab1d89a7146113c0578063ad3cb1cc14611373578063cbd82fd814611177578063d830616c14610993578063de9a9508146105d7578063f2fde38b146105aa5763f8b669d614610173575f80fd5b346105a75760203660031901126105a7576004356001600160401b0381116105a35780600401610160600319833603011261059f575f80516020613d28833981519152549160ff8360401c1615926001600160401b03811680159081610597575b600114908161058d575b159081610584575b506105755767ffffffffffffffff1981166001175f80516020613d288339815191525583610549575b5061010481019161022083826130d0565b90501561053a5761014482019061023782826130d0565b90501561052b5761024884826130d0565b6101248501915061025982846130d0565b9190500361051c57610269613be7565b610271613be7565b61027a3361322c565b61028382612ea3565b61028b6132fc565b6102949061322c565b60c48401946102a38684612e71565b6102ac91613605565b60648501946102ba8661304f565b6102c390613562565b60448101966102d18861304f565b6102da9061359f565b608482016102e881876130bb565b6102f19061373e565b60248301976102ff8961304f565b6103199063ffffffff1663ffffffff196004541617600455565b61032385886130d0565b61032c916138d3565b61033688886130d0565b61033f91613887565b6001600355604080513081526020810191909152998a996001600160a01b036103678a612b9a565b1660408c01526103769061329d565b63ffffffff1660608b015261038a9061329d565b63ffffffff1660808a015261039e9061329d565b63ffffffff1660a08901526103b39086613144565b60c0880161016090526101a088016103ca91612f08565b6103d760a4840187612eb7565b898303603f190160e08b01526103ed9291612ee8565b906103f89086612eb7565b888303603f19016101008a015261040f9291612ee8565b9060e40161041d9085612eb7565b878303603f19016101208901526104349291612ee8565b9061043f90846132ae565b868303603f19016101408801526104569291613158565b9061046190836132ae565b858303603f190161016087015261047892916131b6565b91610482916132ae565b838303603f19016101808501526104999291613105565b037f2bac6eaeab23b0b745bf82b395e2235102c0c43fa59a99e32f0d795aae90936091a16104c45780f35b68ff0000000000000000195f80516020613d2883398151915254165f80516020613d28833981519152557fc7f505b2f371ae2175ee4913f4499e1f2633a7b5936321eed1cdaeb6115181d2602060405160018152a180f35b63512509d360e11b8752600487fd5b63521299a960e01b8652600486fd5b63521299a960e01b8552600485fd5b68ffffffffffffffffff191668010000000000000001175f80516020613d28833981519152555f61020f565b63f92ee8a960e01b8552600485fd5b9050155f6101e6565b303b1591506101de565b8591506101d4565b8280fd5b5080fd5b80fd5b50346105a75760203660031901126105a7576105d46105c7612b84565b6105cf6132fc565b61322c565b80f35b50346105a75760403660031901126105a7576004356024356001600160401b03811161059f5761060b903690600401612bae565b9290828252600b60205260016040832061062c61062782612deb565b6132e2565b0160ff815460e01c16600381101561097f5760011461093a57600490848452600c60205260408420600185526020526040842054858552600c60205260408520600286526020526020604086205492878752600c82526040872087805282526106ae604088205461069d30866134fd565b6106a730876134fd565b30906134fd565b5460405163c26c12eb60e01b815294859182906001600160a01b03165afa9283156108ba578593610906575b506106e481613c12565b926106ee83613c12565b6040519463f4f9966b60e01b865260048601526024850152602084604481895f80516020613d088339815191525af19384156108fb5786946108c5575b5061073861073e916133d2565b93613c12565b6040519363725e1da560e01b855260048501526024840152602083604481885f80516020613d088339815191525af19283156108ba578593610884575b5061078861078e91613c12565b91613c12565b604051916305f6c42760e01b835260048301526024820152602081604481875f80516020613d088339815191525af19384156108785793610838575b509161082a6020959261081761082f956107e430826134fd565b6107ee30866134fd565b604051906108128261080489878d8f8501613215565b03601f198101845283612c43565b613aaa565b50610804604051948592888a8501613215565b613b26565b50604051908152f35b949192506020853d602011610870575b8161085560209383612c43565b8101031261086c579351909390919061082a6107ca565b5f80fd5b3d9150610848565b604051903d90823e3d90fd5b9092506020813d6020116108b2575b816108a060209383612c43565b8101031261086c57519161078861077b565b3d9150610893565b6040513d87823e3d90fd5b9093506020813d6020116108f3575b816108e160209383612c43565b8101031261086c57519261073861072b565b3d91506108d4565b6040513d88823e3d90fd5b9092506020813d602011610932575b8161092260209383612c43565b8101031261086c5751915f6106da565b3d9150610915565b60405162461bcd60e51b815260206004820152601960248201527f50726f706f73616c20416c7265616479204578656375746564000000000000006044820152606490fd5b634e487b7160e01b84526021600452602484fd5b50346105a75760203660031901126105a7576004356001600160401b0381116105a3578060040190610180600319823603011261059f576109d26132fc565b6109db8261304f565b63ffffffff806109e9613060565b169116141580611152575b1561106c57610a028261304f565b602482019063ffffffff80610a168461304f565b1691161161103b576020610aba7f50b3808988e8880c34e4b58088d8eeeb40410dd2a2238a299db9187644259b0592610a4e8661304f565b6002547fa596cfacd06610b4e094472b3f6712f263b9a8af5fbd18924780c678a4fc55e685610a7c8a61304f565b63ffffffff60405191168152a167ffffffff0000000063ffffffff610aa08561304f565b1692861b16906001600160401b031916171760025561304f565b63ffffffff60405191168152a15b60448101610ad58161304f565b63ffffffff80610ae3613060565b16911603610fda575b5060648101610afb8184612e71565b610b226020604051838194838301968737810189838201520301601f198101835282612c43565b519020610b2d61308f565b03610f8f575b5060848101610b428184612e71565b610b696020604051838194838301968737810189838201520301601f198101835282612c43565b519020610b7461308f565b03610f31575b5060a48101610b91610b8c82856130bb565b612ea3565b6040516020810190684e6f2075706461746560b81b825260098152610bb7602982612c43565b51902060601c6001600160a01b0390911603610eb6575b5060e48101610bdd81846130d0565b9050610e58575b506101048101610bf481846130d0565b9050610dc9575b506101248101610c0b81846130d0565b9050610d16575b5061016401610c2181836130d0565b9050610c2b578280f35b9091610c3782846130d0565b9091805b60ff811683811015610c775790610c7291600160ff610c66610c6160055494898b613877565b61335a565b161b19166005556138c2565b610c3b565b50509391505060055415610d075790610c8f916130d0565b90604051918060208401602085525260408301919084905b808210610cde5750505090807f24c5d4b9c170a0ef0634046f1a7a184dd341c99da7242482e42cc2782076cea3920390a15f808280f35b90919283359060ff8216809203610d0357602081600193829352019401920190610ca7565b8680fd5b63e1757fd560e01b8352600483fd5b610d2081846130d0565b6101448401929150610d3283866130d0565b91905003610dba576101649291610d8c610db1610d8384610d7d610d777fb25fe8e833c47cb186483982b4f2f778aa2f38c644be53123589397650b703e9978b6130d0565b906138d3565b886130d0565b929093886130d0565b610da3604051958695604087526040870191613158565b9184830360208601526131b6565b0390a190610c12565b63512509d360e11b8552600485fd5b610dd381846130d0565b90855b828110610e2b57505050610e0b7f2befc5f117311dbd6cabfd7bc4cec09eeefc83a55c9140bbf298951571f5cb8691846130d0565b610e22604051928392602084526020840191613105565b0390a15f610bfb565b6001906001600160a01b03610e44610b8c838787613877565b168852600a60205287604081205501610dd6565b610e9681610e90610e8a7f0f1800fbca5c51a50ca47d2d359d89a9872ebc0d41b791582770add9d9d7e7bc94876130d0565b90613887565b846130d0565b610ead604051928392602084526020840191613105565b0390a15f610be4565b610f1a610ef682610ef0610eeb7f94882eaeb9096621809ce0a70444da5f387f4763a9b4e0e5918d73997b42898495886130bb565b61373e565b856130bb565b610f28610f0660c4860187612e71565b604051948594604086526040860190612f08565b918483036020860152612ee8565b0390a15f610bce565b610f6f81610f69610f637fa22a853196a129f951085238393763195d8916dc54e3234dc400d7489da4a53b9487612e71565b90613605565b84612e71565b610f86604051928392602084526020840191612ee8565b0390a15f610b7a565b610fba7fefafb90526da1636e1335eac0151301742fb755d986954c613b90e891778ba399184612e71565b610fd1604051928392602084526020840191612ee8565b0390a15f610b33565b60206110288261102361100d7fbc6c72d7791c961f1d6512e4f3262d03f19dd0571eef8f5ec54a5acdf29770139561304f565b63ffffffff1663ffffffff196004541617600455565b61304f565b63ffffffff60405191168152a15f610aec565b8363ffffffff604492816110576110518861304f565b9261304f565b63c564bfaf60e01b8552911660045216602452fd5b6110758261304f565b63ffffffff80611083613060565b16911614155f146110dd5761109f61109a8361304f565b61359f565b7fa596cfacd06610b4e094472b3f6712f263b9a8af5fbd18924780c678a4fc55e660206110cb8461304f565b63ffffffff60405191168152a1610ac8565b602481016110ea8161304f565b63ffffffff806110f8613060565b16911603611107575b50610ac8565b602061113f8261102361113a7f50b3808988e8880c34e4b58088d8eeeb40410dd2a2238a299db9187644259b059561304f565b613562565b63ffffffff60405191168152a15f611101565b5061115f6024820161304f565b63ffffffff8061116d613060565b16911614156109f4565b50346105a75761119f6111c161118c36612db9565b9093915060208082518301019101612fb7565b919092838552600f6020521515604085209060ff801983541691151516179055565b818352601060205260ff6040842054166111d9578280f35b60028354146113645760028355818352600b60205260408320906111ff61062783612deb565b61120882612deb565b9160c083015182516020840120036113555760a083015160038110156113415761133257600101805460ff60e01b198116600160e01b17909155838552600f60209081526040808720548688526010909252862054869460ff918216949392909116916001600160a01b031690813b1561132e57856112a4916112c882966040519889978896879563e9af128360e01b87526004870190612f42565b15156101048501521515610124840152610160610144840152610164830190612d04565b03925af180156113235761130e575b505060207f712ae1383f79ac853f8d882153778e0260ef8f03b504e2866e0593e04d2b291f91604051908152a1600181555f808280f35b8161131891612c43565b6105a357815f6112d7565b6040513d84823e3d90fd5b8580fd5b63ac18c45760e01b8552600485fd5b634e487b7160e01b86526021600452602486fd5b637c6953f960e01b8552600485fd5b633ee5aeb560e01b8352600483fd5b50346105a757806003193601126105a757506113bc604051611396604082612c43565b60058152640352e302e360dc1b6020820152604051918291602083526020830190612d04565b0390f35b50346105a757806003193601126105a75760018060a01b0360085416604051918281600954926113ef84612bdb565b80845293600181169081156114825750600114611423575b5061141492500383612c43565b6113bc60405192839283612d97565b60098152919290507f6e1540171b6c0c960b71a7020d9f60077f6af931a8bbf590da0223dacf75c7af5b818310611466575050906020611414928201015f611407565b602091935080600191548385890101520191019091849261144d565b90506020925061141494915060ff191682840152151560051b8201015f611407565b50346105a75760803660031901126105a7576114be612b84565b6024356001600160401b03811161059f576114dd903690600401612bae565b9091604435916001600160401b0383116119045782600401936040600319853603011261132e576064356001600160401b038111610d0357611523903690600401612bae565b600854604051630721609560e01b81526001600160a01b03968716600482018190526060602483015260095490979194919092169284928b9283929161156881612bdb565b908160648801526001811690815f146118e05750600114611881575b506115a2859360209795938593600319858403016044860152612ee8565b03925af190811561187657879161183b575b501561182c5760045463ffffffff164363ffffffff16906115d491613021565b600254908160201c63ffffffff166115ec9082613021565b9163ffffffff166115fd9082613021565b956024019161160c8389612e71565b369061161792612d43565b80516020909101206001600160a01b036116308a612ea3565b1660055492604051996116428b612c13565b898b5260208b019563ffffffff16865260408b0192835260608b019163ffffffff16825260808b019063ffffffff16815260a08b01918d835260c08c0194855260e08c019586528d60035490528d600b6020526040902096600160a01b600190038d600160a01b60019003905116166001600160601b0360a01b8954161788555163ffffffff166116ef90889081549063ffffffff60a01b9060a01b169063ffffffff60a01b1916179055565b9251600187018054945163ffffffff60a01b60a09190911b166001600160a01b039092166001600160c01b03199095169490941717835551825463ffffffff60c01b191660c09190911b63ffffffff60c01b1617825551600381101561181857815460ff60e01b191660e09190911b60ff60e01b161790555160028301555160039182015554957ff8da673e3fac9fbd1c74ccfca5e1de23da9b2d616a790f0aeb2ba3f575c04ff19594936117f093909290916117e1916117af91612e71565b9290936117cd6040519889988c8a5260208a01526040890190612f42565b610180610140880152610180870191612ee8565b91848303610160860152612ee8565b0390a15f1981146118045760010160035580f35b634e487b7160e01b82526011600452602482fd5b634e487b7160e01b8c52602160045260248cfd5b63078b51a960e41b8652600486fd5b90506020813d60201161186e575b8161185660209383612c43565b81010312610d0357518015158103610d03575f6115b4565b3d9150611849565b6040513d89823e3d90fd5b6009855290925083907f6e1540171b6c0c960b71a7020d9f60077f6af931a8bbf590da0223dacf75c7af5b8183106118c35750508401608401916115a2611584565b8054838a01608401528896508e95506020909201916001016118ac565b60ff191660848089019190915291151560051b870190910193506115a29050611584565b8480fd5b50346105a757806003193601126105a7576020600554604051908152f35b50346105a757806003193601126105a757602063ffffffff60025416604051908152f35b50346105a75760203660031901126105a75760ff60406020926004358152600f84522054166040519015158152f35b50346105a75760a03660031901126105a757611993612b84565b602435906044356001600160401b038111612057576119b6903690600401612bae565b9091606435916001600160401b03831161132e573660238401121561132e578260040135936001600160401b038511610d03576024840193602436918760051b010111610d03576084356001600160401b03811161205357611a1c903690600401612bae565b929093878952600b602052611a3360408a20612deb565b96611a3d886132e2565b63ffffffff608089015116431015612044576020880163ffffffff81511643106120355760a089015160038110156118185761202657898b52600d60205260408b2060018060a01b0384165f5260205260405f20546120175763ffffffff60e0918b8d9b9a9b52600d60205260408d2060018060a01b0386165f52602052600160405f2055511697015190611ad2818a613b7d565b8a986001600160a01b03909316978993905b828510611eaa5750505050508515611e9b57611b07611b29926020923691612d43565b6040518093819263ba76f2a960e01b8352604060048401526044830190612d04565b33602483015203818a5f80516020613d088339815191525af1908115611876578791611e69575b50611b62611b5c613368565b8261340d565b6040516333f3d1bf60e11b8152600160048201526020816024818c5f80516020613d088339815191525af18015611e5e578990611e2a575b611ba591508361340d565b6040516333f3d1bf60e11b81526002600482015290926020826024818d5f80516020613d088339815191525af1918215611e1f578a92611de7575b5092611c2d611bf783611cd096611c7e955061340d565b93611c00613368565b908b8d52600c60205260408d208d805260205260408d2054611dc8575b611c27828c613459565b906134a5565b611c3730826134fd565b898b52600c60205260408b208b805260205260408b2055611c56613368565b90898b52600c60205260408b2060018c5260205260408b2054611da8575b611c27828a613459565b611c8830826134fd565b878952600c6020526040892060018a526020526040892055611ca8613368565b90878952600c6020526040892060028a526020526040892054611d88575b611c278288613459565b611cda30826134fd565b858752600c6020526040872060028852602052604087205580155f14611d36575050916060917f2acce567deca3aabf56327adbb4524bd5318936eaefa69e3a5208ffda0cfec099360405192835260208301526040820152a180f35b90611d82917f06ea6e0168d099ae59da819d4c740c09c554a12489383ba2c88d144924757eb0959394604051958695865260208601526040850152608060608501526080840191612ee8565b0390a180f35b9050868852600c6020526040882060028952602052604088205490611cc6565b9050888a52600c60205260408a2060018b5260205260408a205490611c74565b90508a8c52600c60205260408c208c805260205260408c205490611c1d565b9150926020823d602011611e17575b81611e0360209383612c43565b8101031261086c5790519092611c2d611be0565b3d9150611df6565b6040513d8c823e3d90fd5b506020813d602011611e56575b81611e4460209383612c43565b8101031261086c57611ba59051611b9a565b3d9150611e37565b6040513d8b823e3d90fd5b90506020813d602011611e93575b81611e8460209383612c43565b8101031261086c57515f611b50565b3d9150611e77565b63df0cf4fb60e01b8852600488fd5b909192939960ff611ebf610c618d878761332f565b166001811b861615612005578d52600660205260408d2060405190604082018281106001600160401b03821117611ff0578f92868f8f90611f83611f42611f398b938e611f226001611f719c60209c604052818060a01b038154168c5201612c64565b8a8a0181905298516001600160a01b03169761332f565b87810190612e71565b6040519889978896879663871d81b760e01b885260048801526024870152608060448701526084860190612d04565b84810360031901606486015291612ee8565b03915afa9182156108785791611fbf575b508101809111611fab579960010193929190611ae4565b634e487b7160e01b8d52601160045260248dfd5b90506020813d8211611fe8575b81611fd960209383612c43565b8101031261086c57515f611f94565b3d9150611fcc565b50634e487b7160e01b8f52604160045260248ffd5b633cf93c6d60e21b8e5260045260248dfd5b6338ec521360e01b8b5260048bfd5b63ac18c45760e01b8b5260048bfd5b6334462bad60e11b8b5260048bfd5b633309d14160e11b8a5260048afd5b8780fd5b8380fd5b50346105a757806003193601126105a7575f80516020613cc8833981519152546040516001600160a01b039091168152602090f35b50346105a75760403660031901126105a757602435906001600160a01b03821682036105a7576040906004358152600d602052209060018060a01b03165f52602052602060405f2054604051908152f35b50346105a75760203660031901126105a7576020906040906001600160a01b03612109612b84565b168152600a83522054604051908152f35b50346105a757806003193601126105a7576121336132fc565b5f80516020613cc883398151915280546001600160a01b0319811690915581906001600160a01b03167f8be0079c531659141344cd1fd0a4f28419497f9722a3daafe3b4186f6b6457e08280a380f35b50346105a757806003193601126105a7576040519080600154906121a682612bdb565b808552916001811690811561223f57506001146121e2575b6113bc846121ce81860382612c43565b604051918291602083526020830190612d04565b600181527fb10e2d527612073b26eecdfd717e6a320cf44b4afac2b0732d9fcbe2b7fa0cf6939250905b808210612225575090915081016020016121ce826121be565b91926001816020925483858801015201910190929161220c565b60ff191660208087019190915292151560051b850190920192506121ce91508390506121be565b50346105a757806003193601126105a757602063ffffffff600254821c16604051908152f35b503461086c576122a16122c361118c36612db9565b919092835f526010602052151560405f209060ff801983541691151516179055565b815f52600f60205260ff60405f2054166122db578280f35b60025f54146124385760025f55815f52600b60205260405f209061230161062783612deb565b61230a82612deb565b9160c083015182516020840120036124295760a083015160038110156124155761240657600101805460ff60e01b198116600160e01b179091555f848152600f602090815260408083205460109092529091205460ff908116949116916001600160a01b031690813b1561086c575f6112a4916123a082966040519889978896879563e9af128360e01b87526004870190612f42565b03925af180156123fb576123e5575b5060207f712ae1383f79ac853f8d882153778e0260ef8f03b504e2866e0593e04d2b291f91604051908152a1600181555f808280f35b6123f29192505f90612c43565b5f9060206123af565b6040513d5f823e3d90fd5b63ac18c45760e01b5f5260045ffd5b634e487b7160e01b5f52602160045260245ffd5b637c6953f960e01b5f5260045ffd5b633ee5aeb560e01b5f5260045ffd5b3461086c57602036600319011261086c5760043560ff811680910361086c575f90815260066020526040902080546001600160a01b03169061248b90600101612c64565b906113bc60405192839283612d97565b3461086c575f36600319011261086c577f00000000000000000000000000000000000000000000000000000000000000006001600160a01b031630036124f25760206040515f80516020613ce88339815191528152f35b63703e46dd60e11b5f5260045ffd5b604036600319011261086c57612515612b84565b6024356001600160401b03811161086c57612534903690600401612d79565b6001600160a01b037f0000000000000000000000000000000000000000000000000000000000000000163081149081156126d5575b506124f2576125766132fc565b6040516352d1902d60e01b81526001600160a01b0383169290602081600481875afa5f91816126a1575b506125b85783634c9c8ce360e01b5f5260045260245ffd5b805f80516020613ce883398151915285920361268f5750813b1561267d575f80516020613ce883398151915280546001600160a01b031916821790557fbc7cd75a20ee27fd9adebab32041f755214dbc6bffa90cc0225b39da2e5c2d3b5f80a2815115612665575f8083602061265b95519101845af43d1561265d573d9161263f83612d28565b9261264d6040519485612c43565b83523d5f602085013e613c69565b005b606091613c69565b50503461266e57005b63b398979f60e01b5f5260045ffd5b634c9c8ce360e01b5f5260045260245ffd5b632a87526960e21b5f5260045260245ffd5b9091506020813d6020116126cd575b816126bd60209383612c43565b8101031261086c575190856125a0565b3d91506126b0565b5f80516020613ce8833981519152546001600160a01b03161415905083612569565b3461086c57602036600319011261086c576004356127136132fc565b805f52600b602052600160405f2061272d61062782612deb565b0160ff815460e01c1660038110156124155761240657805460ff60e01b1916600160e11b1790556040519081527f416e669c63d9a3a5e36ee7cc7e2104b8db28ccd286aa18966e98fa230c73b08c90602090a1005b3461086c57602036600319011261086c57600435805f52600b60205260206128026101446127b260405f20612deb565b6127bb816132e2565b60018060a01b03604082015116855f52600f855260ff60405f205416955f526010855260ff60405f2054166040519687958694632166db6560e21b86526004860190612f42565b151561010484015215156101248301525afa9081156123fb575f91612836575b506040516007821015612415576020918152f35b90506020813d602011612869575b8161285160209383612c43565b8101031261086c5751600781101561086c5781612822565b3d9150612844565b3461086c57602036600319011261086c576004355f52600e60205260405f2061289e600182549201612c64565b906113bc6040519283928352604060208401526040830190612d04565b3461086c575f36600319011261086c57602063ffffffff60045416604051908152f35b3461086c575f36600319011261086c576020600354604051908152f35b3461086c57602036600319011261086c576004355f526010602052602060ff60405f2054166040519015158152f35b3461086c57608036600319011261086c57612943612b84565b6044356024356001600160401b03821161086c5781600401916040600319823603011261086c576064356001600160401b03811161086c57612989903690600401612bae565b335f52600a60205260405f205415612aae57835f52600b60205260405f20956129b461062788612deb565b600187019060ff825460e01c16600381101561241557612406578754906001600160a01b03808316911603612a9f5760a01c63ffffffff16431015612a90577f3ed3909a2444f4afb9f14bf6e61874cebc207fa08f5034e074afe13065c81257966002612a31612a2a6024612a8b98018a612e71565b3691612d43565b80516020909101209101556001600160a01b0380612a4e88612ea3565b16166001600160601b0360a01b825416179055612a7d6040519586958652606060208701526060860190612f08565b918483036040860152612ee8565b0390a1005b63b05d2fa960e01b5f5260045ffd5b6348f5c3ed60e01b5f5260045ffd5b63599f5daf60e11b5f5260045ffd5b3461086c575f36600319011261086c57602060ff60075416604051908152f35b3461086c57602036600319011261086c57610100906004355f52600b60205260405f20805490612b6b600182015463ffffffff600360028501549401549460018060a01b038116875260a01c16602086015260018060a01b038116604086015263ffffffff8160a01c16606086015263ffffffff8160c01c16608086015260ff60a086019160e01c16612b77565b60c083015260e0820152f35b9060038210156124155752565b600435906001600160a01b038216820361086c57565b35906001600160a01b038216820361086c57565b9181601f8401121561086c578235916001600160401b03831161086c576020838186019501011161086c57565b90600182811c92168015612c09575b6020831014612bf557565b634e487b7160e01b5f52602260045260245ffd5b91607f1691612bea565b61010081019081106001600160401b03821117612c2f57604052565b634e487b7160e01b5f52604160045260245ffd5b90601f801991011681019081106001600160401b03821117612c2f57604052565b9060405191825f825492612c7784612bdb565b8084529360018116908115612ce25750600114612c9e575b50612c9c92500383612c43565b565b90505f9291925260205f20905f915b818310612cc6575050906020612c9c928201015f612c8f565b6020919350806001915483858901015201910190918492612cad565b905060209250612c9c94915060ff191682840152151560051b8201015f612c8f565b805180835260209291819084018484015e5f828201840152601f01601f1916010190565b6001600160401b038111612c2f57601f01601f191660200190565b929192612d4f82612d28565b91612d5d6040519384612c43565b82948184528183011161086c578281602093845f960137010152565b9080601f8301121561086c57816020612d9493359101612d43565b90565b6001600160a01b039091168152604060208201819052612d9492910190612d04565b606060031982011261086c576004359160243591604435906001600160401b03821161086c57612d9491600401612d79565b90604051612df881612c13565b809263ffffffff815460018060a01b038116845260a01c16602083015260ff600182015460018060a01b038116604085015263ffffffff8160a01c16606085015263ffffffff8160c01c16608085015260e01c1660038110156124155760e09160039160a0850152600281015460c08501520154910152565b903590601e198136030182121561086c57018035906001600160401b03821161086c5760200191813603831361086c57565b356001600160a01b038116810361086c5790565b9035601e198236030181121561086c5701602081359101916001600160401b03821161086c57813603831361086c57565b908060209392818452848401375f828201840152601f01601f1916010190565b612d949190604090612f32906001600160a01b03612f2582612b9a565b1684526020810190612eb7565b9190928160208201520191612ee8565b60e0809160018060a01b03815116845263ffffffff602082015116602085015260018060a01b03604082015116604085015263ffffffff606082015116606085015263ffffffff6080820151166080850152612fa660a082015160a0860190612b77565b60c081015160c08501520151910152565b919060408382031261086c578251926020810151906001600160401b03821161086c570181601f8201121561086c57805190612ff282612d28565b926130006040519485612c43565b8284526020838301011161086c57815f9260208093018386015e8301015290565b9063ffffffff8091169116019063ffffffff821161303b57565b634e487b7160e01b5f52601160045260245ffd5b3563ffffffff8116810361086c5790565b6040516020810190684e6f2075706461746560b81b825260098152613086602982612c43565b51902060e01c90565b6040516020810190684e6f2075706461746560b81b8252600981526130b5602982612c43565b51902090565b903590603e198136030182121561086c570190565b903590601e198136030182121561086c57018035906001600160401b03821161086c57602001918160051b3603831361086c57565b916020908281520191905f5b81811061311e5750505090565b909192602080600192838060a01b0361313688612b9a565b168152019401929101613111565b9035603e198236030181121561086c570190565b90602083828152019260208260051b82010193835f925b84841061317f5750505050505090565b9091929394956020806131a6600193601f198682030188526131a18b88613144565b612f08565b980194019401929493919061316f565b90602083828152019260208260051b82010193835f925b8484106131dd5750505050505090565b909192939495602080613205600193601f198682030188526131ff8b88612eb7565b90612ee8565b98019401940192949391906131cd565b604090612d94949281528160208201520191612ee8565b6001600160a01b0316801561328a575f80516020613cc883398151915280546001600160a01b0319811683179091556001600160a01b03167f8be0079c531659141344cd1fd0a4f28419497f9722a3daafe3b4186f6b6457e05f80a3565b631e4fbdf760e01b5f525f60045260245ffd5b359063ffffffff8216820361086c57565b9035601e198236030181121561086c5701602081359101916001600160401b03821161086c578160051b3603831361086c57565b60c00151156132ed57565b631dc0650160e31b5f5260045ffd5b5f80516020613cc8833981519152546001600160a01b0316330361331c57565b63118cdaa760e01b5f523360045260245ffd5b9082101561334657612d949160051b8101906130bb565b634e487b7160e01b5f52603260045260245ffd5b3560ff8116810361086c5790565b6040516333f3d1bf60e11b81525f60048201526020816024815f5f80516020613d088339815191525af19081156123fb575f916133a3575090565b90506020813d6020116133ca575b816133be60209383612c43565b8101031261086c575190565b3d91506133b1565b604051906333f3d1bf60e11b825260048201526020816024815f5f80516020613d088339815191525af19081156123fb575f916133a3575090565b61078861341991613c12565b6040519163e25800ab60e01b8352600483015260248201526020816044815f5f80516020613d088339815191525af19081156123fb575f916133a3575090565b610788613465916133d2565b6040519163f4f9966b60e01b8352600483015260248201526020816044815f5f80516020613d088339815191525af19081156123fb575f916133a3575090565b6107886107386134b792949394613c24565b9060405192636ce80bfb60e11b84526004840152602483015260448201526020816064815f5f80516020613d088339815191525af19081156123fb575f916133a3575090565b905f80516020613d088339815191523b1561086c57604051635ca4b5b160e11b815260048101929092526001600160a01b031660248201525f81604481835f80516020613d088339815191525af180156123fb576135585750565b5f612c9c91612c43565b60025463ffffffff808260201c16921691808310613588575063ffffffff191617600255565b905063c564bfaf60e01b5f5260045260245260445ffd5b6002549063ffffffff821663ffffffff82168181116135da57505067ffffffff000000009060201b169067ffffffff00000000191617600255565b63c564bfaf60e01b5f5260045260245260445ffd5b8181106135fa575050565b5f81556001016135ef565b91906001600160401b038111612c2f57613620600154612bdb565b601f81116136e5575b505f601f821160011461366857819061365893945f9261365d575b50508160011b915f199060031b1c19161790565b600155565b013590505f80613644565b601f1982169360015f527fb10e2d527612073b26eecdfd717e6a320cf44b4afac2b0732d9fcbe2b7fa0cf6915f5b8681106136cd57508360019596106136b4575b505050811b01600155565b01355f19600384901b60f8161c191690555f80806136a9565b90926020600181928686013581550194019101613696565b60015f5261372e907fb10e2d527612073b26eecdfd717e6a320cf44b4afac2b0732d9fcbe2b7fa0cf6601f840160051c81019160208510613734575b601f0160051c01906135ef565b5f613629565b9091508190613721565b613771906001600160a01b0361375382612ea3565b166001600160601b0360a01b60085416176008556020810190612e71565b6001600160401b038193929311612c2f5761378d600954612bdb565b601f8111613829575b505f601f82116001146137c95781906137c493945f9261365d5750508160011b915f199060031b1c19161790565b600955565b601f1982169360095f5260205f20915f5b86811061381157508360019596106137f8575b505050811b01600955565b01355f19600384901b60f8161c191690555f80806137ed565b909260206001819286860135815501940191016137da565b60095f52613871907f6e1540171b6c0c960b71a7020d9f60077f6af931a8bbf590da0223dacf75c7af601f840160051c8101916020851061373457601f0160051c01906135ef565b5f613796565b91908110156133465760051b0190565b5f5b82811061389557505050565b6001906001600160a01b036138ae610b8c838787613877565b165f52600a6020528160405f205501613889565b60ff1660ff811461303b5760010190565b91909160055460ff60075416918461010003610100811161303b57831015613a9b575f905b85821061391757505060ff9293506005551660ff196007541617600755565b9092916001600160a01b03613930610b8c86898661332f565b1615613a8c57600160ff84161b179161394a84878461332f565b60ff82165f52600660205261398a600160405f20818060a01b0361396d85612ea3565b82546001600160a01b031916911617815501916020810190612e71565b906001600160401b038211612c2f576139a38354612bdb565b601f8111613a5c575b505f90601f83116001146139f15782600195936139e995936139e2935f9261365d5750508160011b915f199060031b1c19161790565b90556138c2565b9301906138f8565b601f19831691845f5260205f20925f5b818110613a445750926001969491928793836139e9989610613a2b575b505050811b0190556138c2565b01355f19600384901b60f8161c191690555f8080613a1e565b91936020600181928787013581550195019201613a01565b613a8690845f5260205f20601f850160051c8101916020861061373457601f0160051c01906135ef565b5f6139ac565b63d92e233d60e01b5f5260045ffd5b63b080741160e01b5f5260045ffd5b611c20420180421161303b57613ac1602092613c24565b6040516379ff90f960e11b815263197b05fb60e31b600482015260248101929092526044820152608060648201529182908190613b02906084830190612d04565b03815f5f80516020613d088339815191525af19081156123fb575f916133a3575090565b611c20420180421161303b57613b3d602092613c24565b6040516379ff90f960e11b8152620d651360eb1b600482015260248101929092526044820152608060648201529182908190613b02906084830190612d04565b9060028110613be3575f90815b818310613b975750505050565b600160ff613ba9610c6186868961332f565b161b90818116613bc0579060019117920191613b8a565b60ff613bd0610c6186868961332f565b631ed4de8360e01b5f521660045260245ffd5b5050565b60ff5f80516020613d288339815191525460401c1615613c0357565b631afcd79f60e31b5f5260045ffd5b8015613c1b5790565b50612d94613368565b8015613c2d5790565b50604051635d7d539760e01b81525f60048201526020816024815f5f80516020613d088339815191525af19081156123fb575f916133a3575090565b90613c8d5750805115613c7e57805190602001fd5b63d6bda27560e01b5f5260045ffd5b81511580613cbe575b613c9e575090565b639996b31560e01b5f9081526001600160a01b0391909116600452602490fd5b50803b15613c9656fe9016d09d72d40fdae2fd8ceac6b6234c7706214fd39c1cd1e609a0528c199300360894a13ba1a3210667c828492db98dca3e2076cc3735a920a3ca505d382bbc000000000000000000000000ebaff6d578733e4603b99cbdbb221482f29a78e1f0c57e16840df040f15088dc2f81fe391c3923bec73e23a9662efc9c229c6a00a264697066735822122050925446a60880d5f0129d51601d2e2c6fc45237b4490ecf6d65e0a904c7bfb764736f6c634300081a0033",
  "deployedBytecode": "0x6080806040526004361015610012575f80fd5b5f905f3560e01c908163013cf08b14612a40575080630533710414612a205780630b5155701461288d5780631880dd601461285e5780632ab09d14146128415780633932abb11461281e5780633d41f022146127d4578063401853b7146127a557806340e58ee51461271a5780634f1ef2861461252457806352d1902d146124be57806361ae29781461246a5780636b289800146122af5780636df7bab3146122895780637034731b146121a6578063715018a61461213d578063791eb85414612104578063792cb5a3146120b35780638da5cb5b1461207e578063954ee6da1461199c57806395fbe6e81461196d5780639d49257c14611949578063a44c31d51461192b578063aad83f3b146114a9578063ab1d89a7146113c5578063ad3cb1cc14611378578063cbd82fd814611177578063d830616c14610993578063de9a9508146105d5578063f2fde38b146105a85763f8b669d614610173575f80fd5b346105a55760203660031901126105a5576004356001600160401b0381116105a35780600401610160600319833603011261059f575f516020613d325f395f51905f52549160ff8360401c1615926001600160401b03811680159081610597575b600114908161058d575b159081610584575b506105755767ffffffffffffffff1981166001175f516020613d325f395f51905f525583610549575b5061010481019161022083826130fa565b90501561053a5761014482019061023782826130fa565b90501561052b5761024884826130fa565b6101248501915061025982846130fa565b9190500361051c57610269613c11565b610271613c11565b61027a33613256565b61028382612e06565b61028b613326565b61029490613256565b60c48401946102a38684612dd4565b6102ac9161362f565b60648501946102ba86613079565b6102c39061358c565b60448101966102d188613079565b6102da906135c9565b608482016102e881876130e5565b6102f190613768565b60248301976102ff89613079565b6103199063ffffffff1663ffffffff196004541617600455565b61032385886130fa565b61032c916138fd565b61033688886130fa565b61033f916138b1565b6001600355604080513081526020810191909152998a996001600160a01b036103678a612afd565b1660408c0152610376906132c7565b63ffffffff1660608b015261038a906132c7565b63ffffffff1660808a015261039e906132c7565b63ffffffff1660a08901526103b3908661316e565b60c0880161016090526101a088016103ca91612e6b565b6103d760a4840187612e1a565b898303603f190160e08b01526103ed9291612e4b565b906103f89086612e1a565b888303603f19016101008a015261040f9291612e4b565b9060e40161041d9085612e1a565b878303603f19016101208901526104349291612e4b565b9061043f90846132d8565b868303603f19016101408801526104569291613182565b9061046190836132d8565b858303603f190161016087015261047892916131e0565b91610482916132d8565b838303603f1901610180850152610499929161312f565b037f2bac6eaeab23b0b745bf82b395e2235102c0c43fa59a99e32f0d795aae90936091a16104c45780f35b68ff0000000000000000195f516020613d325f395f51905f5254165f516020613d325f395f51905f52557fc7f505b2f371ae2175ee4913f4499e1f2633a7b5936321eed1cdaeb6115181d2602060405160018152a180f35b63512509d360e11b8752600487fd5b63521299a960e01b8652600486fd5b63521299a960e01b8552600485fd5b68ffffffffffffffffff191668010000000000000001175f516020613d325f395f51905f52555f61020f565b63f92ee8a960e01b8552600485fd5b9050155f6101e6565b303b1591506101de565b8591506101d4565b8280fd5b505b80fd5b50346105a55760203660031901126105a5576105d26105c5612ae7565b6105cd613326565b613256565b80f35b50346105a55760403660031901126105a5576004356024356001600160401b03811161059f57610609903690600401612b11565b9290828252600b60205261061f60408320612d4e565b6106288161330c565b61063184612f1a565b600781101561097f5760041461093a57600490848452600c60205260408420600185526020526040842054858552600c60205260408520600286526020526020604086205492878752600c82526040872087805282526106aa60408820546106993086613527565b6106a33087613527565b3090613527565b604090810151905163c26c12eb60e01b815294859182906001600160a01b03165afa9283156108ba578593610906575b506106e481613c3c565b926106ee83613c3c565b6040519463f4f9966b60e01b865260048601526024850152602084604481895f516020613d525f395f51905f525af19384156108fb5786946108c5575b5061073861073e916133fc565b93613c3c565b6040519363725e1da560e01b855260048501526024840152602083604481885f516020613d525f395f51905f525af19283156108ba578593610884575b5061078861078e91613c3c565b91613c3c565b604051916305f6c42760e01b835260048301526024820152602081604481875f516020613d525f395f51905f525af19384156108785793610838575b509161082a6020959261081761082f956107e43082613527565b6107ee3086613527565b604051906108128261080489878d8f850161323f565b03601f198101845283612ba6565b613ad4565b50610804604051948592888a850161323f565b613b50565b50604051908152f35b949192506020853d602011610870575b8161085560209383612ba6565b8101031261086c579351909390919061082a6107ca565b5f80fd5b3d9150610848565b604051903d90823e3d90fd5b9092506020813d6020116108b2575b816108a060209383612ba6565b8101031261086c57519161078861077b565b3d9150610893565b6040513d87823e3d90fd5b9093506020813d6020116108f3575b816108e160209383612ba6565b8101031261086c57519261073861072b565b3d91506108d4565b6040513d88823e3d90fd5b9092506020813d602011610932575b8161092260209383612ba6565b8101031261086c5751915f6106da565b3d9150610915565b60405162461bcd60e51b815260206004820152601960248201527f50726f706f73616c20416c7265616479204578656375746564000000000000006044820152606490fd5b634e487b7160e01b84526021600452602484fd5b50346105a55760203660031901126105a5576004356001600160401b0381116105a3578060040190610180600319823603011261059f576109d2613326565b6109db82613079565b63ffffffff806109e961308a565b169116141580611152575b1561106c57610a0282613079565b602482019063ffffffff80610a1684613079565b1691161161103b576020610aba7f50b3808988e8880c34e4b58088d8eeeb40410dd2a2238a299db9187644259b0592610a4e86613079565b6002547fa596cfacd06610b4e094472b3f6712f263b9a8af5fbd18924780c678a4fc55e685610a7c8a613079565b63ffffffff60405191168152a167ffffffff0000000063ffffffff610aa085613079565b1692861b16906001600160401b0319161717600255613079565b63ffffffff60405191168152a15b60448101610ad581613079565b63ffffffff80610ae361308a565b16911603610fda575b5060648101610afb8184612dd4565b610b226020604051838194838301968737810189838201520301601f198101835282612ba6565b519020610b2d6130b9565b03610f8f575b5060848101610b428184612dd4565b610b696020604051838194838301968737810189838201520301601f198101835282612ba6565b519020610b746130b9565b03610f31575b5060a48101610b91610b8c82856130e5565b612e06565b6040516020810190684e6f2075706461746560b81b825260098152610bb7602982612ba6565b51902060601c6001600160a01b0390911603610eb6575b5060e48101610bdd81846130fa565b9050610e58575b506101048101610bf481846130fa565b9050610dc9575b506101248101610c0b81846130fa565b9050610d16575b5061016401610c2181836130fa565b9050610c2b578280f35b9091610c3782846130fa565b9091805b60ff811683811015610c775790610c7291600160ff610c66610c6160055494898b6138a1565b613384565b161b19166005556138ec565b610c3b565b50509391505060055415610d075790610c8f916130fa565b90604051918060208401602085525260408301919084905b808210610cde5750505090807f24c5d4b9c170a0ef0634046f1a7a184dd341c99da7242482e42cc2782076cea3920390a15f808280f35b90919283359060ff8216809203610d0357602081600193829352019401920190610ca7565b8680fd5b63e1757fd560e01b8352600483fd5b610d2081846130fa565b6101448401929150610d3283866130fa565b91905003610dba576101649291610d8c610db1610d8384610d7d610d777fb25fe8e833c47cb186483982b4f2f778aa2f38c644be53123589397650b703e9978b6130fa565b906138fd565b886130fa565b929093886130fa565b610da3604051958695604087526040870191613182565b9184830360208601526131e0565b0390a190610c12565b63512509d360e11b8552600485fd5b610dd381846130fa565b90855b828110610e2b57505050610e0b7f2befc5f117311dbd6cabfd7bc4cec09eeefc83a55c9140bbf298951571f5cb8691846130fa565b610e2260405192839260208452602084019161312f565b0390a15f610bfb565b6001906001600160a01b03610e44610b8c8387876138a1565b168852600a60205287604081205501610dd6565b610e9681610e90610e8a7f0f1800fbca5c51a50ca47d2d359d89a9872ebc0d41b791582770add9d9d7e7bc94876130fa565b906138b1565b846130fa565b610ead60405192839260208452602084019161312f565b0390a15f610be4565b610f1a610ef682610ef0610eeb7f94882eaeb9096621809ce0a70444da5f387f4763a9b4e0e5918d73997b42898495886130e5565b613768565b856130e5565b610f28610f0660c4860187612dd4565b604051948594604086526040860190612e6b565b918483036020860152612e4b565b0390a15f610bce565b610f6f81610f69610f637fa22a853196a129f951085238393763195d8916dc54e3234dc400d7489da4a53b9487612dd4565b9061362f565b84612dd4565b610f86604051928392602084526020840191612e4b565b0390a15f610b7a565b610fba7fefafb90526da1636e1335eac0151301742fb755d986954c613b90e891778ba399184612dd4565b610fd1604051928392602084526020840191612e4b565b0390a15f610b33565b60206110288261102361100d7fbc6c72d7791c961f1d6512e4f3262d03f19dd0571eef8f5ec54a5acdf297701395613079565b63ffffffff1663ffffffff196004541617600455565b613079565b63ffffffff60405191168152a15f610aec565b8363ffffffff6044928161105761105188613079565b92613079565b63c564bfaf60e01b8552911660045216602452fd5b61107582613079565b63ffffffff8061108361308a565b16911614155f146110dd5761109f61109a83613079565b6135c9565b7fa596cfacd06610b4e094472b3f6712f263b9a8af5fbd18924780c678a4fc55e660206110cb84613079565b63ffffffff60405191168152a1610ac8565b602481016110ea81613079565b63ffffffff806110f861308a565b16911603611107575b50610ac8565b602061113f8261102361113a7f50b3808988e8880c34e4b58088d8eeeb40410dd2a2238a299db9187644259b0595613079565b61358c565b63ffffffff60405191168152a15f611101565b5061115f60248201613079565b63ffffffff8061116d61308a565b16911614156109f4565b50346105a55761119f6111c161118c36612d1c565b9093915060208082518301019101612fe1565b919092838552600f6020521515604085209060ff801983541691151516179055565b818352601060205260ff6040842054166111d9578280f35b60028354146113695760028355818352600b60205260408320906112046111ff83612d4e565b61330c565b61120d82612d4e565b9160c0830151825160208401200361135a5760a083015160038110156113465761133757600101805460ff60e01b198116600160e01b17909155838552600f60209081526040808720548688526010909252862054869460ff918216949392909116916001600160a01b031690813b1561133357856112a9916112cd82966040519889978896879563e9af128360e01b87526004870190612ea5565b15156101048501521515610124840152610160610144840152610164830190612c67565b03925af1801561132857611313575b505060207f712ae1383f79ac853f8d882153778e0260ef8f03b504e2866e0593e04d2b291f91604051908152a1600181555f808280f35b8161131d91612ba6565b6105a357815f6112dc565b6040513d84823e3d90fd5b8580fd5b63ac18c45760e01b8552600485fd5b634e487b7160e01b86526021600452602486fd5b637c6953f960e01b8552600485fd5b633ee5aeb560e01b8352600483fd5b50346105a557806003193601126105a557506113c160405161139b604082612ba6565b60058152640352e302e360dc1b6020820152604051918291602083526020830190612c67565b0390f35b50346105a557806003193601126105a55760018060a01b0360085416604051918281600954926113f484612b3e565b80845293600181169081156114875750600114611428575b5061141992500383612ba6565b6113c160405192839283612cfa565b60098152919290507f6e1540171b6c0c960b71a7020d9f60077f6af931a8bbf590da0223dacf75c7af5b81831061146b575050906020611419928201015f61140c565b6020919350806001915483858901015201910190918492611452565b90506020925061141994915060ff191682840152151560051b8201015f61140c565b50346105a55760803660031901126105a5576114c3612ae7565b6024356001600160401b03811161059f576114e2903690600401612b11565b9091604435916001600160401b03831161192757826004019360406003198536030112611333576064356001600160401b038111610d0357611528903690600401612b11565b93338852600a6020526040882054156119185760018060a01b03600854169088604051938492630721609560e01b845260018060a01b03169788600485015260606024850152829160095461157c81612b3e565b908160648801526001811690815f146118f45750600114611895575b506115b6859360209795938593600319858403016044860152612e4b565b03925af190811561188a57879161184f575b50156118405760045463ffffffff164363ffffffff16906115e89161304b565b600254908160201c63ffffffff16611600908261304b565b9163ffffffff16611611908261304b565b95602401916116208389612dd4565b369061162b92612ca6565b80516020909101206001600160a01b036116448a612e06565b1660055492604051996116568b612b76565b898b5260208b019563ffffffff16865260408b0192835260608b019163ffffffff16825260808b019063ffffffff16815260a08b01918d835260c08c0194855260e08c019586528d60035490528d600b6020526040902096600160a01b600190038d600160a01b60019003905116166001600160601b0360a01b8954161788555163ffffffff1661170390889081549063ffffffff60a01b9060a01b169063ffffffff60a01b1916179055565b9251600187018054945163ffffffff60a01b60a09190911b166001600160a01b039092166001600160c01b03199095169490941717835551825463ffffffff60c01b191660c09190911b63ffffffff60c01b1617825551600381101561182c57815460ff60e01b191660e09190911b60ff60e01b161790555160028301555160039182015554957ff8da673e3fac9fbd1c74ccfca5e1de23da9b2d616a790f0aeb2ba3f575c04ff195949361180493909290916117f5916117c391612dd4565b9290936117e16040519889988c8a5260208a01526040890190612ea5565b610180610140880152610180870191612e4b565b91848303610160860152612e4b565b0390a15f1981146118185760010160035580f35b634e487b7160e01b82526011600452602482fd5b634e487b7160e01b8c52602160045260248cfd5b63078b51a960e41b8652600486fd5b90506020813d602011611882575b8161186a60209383612ba6565b81010312610d0357518015158103610d03575f6115c8565b3d915061185d565b6040513d89823e3d90fd5b6009855290925083907f6e1540171b6c0c960b71a7020d9f60077f6af931a8bbf590da0223dacf75c7af5b8183106118d75750508401608401916115b6611598565b8054838a01608401528896508e95506020909201916001016118c0565b60ff191660848089019190915291151560051b870190910193506115b69050611598565b63599f5daf60e11b8852600488fd5b8480fd5b50346105a557806003193601126105a5576020600554604051908152f35b50346105a557806003193601126105a557602063ffffffff60025416604051908152f35b50346105a55760203660031901126105a55760ff60406020926004358152600f84522054166040519015158152f35b50346105a55760a03660031901126105a5576119b6612ae7565b602435906044356001600160401b03811161207a576119d9903690600401612b11565b9091606435916001600160401b0383116113335736602384011215611333578260040135936001600160401b038511610d03576024840193602436918760051b010111610d03576084356001600160401b03811161207657611a3f903690600401612b11565b929093878952600b602052611a5660408a20612d4e565b96611a608861330c565b63ffffffff608089015116431015612067576020880163ffffffff81511643106120585760a0890151600381101561182c5761204957898b52600d60205260408b2060018060a01b0384165f5260205260405f205461203a5763ffffffff60e0918b8d9b9a9b52600d60205260408d2060018060a01b0386165f52602052600160405f2055511697015190611af5818a613ba7565b8a986001600160a01b03909316978993905b828510611ecd5750505050508515611ebe57611b2a611b4c926020923691612ca6565b6040518093819263ba76f2a960e01b8352604060048401526044830190612c67565b33602483015203818a5f516020613d525f395f51905f525af190811561188a578791611e8c575b50611b85611b7f613392565b82613437565b6040516333f3d1bf60e11b8152600160048201526020816024818c5f516020613d525f395f51905f525af18015611e81578990611e4d575b611bc8915083613437565b6040516333f3d1bf60e11b81526002600482015290926020826024818d5f516020613d525f395f51905f525af1918215611e42578a92611e0a575b5092611c50611c1a83611cf396611ca19550613437565b93611c23613392565b908b8d52600c60205260408d208d805260205260408d2054611deb575b611c4a828c613483565b906134cf565b611c5a3082613527565b898b52600c60205260408b208b805260205260408b2055611c79613392565b90898b52600c60205260408b2060018c5260205260408b2054611dcb575b611c4a828a613483565b611cab3082613527565b878952600c6020526040892060018a526020526040892055611ccb613392565b90878952600c6020526040892060028a526020526040892054611dab575b611c4a8288613483565b611cfd3082613527565b858752600c6020526040872060028852602052604087205580155f14611d59575050916060917f2acce567deca3aabf56327adbb4524bd5318936eaefa69e3a5208ffda0cfec099360405192835260208301526040820152a180f35b90611da5917f06ea6e0168d099ae59da819d4c740c09c554a12489383ba2c88d144924757eb0959394604051958695865260208601526040850152608060608501526080840191612e4b565b0390a180f35b9050868852600c6020526040882060028952602052604088205490611ce9565b9050888a52600c60205260408a2060018b5260205260408a205490611c97565b90508a8c52600c60205260408c208c805260205260408c205490611c40565b9150926020823d602011611e3a575b81611e2660209383612ba6565b8101031261086c5790519092611c50611c03565b3d9150611e19565b6040513d8c823e3d90fd5b506020813d602011611e79575b81611e6760209383612ba6565b8101031261086c57611bc89051611bbd565b3d9150611e5a565b6040513d8b823e3d90fd5b90506020813d602011611eb6575b81611ea760209383612ba6565b8101031261086c57515f611b73565b3d9150611e9a565b63df0cf4fb60e01b8852600488fd5b909192939960ff611ee2610c618d8787613359565b166001811b861615612028578d52600660205260408d2060405190604082018281106001600160401b03821117612013578f92868f8f90611fa6611f65611f5c8b938e611f456001611f949c60209c604052818060a01b038154168c5201612bc7565b8a8a0181905298516001600160a01b031697613359565b87810190612dd4565b6040519889978896879663871d81b760e01b885260048801526024870152608060448701526084860190612c67565b84810360031901606486015291612e4b565b03915afa9182156108785791611fe2575b508101809111611fce579960010193929190611b07565b634e487b7160e01b8d52601160045260248dfd5b90506020813d821161200b575b81611ffc60209383612ba6565b8101031261086c57515f611fb7565b3d9150611fef565b50634e487b7160e01b8f52604160045260248ffd5b633cf93c6d60e21b8e5260045260248dfd5b6338ec521360e01b8b5260048bfd5b63ac18c45760e01b8b5260048bfd5b6334462bad60e11b8b5260048bfd5b633309d14160e11b8a5260048afd5b8780fd5b8380fd5b50346105a557806003193601126105a5575f516020613cf25f395f51905f52546040516001600160a01b039091168152602090f35b50346105a55760403660031901126105a557602435906001600160a01b03821682036105a5576040906004358152600d602052209060018060a01b03165f52602052602060405f2054604051908152f35b50346105a55760203660031901126105a5576020906040906001600160a01b0361212c612ae7565b168152600a83522054604051908152f35b50346105a557806003193601126105a557612156613326565b5f516020613cf25f395f51905f5280546001600160a01b0319811690915581906001600160a01b03167f8be0079c531659141344cd1fd0a4f28419497f9722a3daafe3b4186f6b6457e08280a380f35b50346105a557806003193601126105a5576040519080600154906121c982612b3e565b80855291600181169081156122625750600114612205575b6113c1846121f181860382612ba6565b604051918291602083526020830190612c67565b600181527fb10e2d527612073b26eecdfd717e6a320cf44b4afac2b0732d9fcbe2b7fa0cf6939250905b808210612248575090915081016020016121f1826121e1565b91926001816020925483858801015201910190929161222f565b60ff191660208087019190915292151560051b850190920192506121f191508390506121e1565b50346105a557806003193601126105a557602063ffffffff600254821c16604051908152f35b503461086c576122c46122e661118c36612d1c565b919092835f526010602052151560405f209060ff801983541691151516179055565b815f52600f60205260ff60405f2054166122fe578280f35b60025f541461245b5760025f55815f52600b60205260405f20906123246111ff83612d4e565b61232d82612d4e565b9160c0830151825160208401200361244c5760a083015160038110156124385761242957600101805460ff60e01b198116600160e01b179091555f848152600f602090815260408083205460109092529091205460ff908116949116916001600160a01b031690813b1561086c575f6112a9916123c382966040519889978896879563e9af128360e01b87526004870190612ea5565b03925af1801561241e57612408575b5060207f712ae1383f79ac853f8d882153778e0260ef8f03b504e2866e0593e04d2b291f91604051908152a1600181555f808280f35b6124159192505f90612ba6565b5f9060206123d2565b6040513d5f823e3d90fd5b63ac18c45760e01b5f5260045ffd5b634e487b7160e01b5f52602160045260245ffd5b637c6953f960e01b5f5260045ffd5b633ee5aeb560e01b5f5260045ffd5b3461086c57602036600319011261086c5760043560ff811680910361086c575f90815260066020526040902080546001600160a01b0316906124ae90600101612bc7565b906113c160405192839283612cfa565b3461086c575f36600319011261086c577f00000000000000000000000000000000000000000000000000000000000000006001600160a01b031630036125155760206040515f516020613d125f395f51905f528152f35b63703e46dd60e11b5f5260045ffd5b604036600319011261086c57612538612ae7565b6024356001600160401b03811161086c57612557903690600401612cdc565b6001600160a01b037f0000000000000000000000000000000000000000000000000000000000000000163081149081156126f8575b5061251557612599613326565b6040516352d1902d60e01b81526001600160a01b0383169290602081600481875afa5f91816126c4575b506125db5783634c9c8ce360e01b5f5260045260245ffd5b805f516020613d125f395f51905f528592036126b25750813b156126a0575f516020613d125f395f51905f5280546001600160a01b031916821790557fbc7cd75a20ee27fd9adebab32041f755214dbc6bffa90cc0225b39da2e5c2d3b5f80a2815115612688575f8083602061267e95519101845af43d15612680573d9161266283612c8b565b926126706040519485612ba6565b83523d5f602085013e613c93565b005b606091613c93565b50503461269157005b63b398979f60e01b5f5260045ffd5b634c9c8ce360e01b5f5260045260245ffd5b632a87526960e21b5f5260045260245ffd5b9091506020813d6020116126f0575b816126e060209383612ba6565b8101031261086c575190856125c3565b3d91506126d3565b5f516020613d125f395f51905f52546001600160a01b0316141590508361258c565b3461086c57602036600319011261086c57600435612736613326565b805f52600b602052600160405f206127506111ff82612d4e565b0160ff815460e01c1660038110156124385761242957805460ff60e01b1916600160e11b1790556040519081527f416e669c63d9a3a5e36ee7cc7e2104b8db28ccd286aa18966e98fa230c73b08c90602090a1005b3461086c57602036600319011261086c576127c1600435612f1a565b6040516007821015612438576020918152f35b3461086c57602036600319011261086c576004355f52600e60205260405f20612801600182549201612bc7565b906113c16040519283928352604060208401526040830190612c67565b3461086c575f36600319011261086c57602063ffffffff60045416604051908152f35b3461086c575f36600319011261086c576020600354604051908152f35b3461086c57602036600319011261086c576004355f526010602052602060ff60405f2054166040519015158152f35b3461086c57608036600319011261086c576128a6612ae7565b6044356024356001600160401b03821161086c5781600401916040600319823603011261086c576064356001600160401b03811161086c576128ec903690600401612b11565b335f52600a60205260405f205415612a1157835f52600b60205260405f20956129176111ff88612d4e565b600187019060ff825460e01c16600381101561243857612429578754906001600160a01b03808316911603612a025760a01c63ffffffff164310156129f3577f3ed3909a2444f4afb9f14bf6e61874cebc207fa08f5034e074afe13065c8125796600261299461298d60246129ee98018a612dd4565b3691612ca6565b80516020909101209101556001600160a01b03806129b188612e06565b16166001600160601b0360a01b8254161790556129e06040519586958652606060208701526060860190612e6b565b918483036040860152612e4b565b0390a1005b63b05d2fa960e01b5f5260045ffd5b6348f5c3ed60e01b5f5260045ffd5b63599f5daf60e11b5f5260045ffd5b3461086c575f36600319011261086c57602060ff60075416604051908152f35b3461086c57602036600319011261086c57610100906004355f52600b60205260405f20805490612ace600182015463ffffffff600360028501549401549460018060a01b038116875260a01c16602086015260018060a01b038116604086015263ffffffff8160a01c16606086015263ffffffff8160c01c16608086015260ff60a086019160e01c16612ada565b60c083015260e0820152f35b9060038210156124385752565b600435906001600160a01b038216820361086c57565b35906001600160a01b038216820361086c57565b9181601f8401121561086c578235916001600160401b03831161086c576020838186019501011161086c57565b90600182811c92168015612b6c575b6020831014612b5857565b634e487b7160e01b5f52602260045260245ffd5b91607f1691612b4d565b61010081019081106001600160401b03821117612b9257604052565b634e487b7160e01b5f52604160045260245ffd5b90601f801991011681019081106001600160401b03821117612b9257604052565b9060405191825f825492612bda84612b3e565b8084529360018116908115612c455750600114612c01575b50612bff92500383612ba6565b565b90505f9291925260205f20905f915b818310612c29575050906020612bff928201015f612bf2565b6020919350806001915483858901015201910190918492612c10565b905060209250612bff94915060ff191682840152151560051b8201015f612bf2565b805180835260209291819084018484015e5f828201840152601f01601f1916010190565b6001600160401b038111612b9257601f01601f191660200190565b929192612cb282612c8b565b91612cc06040519384612ba6565b82948184528183011161086c578281602093845f960137010152565b9080601f8301121561086c57816020612cf793359101612ca6565b90565b6001600160a01b039091168152604060208201819052612cf792910190612c67565b606060031982011261086c576004359160243591604435906001600160401b03821161086c57612cf791600401612cdc565b90604051612d5b81612b76565b809263ffffffff815460018060a01b038116845260a01c16602083015260ff600182015460018060a01b038116604085015263ffffffff8160a01c16606085015263ffffffff8160c01c16608085015260e01c1660038110156124385760e09160039160a0850152600281015460c08501520154910152565b903590601e198136030182121561086c57018035906001600160401b03821161086c5760200191813603831361086c57565b356001600160a01b038116810361086c5790565b9035601e198236030181121561086c5701602081359101916001600160401b03821161086c57813603831361086c57565b908060209392818452848401375f828201840152601f01601f1916010190565b612cf79190604090612e95906001600160a01b03612e8882612afd565b1684526020810190612e1a565b9190928160208201520191612e4b565b60e0809160018060a01b03815116845263ffffffff602082015116602085015260018060a01b03604082015116604085015263ffffffff606082015116606085015263ffffffff6080820151166080850152612f0960a082015160a0860190612ada565b60c081015160c08501520151910152565b805f52600b6020526020612f86610144612f3660405f20612d4e565b612f3f8161330c565b60018060a01b03604082015116855f52600f855260ff60405f205416955f526010855260ff60405f2054166040519687958694632166db6560e21b86526004860190612ea5565b151561010484015215156101248301525afa90811561241e575f91612fa9575090565b90506020813d602011612fd9575b81612fc460209383612ba6565b8101031261086c5751600781101561086c5790565b3d9150612fb7565b919060408382031261086c578251926020810151906001600160401b03821161086c570181601f8201121561086c5780519061301c82612c8b565b9261302a6040519485612ba6565b8284526020838301011161086c57815f9260208093018386015e8301015290565b9063ffffffff8091169116019063ffffffff821161306557565b634e487b7160e01b5f52601160045260245ffd5b3563ffffffff8116810361086c5790565b6040516020810190684e6f2075706461746560b81b8252600981526130b0602982612ba6565b51902060e01c90565b6040516020810190684e6f2075706461746560b81b8252600981526130df602982612ba6565b51902090565b903590603e198136030182121561086c570190565b903590601e198136030182121561086c57018035906001600160401b03821161086c57602001918160051b3603831361086c57565b916020908281520191905f5b8181106131485750505090565b909192602080600192838060a01b0361316088612afd565b16815201940192910161313b565b9035603e198236030181121561086c570190565b90602083828152019260208260051b82010193835f925b8484106131a95750505050505090565b9091929394956020806131d0600193601f198682030188526131cb8b8861316e565b612e6b565b9801940194019294939190613199565b90602083828152019260208260051b82010193835f925b8484106132075750505050505090565b90919293949560208061322f600193601f198682030188526132298b88612e1a565b90612e4b565b98019401940192949391906131f7565b604090612cf7949281528160208201520191612e4b565b6001600160a01b031680156132b4575f516020613cf25f395f51905f5280546001600160a01b0319811683179091556001600160a01b03167f8be0079c531659141344cd1fd0a4f28419497f9722a3daafe3b4186f6b6457e05f80a3565b631e4fbdf760e01b5f525f60045260245ffd5b359063ffffffff8216820361086c57565b9035601e198236030181121561086c5701602081359101916001600160401b03821161086c578160051b3603831361086c57565b60c001511561331757565b631dc0650160e31b5f5260045ffd5b5f516020613cf25f395f51905f52546001600160a01b0316330361334657565b63118cdaa760e01b5f523360045260245ffd5b9082101561337057612cf79160051b8101906130e5565b634e487b7160e01b5f52603260045260245ffd5b3560ff8116810361086c5790565b6040516333f3d1bf60e11b81525f60048201526020816024815f5f516020613d525f395f51905f525af190811561241e575f916133cd575090565b90506020813d6020116133f4575b816133e860209383612ba6565b8101031261086c575190565b3d91506133db565b604051906333f3d1bf60e11b825260048201526020816024815f5f516020613d525f395f51905f525af190811561241e575f916133cd575090565b61078861344391613c3c565b6040519163e25800ab60e01b8352600483015260248201526020816044815f5f516020613d525f395f51905f525af190811561241e575f916133cd575090565b61078861348f916133fc565b6040519163f4f9966b60e01b8352600483015260248201526020816044815f5f516020613d525f395f51905f525af190811561241e575f916133cd575090565b6107886107386134e192949394613c4e565b9060405192636ce80bfb60e11b84526004840152602483015260448201526020816064815f5f516020613d525f395f51905f525af190811561241e575f916133cd575090565b905f516020613d525f395f51905f523b1561086c57604051635ca4b5b160e11b815260048101929092526001600160a01b031660248201525f81604481835f516020613d525f395f51905f525af1801561241e576135825750565b5f612bff91612ba6565b60025463ffffffff808260201c169216918083106135b2575063ffffffff191617600255565b905063c564bfaf60e01b5f5260045260245260445ffd5b6002549063ffffffff821663ffffffff821681811161360457505067ffffffff000000009060201b169067ffffffff00000000191617600255565b63c564bfaf60e01b5f5260045260245260445ffd5b818110613624575050565b5f8155600101613619565b91906001600160401b038111612b925761364a600154612b3e565b601f811161370f575b505f601f821160011461369257819061368293945f92613687575b50508160011b915f199060031b1c19161790565b600155565b013590505f8061366e565b601f1982169360015f527fb10e2d527612073b26eecdfd717e6a320cf44b4afac2b0732d9fcbe2b7fa0cf6915f5b8681106136f757508360019596106136de575b505050811b01600155565b01355f19600384901b60f8161c191690555f80806136d3565b909260206001819286860135815501940191016136c0565b60015f52613758907fb10e2d527612073b26eecdfd717e6a320cf44b4afac2b0732d9fcbe2b7fa0cf6601f840160051c8101916020851061375e575b601f0160051c0190613619565b5f613653565b909150819061374b565b61379b906001600160a01b0361377d82612e06565b166001600160601b0360a01b60085416176008556020810190612dd4565b6001600160401b038193929311612b92576137b7600954612b3e565b601f8111613853575b505f601f82116001146137f35781906137ee93945f926136875750508160011b915f199060031b1c19161790565b600955565b601f1982169360095f5260205f20915f5b86811061383b5750836001959610613822575b505050811b01600955565b01355f19600384901b60f8161c191690555f8080613817565b90926020600181928686013581550194019101613804565b60095f5261389b907f6e1540171b6c0c960b71a7020d9f60077f6af931a8bbf590da0223dacf75c7af601f840160051c8101916020851061375e57601f0160051c0190613619565b5f6137c0565b91908110156133705760051b0190565b5f5b8281106138bf57505050565b6001906001600160a01b036138d8610b8c8387876138a1565b165f52600a6020528160405f2055016138b3565b60ff1660ff81146130655760010190565b91909160055460ff60075416918461010003610100811161306557831015613ac5575f905b85821061394157505060ff9293506005551660ff196007541617600755565b9092916001600160a01b0361395a610b8c868986613359565b1615613ab657600160ff84161b1791613974848784613359565b60ff82165f5260066020526139b4600160405f20818060a01b0361399785612e06565b82546001600160a01b031916911617815501916020810190612dd4565b906001600160401b038211612b92576139cd8354612b3e565b601f8111613a86575b505f90601f8311600114613a1b578260019593613a139593613a0c935f926136875750508160011b915f199060031b1c19161790565b90556138ec565b930190613922565b601f19831691845f5260205f20925f5b818110613a6e575092600196949192879383613a13989610613a55575b505050811b0190556138ec565b01355f19600384901b60f8161c191690555f8080613a48565b91936020600181928787013581550195019201613a2b565b613ab090845f5260205f20601f850160051c8101916020861061375e57601f0160051c0190613619565b5f6139d6565b63d92e233d60e01b5f5260045ffd5b63b080741160e01b5f5260045ffd5b611c20420180421161306557613aeb602092613c4e565b6040516379ff90f960e11b815263197b05fb60e31b600482015260248101929092526044820152608060648201529182908190613b2c906084830190612c67565b03815f5f516020613d525f395f51905f525af190811561241e575f916133cd575090565b611c20420180421161306557613b67602092613c4e565b6040516379ff90f960e11b8152620d651360eb1b600482015260248101929092526044820152608060648201529182908190613b2c906084830190612c67565b9060028110613c0d575f90815b818310613bc15750505050565b600160ff613bd3610c61868689613359565b161b90818116613bea579060019117920191613bb4565b60ff613bfa610c61868689613359565b631ed4de8360e01b5f521660045260245ffd5b5050565b60ff5f516020613d325f395f51905f525460401c1615613c2d57565b631afcd79f60e31b5f5260045ffd5b8015613c455790565b50612cf7613392565b8015613c575790565b50604051635d7d539760e01b81525f60048201526020816024815f5f516020613d525f395f51905f525af190811561241e575f916133cd575090565b90613cb75750805115613ca857805190602001fd5b63d6bda27560e01b5f5260045ffd5b81511580613ce8575b613cc8575090565b639996b31560e01b5f9081526001600160a01b0391909116600452602490fd5b50803b15613cc056fe9016d09d72d40fdae2fd8ceac6b6234c7706214fd39c1cd1e609a0528c199300360894a13ba1a3210667c828492db98dca3e2076cc3735a920a3ca505d382bbcf0c57e16840df040f15088dc2f81fe391c3923bec73e23a9662efc9c229c6a0000000000000000000000000063d8135af4d393b1db43b649010c8d3ee19fc9fda2646970667358221220b975219d18b16322c0ff496f5e79727d23ca185737305a9db5639083caf4431564736f6c634300081c0033",
  "linkReferences": {},
  "deployedLinkReferences": {}
}