{
  "_format": "hh-sol-artifact-1",
  "contractName": "VanillaExecutionStrategy",
  "sourceName": "contracts/execution-strategies/VanillaExecutionStrategy.sol",
  "abi": [
    {
      "inputs": [
        {
          "internalType": "address",
          "name": "_owner",
          "type": "address"
        },
        {
          "internalType": "uint256",
          "name": "_quorum",
          "type": "uint256"
        }
      ],
      "stateMutability": "nonpayable",
      "type": "constructor"
    },
    {
      "inputs": [],
      "name": "ExecutionFailed",
      "type": "error"
    },
    {
      "inputs": [],
      "name": "InvalidInitialization",
      "type": "error"
    },
    {
      "inputs": [
        {
          "internalType": "enum ProposalStatus",
          "name": "status",
          "type": "uint8"
        }
      ],
      "name": "InvalidProposalStatus",
      "type": "error"
    },
    {
      "inputs": [],
      "name": "InvalidSpace",
      "type": "error"
    },
    {
      "inputs": [],
      "name": "NotInitializing",
      "type": "error"
    },
    {
      "inputs": [
        {
          "internalType": "address",
          "name": "owner",
          "type": "address"
        }
      ],
      "name": "OwnableInvalidOwner",
      "type": "error"
    },
    {
      "inputs": [
        {
          "internalType": "address",
          "name": "account",
          "type": "address"
        }
      ],
      "name": "OwnableUnauthorizedAccount",
      "type": "error"
    },
    {
      "anonymous": false,
      "inputs": [
        {
          "indexed": false,
          "internalType": "uint64",
          "name": "version",
          "type": "uint64"
        }
      ],
      "name": "Initialized",
      "type": "event"
    },
    {
      "anonymous": false,
      "inputs": [
        {
          "indexed": true,
          "internalType": "address",
          "name": "previousOwner",
          "type": "address"
        },
        {
          "indexed": true,
          "internalType": "address",
          "name": "newOwner",
          "type": "address"
        }
      ],
      "name": "OwnershipTransferred",
      "type": "event"
    },
    {
      "anonymous": false,
      "inputs": [
        {
          "indexed": false,
          "internalType": "uint256",
          "name": "newQuorum",
          "type": "uint256"
        }
      ],
      "name": "QuorumUpdated",
      "type": "event"
    },
    {
      "anonymous": false,
      "inputs": [
        {
          "indexed": false,
          "internalType": "address",
          "name": "space",
          "type": "address"
        }
      ],
      "name": "SpaceDisabled",
      "type": "event"
    },
    {
      "anonymous": false,
      "inputs": [
        {
          "indexed": false,
          "internalType": "address",
          "name": "space",
          "type": "address"
        }
      ],
      "name": "SpaceEnabled",
      "type": "event"
    },
    {
      "inputs": [
        {
          "internalType": "address",
          "name": "space",
          "type": "address"
        }
      ],
      "name": "disableSpace",
      "outputs": [],
      "stateMutability": "nonpayable",
      "type": "function"
    },
    {
      "inputs": [
        {
          "internalType": "address",
          "name": "space",
          "type": "address"
        }
      ],
      "name": "enableSpace",
      "outputs": [],
      "stateMutability": "nonpayable",
      "type": "function"
    },
    {
      "inputs": [
        {
          "components": [
            {
              "internalType": "address",
              "name": "author",
              "type": "address"
            },
            {
              "internalType": "uint32",
              "name": "startBlockNumber",
              "type": "uint32"
            },
            {
              "internalType": "contract IExecutionStrategy",
              "name": "executionStrategy",
              "type": "address"
            },
            {
              "internalType": "uint32",
              "name": "minEndBlockNumber",
              "type": "uint32"
            },
            {
              "internalType": "uint32",
              "name": "maxEndBlockNumber",
              "type": "uint32"
            },
            {
              "internalType": "enum FinalizationStatus",
              "name": "finalizationStatus",
              "type": "uint8"
            },
            {
              "internalType": "bytes32",
              "name": "executionPayloadHash",
              "type": "bytes32"
            },
            {
              "internalType": "uint256",
              "name": "activeVotingStrategies",
              "type": "uint256"
            }
          ],
          "internalType": "struct Proposal",
          "name": "proposal",
          "type": "tuple"
        },
        {
          "internalType": "bool",
          "name": "quorumValue",
          "type": "bool"
        },
        {
          "internalType": "bool",
          "name": "supportValue",
          "type": "bool"
        },
        {
          "internalType": "bytes",
          "name": "payload",
          "type": "bytes"
        }
      ],
      "name": "execute",
      "outputs": [],
      "stateMutability": "nonpayable",
      "type": "function"
    },
    {
      "inputs": [
        {
          "components": [
            {
              "internalType": "address",
              "name": "author",
              "type": "address"
            },
            {
              "internalType": "uint32",
              "name": "startBlockNumber",
              "type": "uint32"
            },
            {
              "internalType": "contract IExecutionStrategy",
              "name": "executionStrategy",
              "type": "address"
            },
            {
              "internalType": "uint32",
              "name": "minEndBlockNumber",
              "type": "uint32"
            },
            {
              "internalType": "uint32",
              "name": "maxEndBlockNumber",
              "type": "uint32"
            },
            {
              "internalType": "enum FinalizationStatus",
              "name": "finalizationStatus",
              "type": "uint8"
            },
            {
              "internalType": "bytes32",
              "name": "executionPayloadHash",
              "type": "bytes32"
            },
            {
              "internalType": "uint256",
              "name": "activeVotingStrategies",
              "type": "uint256"
            }
          ],
          "internalType": "struct Proposal",
          "name": "proposal",
          "type": "tuple"
        },
        {
          "internalType": "bool",
          "name": "quorumValue",
          "type": "bool"
        },
        {
          "internalType": "bool",
          "name": "supportValue",
          "type": "bool"
        }
      ],
      "name": "getProposalStatus",
      "outputs": [
        {
          "internalType": "enum ProposalStatus",
          "name": "",
          "type": "uint8"
        }
      ],
      "stateMutability": "view",
      "type": "function"
    },
    {
      "inputs": [],
      "name": "getQuorum",
      "outputs": [
        {
          "internalType": "uint256",
          "name": "",
          "type": "uint256"
        }
      ],
      "stateMutability": "view",
      "type": "function"
    },
    {
      "inputs": [
        {
          "internalType": "euint256",
          "name": "_votesFor",
          "type": "bytes32"
        },
        {
          "internalType": "euint256",
          "name": "_votesAbstain",
          "type": "bytes32"
        }
      ],
      "name": "getQuorumAndSupportValue",
      "outputs": [
        {
          "internalType": "ebool",
          "name": "",
          "type": "bytes32"
        },
        {
          "internalType": "ebool",
          "name": "",
          "type": "bytes32"
        }
      ],
      "stateMutability": "nonpayable",
      "type": "function"
    },
    {
      "inputs": [],
      "name": "getStrategyType",
      "outputs": [
        {
          "internalType": "string",
          "name": "",
          "type": "string"
        }
      ],
      "stateMutability": "pure",
      "type": "function"
    },
    {
      "inputs": [
        {
          "internalType": "address",
          "name": "space",
          "type": "address"
        }
      ],
      "name": "isSpaceEnabled",
      "outputs": [
        {
          "internalType": "uint256",
          "name": "",
          "type": "uint256"
        }
      ],
      "stateMutability": "view",
      "type": "function"
    },
    {
      "inputs": [],
      "name": "owner",
      "outputs": [
        {
          "internalType": "address",
          "name": "",
          "type": "address"
        }
      ],
      "stateMutability": "view",
      "type": "function"
    },
    {
      "inputs": [],
      "name": "quorum",
      "outputs": [
        {
          "internalType": "uint256",
          "name": "",
          "type": "uint256"
        }
      ],
      "stateMutability": "view",
      "type": "function"
    },
    {
      "inputs": [],
      "name": "renounceOwnership",
      "outputs": [],
      "stateMutability": "nonpayable",
      "type": "function"
    },
    {
      "inputs": [
        {
          "internalType": "uint256",
          "name": "_quorum",
          "type": "uint256"
        }
      ],
      "name": "setQuorum",
      "outputs": [],
      "stateMutability": "nonpayable",
      "type": "function"
    },
    {
      "inputs": [
        {
          "internalType": "bytes",
          "name": "initParams",
          "type": "bytes"
        }
      ],
      "name": "setUp",
      "outputs": [],
      "stateMutability": "nonpayable",
      "type": "function"
    },
    {
      "inputs": [
        {
          "internalType": "address",
          "name": "newOwner",
          "type": "address"
        }
      ],
      "name": "transferOwnership",
      "outputs": [],
      "stateMutability": "nonpayable",
      "type": "function"
    }
  ],
  "bytecode": "0x608080604052346101bb57604081610f97803803809161001f8285610213565b8339810103126101bb5780516001600160a01b03811691908290036101bb576020015160405191602083019081526040830191825260408352610063606084610213565b5f516020610f775f395f51905f5254604081901c60ff1615936001600160401b0382168015908161020b575b6001149081610201575b1590816101f8575b506101e9576001600160401b031982166001175f516020610f775f395f51905f5255604091856101bf575b508051810103126101bb57516001600160a01b03811691908290036101bb5751906100f56102bb565b6100fd6102bb565b6101063361024a565b5f516020610f575f395f51905f5254336001600160a01b03909116036101a85761012f9061024a565b6101376102bb565b60015561014e575b604051610c7090816102e78239f35b68ff0000000000000000195f516020610f775f395f51905f5254165f516020610f775f395f51905f52557fc7f505b2f371ae2175ee4913f4499e1f2633a7b5936321eed1cdaeb6115181d2602060405160018152a161013f565b63118cdaa760e01b5f523360045260245ffd5b5f80fd5b6001600160481b03191668010000000000000001175f516020610f775f395f51905f52555f6100cc565b63f92ee8a960e01b5f5260045ffd5b9050155f6100a1565b303b159150610099565b86915061008f565b601f909101601f19168101906001600160401b0382119082101761023657604052565b634e487b7160e01b5f52604160045260245ffd5b6001600160a01b031680156102a8575f516020610f575f395f51905f5280546001600160a01b0319811683179091556001600160a01b03167f8be0079c531659141344cd1fd0a4f28419497f9722a3daafe3b4186f6b6457e05f80a3565b631e4fbdf760e01b5f525f60045260245ffd5b60ff5f516020610f775f395f51905f525460401c16156102d757565b631afcd79f60e31b5f5260045ffdfe60806040526004361015610011575f80fd5b5f3560e01c80630eb9b15a1461081f5780631703a018146102445780635eed51a3146105db5780636efd971c146105a4578063715018a61461053d578063859b6d94146104f65780638da5cb5b146104c25780639e33d8111461044c578063a4f9edbf146102ad578063c1ba4e5914610261578063c26c12eb14610244578063d92d4ea0146101b0578063e9af1283146100e25763f2fde38b146100b3575f80fd5b346100de5760203660031901126100de576100dc6100cf61088b565b6100d7610b21565b610ab0565b005b5f80fd5b346100de576101603660031901126100de576100fd366108d7565b610105610993565b61010d6109a3565b90610144359267ffffffffffffffff84116100de576101336101399436906004016109b3565b50610a09565b60078110158061018f576003821415806101a3575b610179576002545f19811461016557600101600255005b634e487b7160e01b5f52601160045260245ffd5b63735671c760e11b5f5261018f5760045260245ffd5b634e487b7160e01b5f52602160045260245ffd5b50505f600282141561014e565b346100de5760203660031901126100de576101c961088b565b6101d1610b21565b6001600160a01b031680158015610230575b610221576020817fc3dc08a46232e8d0a95510120799f1e68e0aa28c88730b8b0127d5ff4565b4b0925f525f8252600160405f2055604051908152a1005b63c3b48cf160e01b5f5260045ffd5b50805f525f60205260405f205415156101e3565b346100de575f3660031901126100de576020600154604051908152f35b346100de5760203660031901126100de577ff18f88786aae85a652aadb99a82462616489a33370c9bcc7b245906812ef7cd160206004356102a0610b21565b80600155604051908152a1005b346100de5760203660031901126100de5760043567ffffffffffffffff81116100de576102de9036906004016109b3565b5f516020610c1b5f395f51905f52549060ff8260401c16159167ffffffffffffffff811680159081610444575b600114908161043a575b159081610431575b506104225767ffffffffffffffff1981166001175f516020610c1b5f395f51905f5255826103f6575b506040818051810103126100de5760208101516001600160a01b03811691908290036100de57604061038e9101519161037d610b54565b610385610b54565b6100cf33610ab0565b610396610b54565b60015561039f57005b68ff0000000000000000195f516020610c1b5f395f51905f5254165f516020610c1b5f395f51905f52557fc7f505b2f371ae2175ee4913f4499e1f2633a7b5936321eed1cdaeb6115181d2602060405160018152a1005b68ffffffffffffffffff191668010000000000000001175f516020610c1b5f395f51905f525582610346565b63f92ee8a960e01b5f5260045ffd5b9050158461031d565b303b159150610315565b84915061030b565b346100de5760203660031901126100de5761046561088b565b61046d610b21565b6001600160a01b03165f8181526020819052604090205415610221576020817f665604bfe8ee87044ba1f1fd2fb47fe92983c9e187acbb442debf97d3e581921925f525f82525f6040812055604051908152a1005b346100de575f3660031901126100de575f516020610bfb5f395f51905f52546040516001600160a01b039091168152602090f35b346100de576101403660031901126100de5761052a610514366108d7565b61051c610993565b6105246109a3565b91610a09565b604051600782101561018f576020918152f35b346100de575f3660031901126100de57610555610b21565b5f516020610bfb5f395f51905f5280546001600160a01b031981169091555f906001600160a01b03167f8be0079c531659141344cd1fd0a4f28419497f9722a3daafe3b4186f6b6457e08280a3005b346100de5760203660031901126100de576001600160a01b036105c561088b565b165f525f602052602060405f2054604051908152f35b346100de5760403660031901126100de576024356004356105fb81610b7f565b9061060583610b7f565b6040519263f4f9966b60e01b8452600484015260248301526020826044815f7363d8135af4d393b1db43b649010c8d3ee19fc9fd5af1918215610774575f926107eb575b5060015491604051926333f3d1bf60e11b845260048401526020836024815f7363d8135af4d393b1db43b649010c8d3ee19fc9fd5af1928315610774575f936107b5575b5061069790610b7f565b6040519263725e1da560e01b8452600484015260248301526020826044815f7363d8135af4d393b1db43b649010c8d3ee19fc9fd5af1918215610774575f9261077f575b506106e86106ee91610b7f565b92610b7f565b604051926305f6c42760e01b8452600484015260248301526020826044815f7363d8135af4d393b1db43b649010c8d3ee19fc9fd5af18015610774575f90610741575b6040809350519182526020820152f35b506020823d60201161076c575b8161075b602093836108a1565b810103126100de5760409151610731565b3d915061074e565b6040513d5f823e3d90fd5b9091506020813d6020116107ad575b8161079b602093836108a1565b810103126100de5751906106e86106db565b3d915061078e565b9092506020813d6020116107e3575b816107d1602093836108a1565b810103126100de57519161069761068d565b3d91506107c4565b9091506020813d602011610817575b81610807602093836108a1565b810103126100de57519083610649565b3d91506107fa565b346100de575f3660031901126100de57604080519061083e81836108a1565b6013825260208201917253696d706c6551756f72756d56616e696c6c6160681b83528151928391602083525180918160208501528484015e5f828201840152601f01601f19168101030190f35b600435906001600160a01b03821682036100de57565b90601f8019910116810190811067ffffffffffffffff8211176108c357604052565b634e487b7160e01b5f52604160045260245ffd5b6101009060031901126100de5760405190610100820182811067ffffffffffffffff8211176108c357604052816004356001600160a01b03811681036100de57815260243563ffffffff811681036100de5760208201526044356001600160a01b03811681036100de57604082015260643563ffffffff811681036100de57606082015260843563ffffffff811681036100de57608082015260a43560038110156100de5760a082015260c43560c082015260e060e435910152565b610104359081151582036100de57565b610124359081151582036100de57565b81601f820112156100de5780359067ffffffffffffffff82116108c357604051926109e8601f8401601f1916602001856108a1565b828452602083830101116100de57815f926020809301838601378301015290565b909182610aa8575b5060a081018051600381101561018f57600203610a3057505050600690565b51600381101561018f57600103610a48575050600490565b602081015163ffffffff16431015610a605750505f90565b606081015163ffffffff16431015610a79575050600190565b6080015163ffffffff16431015610a995715610a9457600290565b600190565b15610aa357600390565b600590565b91505f610a11565b6001600160a01b03168015610b0e575f516020610bfb5f395f51905f5280546001600160a01b0319811683179091556001600160a01b03167f8be0079c531659141344cd1fd0a4f28419497f9722a3daafe3b4186f6b6457e05f80a3565b631e4fbdf760e01b5f525f60045260245ffd5b5f516020610bfb5f395f51905f52546001600160a01b03163303610b4157565b63118cdaa760e01b5f523360045260245ffd5b60ff5f516020610c1b5f395f51905f525460401c1615610b7057565b631afcd79f60e31b5f5260045ffd5b8015610b885790565b506040516333f3d1bf60e11b81525f60048201526020816024815f7363d8135af4d393b1db43b649010c8d3ee19fc9fd5af1908115610774575f91610bcb575090565b90506020813d602011610bf2575b81610be6602093836108a1565b810103126100de575190565b3d9150610bd956fe9016d09d72d40fdae2fd8ceac6b6234c7706214fd39c1cd1e609a0528c199300f0c57e16840df040f15088dc2f81fe391c3923bec73e23a9662efc9c229c6a00a2646970667358221220c7f3b2b19b5ea4b80b081b4a9508f5980179eb13d8f2efd7d6ee04471bcb847564736f6c634300081c00339016d09d72d40fdae2fd8ceac6b6234c7706214fd39c1cd1e609a0528c199300f0c57e16840df040f15088dc2f81fe391c3923bec73e23a9662efc9c229c6a00",
  "linkReferences": {},
  "deployedLinkReferences": {}
}