{
  "_format": "hh-sol-artifact-1",
  "contractName": "VanillaAuthenticator",
  "sourceName": "contracts/authenticators/VanillaAuthenticator.sol",
  "abi": [
    {
      "inputs": [
        {
          "internalType": "address",
          "name": "target",
          "type": "address"
        },
        {
          "internalType": "bytes4",
          "name": "functionSelector",
          "type": "bytes4"
        },
        {
          "internalType": "bytes",
          "name": "data",
          "type": "bytes"
        }
      ],
      "name": "authenticate",
      "outputs": [],
      "stateMutability": "nonpayable",
      "type": "function"
    }
  ],
  "bytecode": "0x608080604052346015576101d5908161001a8239f35b5f80fdfe60806040526004361015610011575f80fd5b5f3560e01c63f2a40be414610024575f80fd5b346100c25760603660031901126100c2576004356001600160a01b03811681036100c257602435906001600160e01b0319821682036100c2576044359167ffffffffffffffff83116100c257366023840112156100c25782600401359161008a83610101565b9261009860405194856100da565b80845236602482870101116100c2576020815f9260246100c09801838801378501015261011d565b005b5f80fd5b634e487b7160e01b5f52604160045260245ffd5b90601f8019910116810190811067ffffffffffffffff8211176100fc57604052565b6100c6565b67ffffffffffffffff81116100fc57601f01601f191660200190565b5f929183602061015f602483966040519384918183019763ffffffff60e01b1688528051918291018484015e810185838201520301601f1981018352826100da565b51925af13d1561019a573d61017381610101565b9061018160405192836100da565b81525f60203d92013e5b1561019257565b3d805f803e5ffd5b61018b56fea26469706673582212201e3a92142ca5fef42707a3236631e27d8d0a5d86dc7a2920ccb98946d89dd71f64736f6c634300081c0033",
  "linkReferences": {},
  "deployedLinkReferences": {}
}