{"abi":[{"type":"function","name":"CLOCK_MODE","inputs":[],"outputs":[{"name":"","type":"string","internalType":"string"}],"stateMutability":"view"},{"type":"function","name":"DOMAIN_SEPARATOR","inputs":[],"outputs":[{"name":"","type":"bytes32","internalType":"bytes32"}],"stateMutability":"view"},{"type":"function","name":"allowance","inputs":[{"name":"owner","type":"address","internalType":"address"},{"name":"spender","type":"address","internalType":"address"}],"outputs":[{"name":"","type":"uint256","internalType":"uint256"}],"stateMutability":"view"},{"type":"function","name":"approve","inputs":[{"name":"spender","type":"address","internalType":"address"},{"name":"value","type":"uint256","internalType":"uint256"}],"outputs":[{"name":"","type":"bool","internalType":"bool"}],"stateMutability":"nonpayable"},{"type":"function","name":"balanceOf","inputs":[{"name":"account","type":"address","internalType":"address"}],"outputs":[{"name":"","type":"uint256","internalType":"uint256"}],"stateMutability":"view"},{"type":"function","name":"checkpoints","inputs":[{"name":"account","type":"address","internalType":"address"},{"name":"pos","type":"uint32","internalType":"uint32"}],"outputs":[{"name":"","type":"tuple","internalType":"struct Checkpoints.Checkpoint208","components":[{"name":"_key","type":"uint48","internalType":"uint48"},{"name":"_value","type":"uint208","internalType":"uint208"}]}],"stateMutability":"view"},{"type":"function","name":"clock","inputs":[],"outputs":[{"name":"","type":"uint48","internalType":"uint48"}],"stateMutability":"view"},{"type":"function","name":"decimals","inputs":[],"outputs":[{"name":"","type":"uint8","internalType":"uint8"}],"stateMutability":"view"},{"type":"function","name":"delegate","inputs":[{"name":"delegatee","type":"address","internalType":"address"}],"outputs":[],"stateMutability":"nonpayable"},{"type":"function","name":"delegateBySig","inputs":[{"name":"delegatee","type":"address","internalType":"address"},{"name":"nonce","type":"uint256","internalType":"uint256"},{"name":"expiry","type":"uint256","internalType":"uint256"},{"name":"v","type":"uint8","internalType":"uint8"},{"name":"r","type":"bytes32","internalType":"bytes32"},{"name":"s","type":"bytes32","internalType":"bytes32"}],"outputs":[],"stateMutability":"nonpayable"},{"type":"function","name":"delegates","inputs":[{"name":"account","type":"address","internalType":"address"}],"outputs":[{"name":"","type":"address","internalType":"address"}],"stateMutability":"view"},{"type":"function","name":"eip712Domain","inputs":[],"outputs":[{"name":"fields","type":"bytes1","internalType":"bytes1"},{"name":"name","type":"string","internalType":"string"},{"name":"version","type":"string","internalType":"string"},{"name":"chainId","type":"uint256","internalType":"uint256"},{"name":"verifyingContract","type":"address","internalType":"address"},{"name":"salt","type":"bytes32","internalType":"bytes32"},{"name":"extensions","type":"uint256[]","internalType":"uint256[]"}],"stateMutability":"view"},{"type":"function","name":"getPastTotalSupply","inputs":[{"name":"timepoint","type":"uint256","internalType":"uint256"}],"outputs":[{"name":"","type":"uint256","internalType":"uint256"}],"stateMutability":"view"},{"type":"function","name":"getPastVotes","inputs":[{"name":"account","type":"address","internalType":"address"},{"name":"timepoint","type":"uint256","internalType":"uint256"}],"outputs":[{"name":"","type":"uint256","internalType":"uint256"}],"stateMutability":"view"},{"type":"function","name":"getVotes","inputs":[{"name":"account","type":"address","internalType":"address"}],"outputs":[{"name":"","type":"uint256","internalType":"uint256"}],"stateMutability":"view"},{"type":"function","name":"initialize","inputs":[{"name":"recipient","type":"address","internalType":"address"},{"name":"name","type":"string","internalType":"string"},{"name":"symbol","type":"string","internalType":"string"},{"name":"totalSupply","type":"uint256","internalType":"uint256"}],"outputs":[],"stateMutability":"nonpayable"},{"type":"function","name":"name","inputs":[],"outputs":[{"name":"","type":"string","internalType":"string"}],"stateMutability":"view"},{"type":"function","name":"nonces","inputs":[{"name":"owner","type":"address","internalType":"address"}],"outputs":[{"name":"","type":"uint256","internalType":"uint256"}],"stateMutability":"view"},{"type":"function","name":"numCheckpoints","inputs":[{"name":"account","type":"address","internalType":"address"}],"outputs":[{"name":"","type":"uint32","internalType":"uint32"}],"stateMutability":"view"},{"type":"function","name":"permit","inputs":[{"name":"owner","type":"address","internalType":"address"},{"name":"spender","type":"address","internalType":"address"},{"name":"value","type":"uint256","internalType":"uint256"},{"name":"deadline","type":"uint256","internalType":"uint256"},{"name":"v","type":"uint8","internalType":"uint8"},{"name":"r","type":"bytes32","internalType":"bytes32"},{"name":"s","type":"bytes32","internalType":"bytes32"}],"outputs":[],"stateMutability":"nonpayable"},{"type":"function","name":"symbol","inputs":[],"outputs":[{"name":"","type":"string","internalType":"string"}],"stateMutability":"view"},{"type":"function","name":"totalSupply","inputs":[],"outputs":[{"name":"","type":"uint256","internalType":"uint256"}],"stateMutability":"view"},{"type":"function","name":"transfer","inputs":[{"name":"to","type":"address","internalType":"address"},{"name":"value","type":"uint256","internalType":"uint256"}],"outputs":[{"name":"","type":"bool","internalType":"bool"}],"stateMutability":"nonpayable"},{"type":"function","name":"transferFrom","inputs":[{"name":"from","type":"address","internalType":"address"},{"name":"to","type":"address","internalType":"address"},{"name":"value","type":"uint256","internalType":"uint256"}],"outputs":[{"name":"","type":"bool","internalType":"bool"}],"stateMutability":"nonpayable"},{"type":"event","name":"Approval","inputs":[{"name":"owner","type":"address","indexed":true,"internalType":"address"},{"name":"spender","type":"address","indexed":true,"internalType":"address"},{"name":"value","type":"uint256","indexed":false,"internalType":"uint256"}],"anonymous":false},{"type":"event","name":"DelegateChanged","inputs":[{"name":"delegator","type":"address","indexed":true,"internalType":"address"},{"name":"fromDelegate","type":"address","indexed":true,"internalType":"address"},{"name":"toDelegate","type":"address","indexed":true,"internalType":"address"}],"anonymous":false},{"type":"event","name":"DelegateVotesChanged","inputs":[{"name":"delegate","type":"address","indexed":true,"internalType":"address"},{"name":"previousVotes","type":"uint256","indexed":false,"internalType":"uint256"},{"name":"newVotes","type":"uint256","indexed":false,"internalType":"uint256"}],"anonymous":false},{"type":"event","name":"EIP712DomainChanged","inputs":[],"anonymous":false},{"type":"event","name":"Initialized","inputs":[{"name":"version","type":"uint64","indexed":false,"internalType":"uint64"}],"anonymous":false},{"type":"event","name":"Transfer","inputs":[{"name":"from","type":"address","indexed":true,"internalType":"address"},{"name":"to","type":"address","indexed":true,"internalType":"address"},{"name":"value","type":"uint256","indexed":false,"internalType":"uint256"}],"anonymous":false},{"type":"error","name":"CheckpointUnorderedInsertion","inputs":[]},{"type":"error","name":"ECDSAInvalidSignature","inputs":[]},{"type":"error","name":"ECDSAInvalidSignatureLength","inputs":[{"name":"length","type":"uint256","internalType":"uint256"}]},{"type":"error","name":"ECDSAInvalidSignatureS","inputs":[{"name":"s","type":"bytes32","internalType":"bytes32"}]},{"type":"error","name":"ERC20ExceededSafeSupply","inputs":[{"name":"increasedSupply","type":"uint256","internalType":"uint256"},{"name":"cap","type":"uint256","internalType":"uint256"}]},{"type":"error","name":"ERC20InsufficientAllowance","inputs":[{"name":"spender","type":"address","internalType":"address"},{"name":"allowance","type":"uint256","internalType":"uint256"},{"name":"needed","type":"uint256","internalType":"uint256"}]},{"type":"error","name":"ERC20InsufficientBalance","inputs":[{"name":"sender","type":"address","internalType":"address"},{"name":"balance","type":"uint256","internalType":"uint256"},{"name":"needed","type":"uint256","internalType":"uint256"}]},{"type":"error","name":"ERC20InvalidApprover","inputs":[{"name":"approver","type":"address","internalType":"address"}]},{"type":"error","name":"ERC20InvalidReceiver","inputs":[{"name":"receiver","type":"address","internalType":"address"}]},{"type":"error","name":"ERC20InvalidSender","inputs":[{"name":"sender","type":"address","internalType":"address"}]},{"type":"error","name":"ERC20InvalidSpender","inputs":[{"name":"spender","type":"address","internalType":"address"}]},{"type":"error","name":"ERC2612ExpiredSignature","inputs":[{"name":"deadline","type":"uint256","internalType":"uint256"}]},{"type":"error","name":"ERC2612InvalidSigner","inputs":[{"name":"signer","type":"address","internalType":"address"},{"name":"owner","type":"address","internalType":"address"}]},{"type":"error","name":"ERC5805FutureLookup","inputs":[{"name":"timepoint","type":"uint256","internalType":"uint256"},{"name":"clock","type":"uint48","internalType":"uint48"}]},{"type":"error","name":"ERC6372InconsistentClock","inputs":[]},{"type":"error","name":"InvalidAccountNonce","inputs":[{"name":"account","type":"address","internalType":"address"},{"name":"currentNonce","type":"uint256","internalType":"uint256"}]},{"type":"error","name":"InvalidInitialization","inputs":[]},{"type":"error","name":"NotInitializing","inputs":[]},{"type":"error","name":"SafeCastOverflowedUintDowncast","inputs":[{"name":"bits","type":"uint8","internalType":"uint8"},{"name":"value","type":"uint256","internalType":"uint256"}]},{"type":"error","name":"VotesExpiredSignature","inputs":[{"name":"expiry","type":"uint256","internalType":"uint256"}]}],"bytecode":{"object":"0x608060405234801561001057600080fd5b50612495806100206000396000f3fe608060405234801561001057600080fd5b50600436106101585760003560e01c806370a08231116100c35780639ab24eb01161007c5780639ab24eb01461030a578063a9059cbb1461031d578063c3cda52014610330578063d505accf14610343578063dd62ed3e14610356578063f1127ed81461036957600080fd5b806370a082311461028f5780637ecebe00146102a257806384b0196e146102b55780638e539e8c146102d057806391ddadf4146102e357806395d89b411461030257600080fd5b80633a46b1a8116101155780633a46b1a8146101f95780634bf5d7e91461020c5780634d12d4b614610214578063587cde1e146102295780635c19a95c146102545780636fcfff451461026757600080fd5b806306fdde031461015d578063095ea7b31461017b57806318160ddd1461019e57806323b872dd146101cf578063313ce567146101e25780633644e515146101f1575b600080fd5b6101656103a8565b6040516101729190611e07565b60405180910390f35b61018e610189366004611e36565b610451565b6040519015158152602001610172565b7f52c63247e1f47db19d5ce0460030c497f067ca4cebf71ba98eeadabe20bace02545b604051908152602001610172565b61018e6101dd366004611e60565b61046b565b60405160128152602001610172565b6101c161048f565b6101c1610207366004611e36565b61049e565b610165610536565b610227610222366004611f3f565b6105ae565b005b61023c610237366004611fbb565b6106d5565b6040516001600160a01b039091168152602001610172565b610227610262366004611fbb565b610700565b61027a610275366004611fbb565b61070f565b60405163ffffffff9091168152602001610172565b6101c161029d366004611fbb565b61071a565b6101c16102b0366004611fbb565b61074d565b6102bd610758565b6040516101729796959493929190611fd6565b6101c16102de36600461206f565b610804565b6102eb610880565b60405165ffffffffffff9091168152602001610172565b61016561088a565b6101c1610318366004611fbb565b6108c9565b61018e61032b366004611e36565b610929565b61022761033e366004612099565b610937565b6102276103513660046120f1565b6109f4565b6101c161036436600461215b565b610b10565b61037c61037736600461218e565b610b5a565b60408051825165ffffffffffff1681526020928301516001600160d01b03169281019290925201610172565b606060006000805160206124208339815191525b90508060030180546103cd906121ce565b80601f01602080910402602001604051908101604052809291908181526020018280546103f9906121ce565b80156104465780601f1061041b57610100808354040283529160200191610446565b820191906000526020600020905b81548152906001019060200180831161042957829003601f168201915b505050505091505090565b60003361045f818585610b7f565b60019150505b92915050565b600033610479858285610b91565b610484858585610bf7565b506001949350505050565b6000610499610c56565b905090565b6000600080516020612400833981519152816104b8610880565b90508065ffffffffffff1684106104f857604051637669fc0f60e11b81526004810185905265ffffffffffff821660248201526044015b60405180910390fd5b61052461050485610c60565b6001600160a01b0387166000908152600185016020526040902090610c97565b6001600160d01b031695945050505050565b6060610540610d4d565b65ffffffffffff16610550610880565b65ffffffffffff1614610576576040516301bfc1c560e61b815260040160405180910390fd5b5060408051808201909152601d81527f6d6f64653d626c6f636b6e756d6265722666726f6d3d64656661756c74000000602082015290565b7ff0c57e16840df040f15088dc2f81fe391c3923bec73e23a9662efc9c229c6a008054600160401b810460ff16159067ffffffffffffffff166000811580156105f45750825b905060008267ffffffffffffffff1660011480156106115750303b155b90508115801561061f575080155b1561063d5760405163f92ee8a960e01b815260040160405180910390fd5b845467ffffffffffffffff19166001178555831561066757845460ff60401b1916600160401b1785555b6106718888610d58565b61067a88610d6a565b6106848987610d98565b83156106ca57845460ff60401b19168555604051600181527fc7f505b2f371ae2175ee4913f4499e1f2633a7b5936321eed1cdaeb6115181d29060200160405180910390a15b505050505050505050565b6001600160a01b03908116600090815260008051602061240083398151915260205260409020541690565b3361070b8183610dce565b5050565b600061046582610e58565b6000806000805160206124208339815191525b6001600160a01b0390931660009081526020939093525050604090205490565b600061046582610ea9565b60006060808280808381600080516020612440833981519152805490915015801561078557506001810154155b6107c95760405162461bcd60e51b81526020600482015260156024820152741152540dcc4c8e88155b9a5b9a5d1a585b1a5e9959605a1b60448201526064016104ef565b6107d1610eb4565b6107d9610ef3565b60408051600080825260208201909252600f60f81b9c939b5091995046985030975095509350915050565b60006000805160206124008339815191528161081e610880565b90508065ffffffffffff16841061085957604051637669fc0f60e11b81526004810185905265ffffffffffff821660248201526044016104ef565b61086f61086585610c60565b6002840190610c97565b6001600160d01b0316949350505050565b6000610499610d4d565b7f52c63247e1f47db19d5ce0460030c497f067ca4cebf71ba98eeadabe20bace048054606091600080516020612420833981519152916103cd906121ce565b6001600160a01b03811660009081527fe8b26c30fad74198956032a3533d903385d56dd795af560196f9c78d4af40d01602052604081206000805160206124008339815191529061091990610f0b565b6001600160d01b03169392505050565b60003361045f818585610bf7565b8342111561095b57604051632341d78760e11b8152600481018590526024016104ef565b604080517fe48329057bfd03d55e49b547132e39cffd9c1820ad7b9d4c5307691425d15adf60208201526001600160a01b0388169181019190915260608101869052608081018590526000906109d5906109cd9060a00160405160208183030381529060405280519060200120610f44565b858585610f71565b90506109e18187610f9f565b6109eb8188610dce565b50505050505050565b83421115610a185760405163313c898160e11b8152600481018590526024016104ef565b60007f6e71edae12b1b97f4d1f60370fef10105fa2faae0126114a169c64845d6126c9888888610a478c610fde565b6040805160208101969096526001600160a01b0394851690860152929091166060840152608083015260a082015260c0810186905260e0016040516020818303038152906040528051906020012090506000610aa282610f44565b90506000610ab282878787610f71565b9050896001600160a01b0316816001600160a01b031614610af9576040516325c0072360e11b81526001600160a01b0380831660048301528b1660248201526044016104ef565b610b048a8a8a610b7f565b50505050505050505050565b6001600160a01b0391821660009081527f52c63247e1f47db19d5ce0460030c497f067ca4cebf71ba98eeadabe20bace016020908152604080832093909416825291909152205490565b6040805180820190915260008082526020820152610b788383611020565b9392505050565b610b8c838383600161108b565b505050565b6000610b9d8484610b10565b90506000198114610bf15781811015610be257604051637dc7a0d960e11b81526001600160a01b038416600482015260248101829052604481018390526064016104ef565b610bf18484848403600061108b565b50505050565b6001600160a01b038316610c2157604051634b637e8f60e11b8152600060048201526024016104ef565b6001600160a01b038216610c4b5760405163ec442f0560e01b8152600060048201526024016104ef565b610b8c838383611173565b600061049961117e565b600065ffffffffffff821115610c93576040516306dfcc6560e41b815260306004820152602481018390526044016104ef565b5090565b815460009081816005811115610cf6576000610cb2846111f2565b610cbc908561221e565b60008881526020902090915081015465ffffffffffff9081169087161015610ce657809150610cf4565b610cf1816001612231565b92505b505b6000610d04878785856112da565b90508015610d3f57610d2987610d1b60018461221e565b600091825260209091200190565b54600160301b90046001600160d01b0316610d42565b60005b979650505050505050565b600061049943610c60565b610d6061133c565b61070b8282611387565b610d7261133c565b610d9581604051806040016040528060018152602001603160f81b8152506113d8565b50565b6001600160a01b038216610dc25760405163ec442f0560e01b8152600060048201526024016104ef565b61070b60008383611173565b6000805160206124008339815191526000610de8846106d5565b6001600160a01b0385811660008181526020869052604080822080546001600160a01b031916898616908117909155905194955093928516927f3134e8a2e6d97e929a7e54011ea5485d7d196dd5f0ba4d4ef95803e8e3fc257f9190a4610bf18184610e5387611439565b611444565b6001600160a01b03811660009081527fe8b26c30fad74198956032a3533d903385d56dd795af560196f9c78d4af40d01602052604081205460008051602061240083398151915290610b78906115be565b6000610465826115ef565b7fa16a46d94261c7517cc8ff89f61c0ce93598e3c849801011dee649a6a557d1028054606091600080516020612440833981519152916103cd906121ce565b606060006000805160206124408339815191526103bc565b80546000908015610f3b57610f2583610d1b60018461221e565b54600160301b90046001600160d01b0316610b78565b60009392505050565b6000610465610f51610c56565b8360405161190160f01b8152600281019290925260228201526042902090565b600080600080610f8388888888611618565b925092509250610f9382826116e7565b50909695505050505050565b6000610faa83610fde565b9050808214610b8c576040516301d4b62360e61b81526001600160a01b0384166004820152602481018290526044016104ef565b6001600160a01b031660009081527f5ab42ced628888259c08ac98db1eb0cf702fc1501344311d8b100cd1bfe4bb006020526040902080546001810190915590565b604080518082018252600080825260208083018290526001600160a01b03861682527fe8b26c30fad74198956032a3533d903385d56dd795af560196f9c78d4af40d019052919091206000805160206124008339815191529061108390846117a0565b949350505050565b6000805160206124208339815191526001600160a01b0385166110c45760405163e602df0560e01b8152600060048201526024016104ef565b6001600160a01b0384166110ee57604051634a1406b160e11b8152600060048201526024016104ef565b6001600160a01b0380861660009081526001830160209081526040808320938816835292905220839055811561116c57836001600160a01b0316856001600160a01b03167f8c5be1e5ebec7d5bd14f71427d1e84f3dd0314c0f7b2291e5b200ac8c7c3b9258560405161116391815260200190565b60405180910390a35b5050505050565b610b8c838383611810565b60007f8b73c3c69bb8fe3d512ecc4cf759cc79239f7b179b0ffacaa9a75d522b39400f6111a9611896565b6111b1611900565b60408051602081019490945283019190915260608201524660808201523060a082015260c00160405160208183030381529060405280519060200120905090565b60008160000361120457506000919050565b6000600161121184611944565b901c6001901b9050600181848161122a5761122a612244565b048201901c9050600181848161124257611242612244565b048201901c9050600181848161125a5761125a612244565b048201901c9050600181848161127257611272612244565b048201901c9050600181848161128a5761128a612244565b048201901c905060018184816112a2576112a2612244565b048201901c905060018184816112ba576112ba612244565b048201901c9050610b78818285816112d4576112d4612244565b046119d8565b60005b818310156113345760006112f184846119ee565b60008781526020902090915065ffffffffffff86169082015465ffffffffffff1611156113205780925061132e565b61132b816001612231565b93505b506112dd565b509392505050565b7ff0c57e16840df040f15088dc2f81fe391c3923bec73e23a9662efc9c229c6a0054600160401b900460ff1661138557604051631afcd79f60e31b815260040160405180910390fd5b565b61138f61133c565b6000805160206124208339815191527f52c63247e1f47db19d5ce0460030c497f067ca4cebf71ba98eeadabe20bace036113c984826122aa565b5060048101610bf183826122aa565b6113e061133c565b6000805160206124408339815191527fa16a46d94261c7517cc8ff89f61c0ce93598e3c849801011dee649a6a557d10261141a84826122aa565b506003810161142983826122aa565b5060008082556001909101555050565b60006104658261071a565b6000805160206124008339815191526001600160a01b038481169084161480159061146f5750600082115b15610bf1576001600160a01b03841615611519576001600160a01b0384166000908152600182016020526040812081906114b490611a096114af87611a15565b611a49565b6001600160d01b031691506001600160d01b03169150856001600160a01b03167fdec2bacdd2f05b59de34da9b523dff8be42e5e38e818c82fdb0bae774387a724838360405161150e929190918252602082015260400190565b60405180910390a250505b6001600160a01b03831615610bf1576001600160a01b03831660009081526001820160205260408120819061155490611a826114af87611a15565b6001600160d01b031691506001600160d01b03169150846001600160a01b03167fdec2bacdd2f05b59de34da9b523dff8be42e5e38e818c82fdb0bae774387a72483836040516115ae929190918252602082015260400190565b60405180910390a2505050505050565b600063ffffffff821115610c93576040516306dfcc6560e41b815260206004820152602481018390526044016104ef565b6000807f5ab42ced628888259c08ac98db1eb0cf702fc1501344311d8b100cd1bfe4bb0061072d565b600080807f7fffffffffffffffffffffffffffffff5d576e7357a4501ddfe92f46681b20a084111561165357506000915060039050826116dd565b604080516000808252602082018084528a905260ff891692820192909252606081018790526080810186905260019060a0016020604051602081039080840390855afa1580156116a7573d6000803e3d6000fd5b5050604051601f1901519150506001600160a01b0381166116d3575060009250600191508290506116dd565b9250600091508190505b9450945094915050565b60008260038111156116fb576116fb61236a565b03611704575050565b60018260038111156117185761171861236a565b036117365760405163f645eedf60e01b815260040160405180910390fd5b600282600381111561174a5761174a61236a565b0361176b5760405163fce698f760e01b8152600481018290526024016104ef565b600382600381111561177f5761177f61236a565b0361070b576040516335e2f38360e21b8152600481018290526024016104ef565b6040805180820190915260008082526020820152826000018263ffffffff16815481106117cf576117cf612380565b60009182526020918290206040805180820190915291015465ffffffffffff81168252600160301b90046001600160d01b0316918101919091529392505050565b61181b838383611a8e565b6001600160a01b03831661188b5760006118537f52c63247e1f47db19d5ce0460030c497f067ca4cebf71ba98eeadabe20bace025490565b90506001600160d01b038082111561188857604051630e58ae9360e11b815260048101839052602481018290526044016104ef565b50505b610b8c838383611bcc565b6000600080516020612440833981519152816118b0610eb4565b8051909150156118c857805160209091012092915050565b815480156118d7579392505050565b7fc5d2460186f7233c927e7db2dcc703c0e500b653ca82273b7bfad8045d85a470935050505090565b60006000805160206124408339815191528161191a610ef3565b80519091501561193257805160209091012092915050565b600182015480156118d7579392505050565b600080608083901c1561195957608092831c92015b604083901c1561196b57604092831c92015b602083901c1561197d57602092831c92015b601083901c1561198f57601092831c92015b600883901c156119a157600892831c92015b600483901c156119b357600492831c92015b600283901c156119c557600292831c92015b600183901c156104655760010192915050565b60008183106119e75781610b78565b5090919050565b60006119fd6002848418612396565b610b7890848416612231565b6000610b7882846123b8565b60006001600160d01b03821115610c93576040516306dfcc6560e41b815260d06004820152602481018390526044016104ef565b600080611a75611a57610880565b611a6d611a6388610f0b565b868863ffffffff16565b879190611c3e565b915091505b935093915050565b6000610b7882846123df565b6000805160206124208339815191526001600160a01b038416611aca5781816002016000828254611abf9190612231565b90915550611b3c9050565b6001600160a01b03841660009081526020829052604090205482811015611b1d5760405163391434e360e21b81526001600160a01b038616600482015260248101829052604481018490526064016104ef565b6001600160a01b03851660009081526020839052604090209083900390555b6001600160a01b038316611b5a576002810180548390039055611b79565b6001600160a01b03831660009081526020829052604090208054830190555b826001600160a01b0316846001600160a01b03167fddf252ad1be2c89b69c2b068fc378daa952ba7f163c4a11628f55a4df523b3ef84604051611bbe91815260200190565b60405180910390a350505050565b6000805160206124008339815191526001600160a01b038416611bff57611bfc81600201611a826114af85611a15565b50505b6001600160a01b038316611c2357611c2081600201611a096114af85611a15565b50505b610bf1611c2f856106d5565b611c38856106d5565b84611444565b600080611a75858585825460009081908015611d66576000611c6587610d1b60018561221e565b60408051808201909152905465ffffffffffff808216808452600160301b9092046001600160d01b031660208401529192509087161015611cb957604051632520601d60e01b815260040160405180910390fd5b805165ffffffffffff808816911603611d055784611cdc88610d1b60018661221e565b80546001600160d01b0392909216600160301b0265ffffffffffff909216919091179055611d56565b6040805180820190915265ffffffffffff80881682526001600160d01b0380881660208085019182528b54600181018d5560008d81529190912094519151909216600160301b029216919091179101555b602001519250839150611a7a9050565b50506040805180820190915265ffffffffffff80851682526001600160d01b0380851660208085019182528854600181018a5560008a815291822095519251909316600160301b029190931617920191909155905081611a7a565b6000815180845260005b81811015611de757602081850181015186830182015201611dcb565b506000602082860101526020601f19601f83011685010191505092915050565b602081526000610b786020830184611dc1565b80356001600160a01b0381168114611e3157600080fd5b919050565b60008060408385031215611e4957600080fd5b611e5283611e1a565b946020939093013593505050565b600080600060608486031215611e7557600080fd5b611e7e84611e1a565b9250611e8c60208501611e1a565b9150604084013590509250925092565b634e487b7160e01b600052604160045260246000fd5b600082601f830112611ec357600080fd5b813567ffffffffffffffff80821115611ede57611ede611e9c565b604051601f8301601f19908116603f01168101908282118183101715611f0657611f06611e9c565b81604052838152866020858801011115611f1f57600080fd5b836020870160208301376000602085830101528094505050505092915050565b60008060008060808587031215611f5557600080fd5b611f5e85611e1a565b9350602085013567ffffffffffffffff80821115611f7b57600080fd5b611f8788838901611eb2565b94506040870135915080821115611f9d57600080fd5b50611faa87828801611eb2565b949793965093946060013593505050565b600060208284031215611fcd57600080fd5b610b7882611e1a565b60ff60f81b881681526000602060e06020840152611ff760e084018a611dc1565b8381036040850152612009818a611dc1565b606085018990526001600160a01b038816608086015260a0850187905284810360c08601528551808252602080880193509091019060005b8181101561205d57835183529284019291840191600101612041565b50909c9b505050505050505050505050565b60006020828403121561208157600080fd5b5035919050565b803560ff81168114611e3157600080fd5b60008060008060008060c087890312156120b257600080fd5b6120bb87611e1a565b955060208701359450604087013593506120d760608801612088565b92506080870135915060a087013590509295509295509295565b600080600080600080600060e0888a03121561210c57600080fd5b61211588611e1a565b965061212360208901611e1a565b9550604088013594506060880135935061213f60808901612088565b925060a0880135915060c0880135905092959891949750929550565b6000806040838503121561216e57600080fd5b61217783611e1a565b915061218560208401611e1a565b90509250929050565b600080604083850312156121a157600080fd5b6121aa83611e1a565b9150602083013563ffffffff811681146121c357600080fd5b809150509250929050565b600181811c908216806121e257607f821691505b60208210810361220257634e487b7160e01b600052602260045260246000fd5b50919050565b634e487b7160e01b600052601160045260246000fd5b8181038181111561046557610465612208565b8082018082111561046557610465612208565b634e487b7160e01b600052601260045260246000fd5b601f821115610b8c576000816000526020600020601f850160051c810160208610156122835750805b601f850160051c820191505b818110156122a25782815560010161228f565b505050505050565b815167ffffffffffffffff8111156122c4576122c4611e9c565b6122d8816122d284546121ce565b8461225a565b602080601f83116001811461230d57600084156122f55750858301515b600019600386901b1c1916600185901b1785556122a2565b600085815260208120601f198616915b8281101561233c5788860151825594840194600190910190840161231d565b508582101561235a5787850151600019600388901b60f8161c191681555b5050505050600190811b01905550565b634e487b7160e01b600052602160045260246000fd5b634e487b7160e01b600052603260045260246000fd5b6000826123b357634e487b7160e01b600052601260045260246000fd5b500490565b6001600160d01b038281168282160390808211156123d8576123d8612208565b5092915050565b6001600160d01b038181168382160190808211156123d8576123d861220856fee8b26c30fad74198956032a3533d903385d56dd795af560196f9c78d4af40d0052c63247e1f47db19d5ce0460030c497f067ca4cebf71ba98eeadabe20bace00a16a46d94261c7517cc8ff89f61c0ce93598e3c849801011dee649a6a557d100a2646970667358221220baf404e90d02c22c11c5541eee8ec06269cf26998dbe1c08dff6b7001d2d490b64736f6c63430008180033","linkReferences":{}},"methodIdentifiers":{"CLOCK_MODE()":"4bf5d7e9","DOMAIN_SEPARATOR()":"3644e515","allowance(address,address)":"dd62ed3e","approve(address,uint256)":"095ea7b3","balanceOf(address)":"70a08231","checkpoints(address,uint32)":"f1127ed8","clock()":"91ddadf4","decimals()":"313ce567","delegate(address)":"5c19a95c","delegateBySig(address,uint256,uint256,uint8,bytes32,bytes32)":"c3cda520","delegates(address)":"587cde1e","eip712Domain()":"84b0196e","getPastTotalSupply(uint256)":"8e539e8c","getPastVotes(address,uint256)":"3a46b1a8","getVotes(address)":"9ab24eb0","initialize(address,string,string,uint256)":"4d12d4b6","name()":"06fdde03","nonces(address)":"7ecebe00","numCheckpoints(address)":"6fcfff45","permit(address,address,uint256,uint256,uint8,bytes32,bytes32)":"d505accf","symbol()":"95d89b41","totalSupply()":"18160ddd","transfer(address,uint256)":"a9059cbb","transferFrom(address,address,uint256)":"23b872dd"},"id":72}