{"abi":[{"type":"receive","stateMutability":"payable"},{"type":"function","name":"BALLOT_TYPEHASH","inputs":[],"outputs":[{"name":"","type":"bytes32","internalType":"bytes32"}],"stateMutability":"view"},{"type":"function","name":"CLOCK_MODE","inputs":[],"outputs":[{"name":"","type":"string","internalType":"string"}],"stateMutability":"view"},{"type":"function","name":"COUNTING_MODE","inputs":[],"outputs":[{"name":"","type":"string","internalType":"string"}],"stateMutability":"pure"},{"type":"function","name":"EXTENDED_BALLOT_TYPEHASH","inputs":[],"outputs":[{"name":"","type":"bytes32","internalType":"bytes32"}],"stateMutability":"view"},{"type":"function","name":"cancel","inputs":[{"name":"targets","type":"address[]","internalType":"address[]"},{"name":"values","type":"uint256[]","internalType":"uint256[]"},{"name":"calldatas","type":"bytes[]","internalType":"bytes[]"},{"name":"descriptionHash","type":"bytes32","internalType":"bytes32"}],"outputs":[{"name":"","type":"uint256","internalType":"uint256"}],"stateMutability":"nonpayable"},{"type":"function","name":"castVote","inputs":[{"name":"proposalId","type":"uint256","internalType":"uint256"},{"name":"support","type":"uint8","internalType":"uint8"}],"outputs":[{"name":"","type":"uint256","internalType":"uint256"}],"stateMutability":"nonpayable"},{"type":"function","name":"castVoteBySig","inputs":[{"name":"proposalId","type":"uint256","internalType":"uint256"},{"name":"support","type":"uint8","internalType":"uint8"},{"name":"voter","type":"address","internalType":"address"},{"name":"signature","type":"bytes","internalType":"bytes"}],"outputs":[{"name":"","type":"uint256","internalType":"uint256"}],"stateMutability":"nonpayable"},{"type":"function","name":"castVoteWithReason","inputs":[{"name":"proposalId","type":"uint256","internalType":"uint256"},{"name":"support","type":"uint8","internalType":"uint8"},{"name":"reason","type":"string","internalType":"string"}],"outputs":[{"name":"","type":"uint256","internalType":"uint256"}],"stateMutability":"nonpayable"},{"type":"function","name":"castVoteWithReasonAndParams","inputs":[{"name":"proposalId","type":"uint256","internalType":"uint256"},{"name":"support","type":"uint8","internalType":"uint8"},{"name":"reason","type":"string","internalType":"string"},{"name":"params","type":"bytes","internalType":"bytes"}],"outputs":[{"name":"","type":"uint256","internalType":"uint256"}],"stateMutability":"nonpayable"},{"type":"function","name":"castVoteWithReasonAndParamsBySig","inputs":[{"name":"proposalId","type":"uint256","internalType":"uint256"},{"name":"support","type":"uint8","internalType":"uint8"},{"name":"voter","type":"address","internalType":"address"},{"name":"reason","type":"string","internalType":"string"},{"name":"params","type":"bytes","internalType":"bytes"},{"name":"signature","type":"bytes","internalType":"bytes"}],"outputs":[{"name":"","type":"uint256","internalType":"uint256"}],"stateMutability":"nonpayable"},{"type":"function","name":"clock","inputs":[],"outputs":[{"name":"","type":"uint48","internalType":"uint48"}],"stateMutability":"view"},{"type":"function","name":"eip712Domain","inputs":[],"outputs":[{"name":"fields","type":"bytes1","internalType":"bytes1"},{"name":"name","type":"string","internalType":"string"},{"name":"version","type":"string","internalType":"string"},{"name":"chainId","type":"uint256","internalType":"uint256"},{"name":"verifyingContract","type":"address","internalType":"address"},{"name":"salt","type":"bytes32","internalType":"bytes32"},{"name":"extensions","type":"uint256[]","internalType":"uint256[]"}],"stateMutability":"view"},{"type":"function","name":"execute","inputs":[{"name":"targets","type":"address[]","internalType":"address[]"},{"name":"values","type":"uint256[]","internalType":"uint256[]"},{"name":"calldatas","type":"bytes[]","internalType":"bytes[]"},{"name":"descriptionHash","type":"bytes32","internalType":"bytes32"}],"outputs":[{"name":"","type":"uint256","internalType":"uint256"}],"stateMutability":"payable"},{"type":"function","name":"getVotes","inputs":[{"name":"account","type":"address","internalType":"address"},{"name":"timepoint","type":"uint256","internalType":"uint256"}],"outputs":[{"name":"","type":"uint256","internalType":"uint256"}],"stateMutability":"view"},{"type":"function","name":"getVotesWithParams","inputs":[{"name":"account","type":"address","internalType":"address"},{"name":"timepoint","type":"uint256","internalType":"uint256"},{"name":"params","type":"bytes","internalType":"bytes"}],"outputs":[{"name":"","type":"uint256","internalType":"uint256"}],"stateMutability":"view"},{"type":"function","name":"hasVoted","inputs":[{"name":"proposalId","type":"uint256","internalType":"uint256"},{"name":"account","type":"address","internalType":"address"}],"outputs":[{"name":"","type":"bool","internalType":"bool"}],"stateMutability":"view"},{"type":"function","name":"hashProposal","inputs":[{"name":"targets","type":"address[]","internalType":"address[]"},{"name":"values","type":"uint256[]","internalType":"uint256[]"},{"name":"calldatas","type":"bytes[]","internalType":"bytes[]"},{"name":"descriptionHash","type":"bytes32","internalType":"bytes32"}],"outputs":[{"name":"","type":"uint256","internalType":"uint256"}],"stateMutability":"pure"},{"type":"function","name":"initialize","inputs":[{"name":"_token","type":"address","internalType":"contract IVotes"},{"name":"_timelock","type":"address","internalType":"contract TimelockControllerUpgradeable"},{"name":"_quorum","type":"uint256","internalType":"uint256"},{"name":"_name","type":"string","internalType":"string"},{"name":"_votingDelay","type":"uint32","internalType":"uint32"},{"name":"_votingPeriod","type":"uint32","internalType":"uint32"},{"name":"_proposalThreshold","type":"uint256","internalType":"uint256"}],"outputs":[],"stateMutability":"nonpayable"},{"type":"function","name":"name","inputs":[],"outputs":[{"name":"","type":"string","internalType":"string"}],"stateMutability":"view"},{"type":"function","name":"nonces","inputs":[{"name":"owner","type":"address","internalType":"address"}],"outputs":[{"name":"","type":"uint256","internalType":"uint256"}],"stateMutability":"view"},{"type":"function","name":"onERC1155BatchReceived","inputs":[{"name":"","type":"address","internalType":"address"},{"name":"","type":"address","internalType":"address"},{"name":"","type":"uint256[]","internalType":"uint256[]"},{"name":"","type":"uint256[]","internalType":"uint256[]"},{"name":"","type":"bytes","internalType":"bytes"}],"outputs":[{"name":"","type":"bytes4","internalType":"bytes4"}],"stateMutability":"nonpayable"},{"type":"function","name":"onERC1155Received","inputs":[{"name":"","type":"address","internalType":"address"},{"name":"","type":"address","internalType":"address"},{"name":"","type":"uint256","internalType":"uint256"},{"name":"","type":"uint256","internalType":"uint256"},{"name":"","type":"bytes","internalType":"bytes"}],"outputs":[{"name":"","type":"bytes4","internalType":"bytes4"}],"stateMutability":"nonpayable"},{"type":"function","name":"onERC721Received","inputs":[{"name":"","type":"address","internalType":"address"},{"name":"","type":"address","internalType":"address"},{"name":"","type":"uint256","internalType":"uint256"},{"name":"","type":"bytes","internalType":"bytes"}],"outputs":[{"name":"","type":"bytes4","internalType":"bytes4"}],"stateMutability":"nonpayable"},{"type":"function","name":"proposalDeadline","inputs":[{"name":"proposalId","type":"uint256","internalType":"uint256"}],"outputs":[{"name":"","type":"uint256","internalType":"uint256"}],"stateMutability":"view"},{"type":"function","name":"proposalEta","inputs":[{"name":"proposalId","type":"uint256","internalType":"uint256"}],"outputs":[{"name":"","type":"uint256","internalType":"uint256"}],"stateMutability":"view"},{"type":"function","name":"proposalNeedsQueuing","inputs":[{"name":"proposalId","type":"uint256","internalType":"uint256"}],"outputs":[{"name":"","type":"bool","internalType":"bool"}],"stateMutability":"view"},{"type":"function","name":"proposalProposer","inputs":[{"name":"proposalId","type":"uint256","internalType":"uint256"}],"outputs":[{"name":"","type":"address","internalType":"address"}],"stateMutability":"view"},{"type":"function","name":"proposalSnapshot","inputs":[{"name":"proposalId","type":"uint256","internalType":"uint256"}],"outputs":[{"name":"","type":"uint256","internalType":"uint256"}],"stateMutability":"view"},{"type":"function","name":"proposalThreshold","inputs":[],"outputs":[{"name":"","type":"uint256","internalType":"uint256"}],"stateMutability":"view"},{"type":"function","name":"proposalVotes","inputs":[{"name":"proposalId","type":"uint256","internalType":"uint256"}],"outputs":[{"name":"againstVotes","type":"uint256","internalType":"uint256"},{"name":"forVotes","type":"uint256","internalType":"uint256"},{"name":"abstainVotes","type":"uint256","internalType":"uint256"}],"stateMutability":"view"},{"type":"function","name":"propose","inputs":[{"name":"targets","type":"address[]","internalType":"address[]"},{"name":"values","type":"uint256[]","internalType":"uint256[]"},{"name":"calldatas","type":"bytes[]","internalType":"bytes[]"},{"name":"description","type":"string","internalType":"string"}],"outputs":[{"name":"","type":"uint256","internalType":"uint256"}],"stateMutability":"nonpayable"},{"type":"function","name":"queue","inputs":[{"name":"targets","type":"address[]","internalType":"address[]"},{"name":"values","type":"uint256[]","internalType":"uint256[]"},{"name":"calldatas","type":"bytes[]","internalType":"bytes[]"},{"name":"descriptionHash","type":"bytes32","internalType":"bytes32"}],"outputs":[{"name":"","type":"uint256","internalType":"uint256"}],"stateMutability":"nonpayable"},{"type":"function","name":"quorum","inputs":[{"name":"blockNumber","type":"uint256","internalType":"uint256"}],"outputs":[{"name":"","type":"uint256","internalType":"uint256"}],"stateMutability":"view"},{"type":"function","name":"quorumDenominator","inputs":[],"outputs":[{"name":"","type":"uint256","internalType":"uint256"}],"stateMutability":"view"},{"type":"function","name":"quorumNumerator","inputs":[{"name":"timepoint","type":"uint256","internalType":"uint256"}],"outputs":[{"name":"","type":"uint256","internalType":"uint256"}],"stateMutability":"view"},{"type":"function","name":"quorumNumerator","inputs":[],"outputs":[{"name":"","type":"uint256","internalType":"uint256"}],"stateMutability":"view"},{"type":"function","name":"relay","inputs":[{"name":"target","type":"address","internalType":"address"},{"name":"value","type":"uint256","internalType":"uint256"},{"name":"data","type":"bytes","internalType":"bytes"}],"outputs":[],"stateMutability":"payable"},{"type":"function","name":"setProposalThreshold","inputs":[{"name":"newProposalThreshold","type":"uint256","internalType":"uint256"}],"outputs":[],"stateMutability":"nonpayable"},{"type":"function","name":"setVotingDelay","inputs":[{"name":"newVotingDelay","type":"uint48","internalType":"uint48"}],"outputs":[],"stateMutability":"nonpayable"},{"type":"function","name":"setVotingPeriod","inputs":[{"name":"newVotingPeriod","type":"uint32","internalType":"uint32"}],"outputs":[],"stateMutability":"nonpayable"},{"type":"function","name":"state","inputs":[{"name":"proposalId","type":"uint256","internalType":"uint256"}],"outputs":[{"name":"","type":"uint8","internalType":"enum IGovernor.ProposalState"}],"stateMutability":"view"},{"type":"function","name":"supportsInterface","inputs":[{"name":"interfaceId","type":"bytes4","internalType":"bytes4"}],"outputs":[{"name":"","type":"bool","internalType":"bool"}],"stateMutability":"view"},{"type":"function","name":"timelock","inputs":[],"outputs":[{"name":"","type":"address","internalType":"address"}],"stateMutability":"view"},{"type":"function","name":"token","inputs":[],"outputs":[{"name":"","type":"address","internalType":"contract IERC5805"}],"stateMutability":"view"},{"type":"function","name":"updateQuorumNumerator","inputs":[{"name":"newQuorumNumerator","type":"uint256","internalType":"uint256"}],"outputs":[],"stateMutability":"nonpayable"},{"type":"function","name":"updateTimelock","inputs":[{"name":"newTimelock","type":"address","internalType":"contract TimelockControllerUpgradeable"}],"outputs":[],"stateMutability":"nonpayable"},{"type":"function","name":"version","inputs":[],"outputs":[{"name":"","type":"string","internalType":"string"}],"stateMutability":"view"},{"type":"function","name":"votingDelay","inputs":[],"outputs":[{"name":"","type":"uint256","internalType":"uint256"}],"stateMutability":"view"},{"type":"function","name":"votingPeriod","inputs":[],"outputs":[{"name":"","type":"uint256","internalType":"uint256"}],"stateMutability":"view"},{"type":"event","name":"EIP712DomainChanged","inputs":[],"anonymous":false},{"type":"event","name":"Initialized","inputs":[{"name":"version","type":"uint64","indexed":false,"internalType":"uint64"}],"anonymous":false},{"type":"event","name":"ProposalCanceled","inputs":[{"name":"proposalId","type":"uint256","indexed":false,"internalType":"uint256"}],"anonymous":false},{"type":"event","name":"ProposalCreated","inputs":[{"name":"proposalId","type":"uint256","indexed":false,"internalType":"uint256"},{"name":"proposer","type":"address","indexed":false,"internalType":"address"},{"name":"targets","type":"address[]","indexed":false,"internalType":"address[]"},{"name":"values","type":"uint256[]","indexed":false,"internalType":"uint256[]"},{"name":"signatures","type":"string[]","indexed":false,"internalType":"string[]"},{"name":"calldatas","type":"bytes[]","indexed":false,"internalType":"bytes[]"},{"name":"voteStart","type":"uint256","indexed":false,"internalType":"uint256"},{"name":"voteEnd","type":"uint256","indexed":false,"internalType":"uint256"},{"name":"description","type":"string","indexed":false,"internalType":"string"}],"anonymous":false},{"type":"event","name":"ProposalExecuted","inputs":[{"name":"proposalId","type":"uint256","indexed":false,"internalType":"uint256"}],"anonymous":false},{"type":"event","name":"ProposalQueued","inputs":[{"name":"proposalId","type":"uint256","indexed":false,"internalType":"uint256"},{"name":"etaSeconds","type":"uint256","indexed":false,"internalType":"uint256"}],"anonymous":false},{"type":"event","name":"ProposalThresholdSet","inputs":[{"name":"oldProposalThreshold","type":"uint256","indexed":false,"internalType":"uint256"},{"name":"newProposalThreshold","type":"uint256","indexed":false,"internalType":"uint256"}],"anonymous":false},{"type":"event","name":"QuorumNumeratorUpdated","inputs":[{"name":"oldQuorumNumerator","type":"uint256","indexed":false,"internalType":"uint256"},{"name":"newQuorumNumerator","type":"uint256","indexed":false,"internalType":"uint256"}],"anonymous":false},{"type":"event","name":"TimelockChange","inputs":[{"name":"oldTimelock","type":"address","indexed":false,"internalType":"address"},{"name":"newTimelock","type":"address","indexed":false,"internalType":"address"}],"anonymous":false},{"type":"event","name":"VoteCast","inputs":[{"name":"voter","type":"address","indexed":true,"internalType":"address"},{"name":"proposalId","type":"uint256","indexed":false,"internalType":"uint256"},{"name":"support","type":"uint8","indexed":false,"internalType":"uint8"},{"name":"weight","type":"uint256","indexed":false,"internalType":"uint256"},{"name":"reason","type":"string","indexed":false,"internalType":"string"}],"anonymous":false},{"type":"event","name":"VoteCastWithParams","inputs":[{"name":"voter","type":"address","indexed":true,"internalType":"address"},{"name":"proposalId","type":"uint256","indexed":false,"internalType":"uint256"},{"name":"support","type":"uint8","indexed":false,"internalType":"uint8"},{"name":"weight","type":"uint256","indexed":false,"internalType":"uint256"},{"name":"reason","type":"string","indexed":false,"internalType":"string"},{"name":"params","type":"bytes","indexed":false,"internalType":"bytes"}],"anonymous":false},{"type":"event","name":"VotingDelaySet","inputs":[{"name":"oldVotingDelay","type":"uint256","indexed":false,"internalType":"uint256"},{"name":"newVotingDelay","type":"uint256","indexed":false,"internalType":"uint256"}],"anonymous":false},{"type":"event","name":"VotingPeriodSet","inputs":[{"name":"oldVotingPeriod","type":"uint256","indexed":false,"internalType":"uint256"},{"name":"newVotingPeriod","type":"uint256","indexed":false,"internalType":"uint256"}],"anonymous":false},{"type":"error","name":"CheckpointUnorderedInsertion","inputs":[]},{"type":"error","name":"FailedInnerCall","inputs":[]},{"type":"error","name":"GovernorAlreadyCastVote","inputs":[{"name":"voter","type":"address","internalType":"address"}]},{"type":"error","name":"GovernorAlreadyQueuedProposal","inputs":[{"name":"proposalId","type":"uint256","internalType":"uint256"}]},{"type":"error","name":"GovernorDisabledDeposit","inputs":[]},{"type":"error","name":"GovernorInsufficientProposerVotes","inputs":[{"name":"proposer","type":"address","internalType":"address"},{"name":"votes","type":"uint256","internalType":"uint256"},{"name":"threshold","type":"uint256","internalType":"uint256"}]},{"type":"error","name":"GovernorInvalidProposalLength","inputs":[{"name":"targets","type":"uint256","internalType":"uint256"},{"name":"calldatas","type":"uint256","internalType":"uint256"},{"name":"values","type":"uint256","internalType":"uint256"}]},{"type":"error","name":"GovernorInvalidQuorumFraction","inputs":[{"name":"quorumNumerator","type":"uint256","internalType":"uint256"},{"name":"quorumDenominator","type":"uint256","internalType":"uint256"}]},{"type":"error","name":"GovernorInvalidSignature","inputs":[{"name":"voter","type":"address","internalType":"address"}]},{"type":"error","name":"GovernorInvalidVoteType","inputs":[]},{"type":"error","name":"GovernorInvalidVotingPeriod","inputs":[{"name":"votingPeriod","type":"uint256","internalType":"uint256"}]},{"type":"error","name":"GovernorNonexistentProposal","inputs":[{"name":"proposalId","type":"uint256","internalType":"uint256"}]},{"type":"error","name":"GovernorNotQueuedProposal","inputs":[{"name":"proposalId","type":"uint256","internalType":"uint256"}]},{"type":"error","name":"GovernorOnlyExecutor","inputs":[{"name":"account","type":"address","internalType":"address"}]},{"type":"error","name":"GovernorOnlyProposer","inputs":[{"name":"account","type":"address","internalType":"address"}]},{"type":"error","name":"GovernorQueueNotImplemented","inputs":[]},{"type":"error","name":"GovernorRestrictedProposer","inputs":[{"name":"proposer","type":"address","internalType":"address"}]},{"type":"error","name":"GovernorUnexpectedProposalState","inputs":[{"name":"proposalId","type":"uint256","internalType":"uint256"},{"name":"current","type":"uint8","internalType":"enum IGovernor.ProposalState"},{"name":"expectedStates","type":"bytes32","internalType":"bytes32"}]},{"type":"error","name":"InvalidAccountNonce","inputs":[{"name":"account","type":"address","internalType":"address"},{"name":"currentNonce","type":"uint256","internalType":"uint256"}]},{"type":"error","name":"InvalidInitialization","inputs":[]},{"type":"error","name":"NotInitializing","inputs":[]},{"type":"error","name":"QueueEmpty","inputs":[]},{"type":"error","name":"QueueFull","inputs":[]},{"type":"error","name":"SafeCastOverflowedUintDowncast","inputs":[{"name":"bits","type":"uint8","internalType":"uint8"},{"name":"value","type":"uint256","internalType":"uint256"}]}],"bytecode":{"object":"0x608060405234801561001057600080fd5b50614aaa806100206000396000f3fe6080604052600436106102b25760003560e01c80637d5e81e211610175578063bc197c81116100dc578063deaaa7cc11610095578063ece40cc11161006f578063ece40cc1146109de578063f23a6e61146109fe578063f8ce560a14610a1e578063fc0c546a14610a3e57600080fd5b8063deaaa7cc1461096a578063e540d01d1461099e578063eb9019d4146109be57600080fd5b8063bc197c811461089c578063c01f9e37146108bc578063c28bc2fa146108dc578063c59057e4146108ef578063d33219b41461090f578063dd4e2ba51461092457600080fd5b80639a802a6d1161012e5780639a802a6d146107cd578063a7713a70146107ed578063a890c91014610802578063a9a9529414610822578063ab58fb8e14610842578063b58131b01461088757600080fd5b80637d5e81e2146106d05780637ecebe00146106f057806384b0196e146107455780638ff262e31461076d57806391ddadf41461078d57806397c3d334146107b957600080fd5b806343859632116102195780635b8d0e0d116101d25780635b8d0e0d146106105780635f398a141461063057806360c4247f1461065057806379051887146106705780637b3c71d3146106905780637bdc7783146106b057600080fd5b806343859632146104d8578063452115d61461052f5780634bf5d7e91461054f578063544ffc9c1461056457806354fd4d50146105c657806356781388146105f057600080fd5b8063160cbed71161026b578063160cbed71461040f5780632656227d1461042f5780632d63f693146104425780632fe3e261146104625780633932abb1146104965780633e4f49e6146104ab57600080fd5b806301ffc9a7146102ee57806302a251a31461032357806306f3f9e61461035c57806306fdde031461037c578063143489d01461039e578063150b7a02146103d657600080fd5b366102e957306102c0610a53565b6001600160a01b0316146102e757604051637485328f60e11b815260040160405180910390fd5b005b600080fd5b3480156102fa57600080fd5b5061030e610309366004613769565b610a62565b60405190151581526020015b60405180910390f35b34801561032f57600080fd5b506000805160206149b583398151915254600160301b900463ffffffff165b60405190815260200161031a565b34801561036857600080fd5b506102e7610377366004613793565b610ab4565b34801561038857600080fd5b50610391610ac8565b60405161031a91906137fc565b3480156103aa57600080fd5b506103be6103b9366004613793565b610b6c565b6040516001600160a01b03909116815260200161031a565b3480156103e257600080fd5b506103f66103f13660046138ef565b610b94565b6040516001600160e01b0319909116815260200161031a565b34801561041b57600080fd5b5061034e61042a366004613ac3565b610bd7565b61034e61043d366004613ac3565b610cb9565b34801561044e57600080fd5b5061034e61045d366004613793565b610e3d565b34801561046e57600080fd5b5061034e7f3e83946653575f9a39005e1545185629e92736b7528ab20ca3816f315424a81181565b3480156104a257600080fd5b5061034e610e6b565b3480156104b757600080fd5b506104cb6104c6366004613793565b610e8b565b60405161031a9190613b8a565b3480156104e457600080fd5b5061030e6104f3366004613b98565b6000918252600080516020614a15833981519152602090815260408084206001600160a01b039390931684526003909201905290205460ff1690565b34801561053b57600080fd5b5061034e61054a366004613ac3565b610e96565b34801561055b57600080fd5b50610391610f0d565b34801561057057600080fd5b506105ab61057f366004613793565b6000908152600080516020614a1583398151915260205260409020805460018201546002909201549092565b6040805193845260208401929092529082015260600161031a565b3480156105d257600080fd5b506040805180820190915260018152603160f81b6020820152610391565b3480156105fc57600080fd5b5061034e61060b366004613bd9565b610fb6565b34801561061c57600080fd5b5061034e61062b366004613c4d565b610fdf565b34801561063c57600080fd5b5061034e61064b366004613d07565b611120565b34801561065c57600080fd5b5061034e61066b366004613793565b611175565b34801561067c57600080fd5b506102e761068b366004613d9e565b611224565b34801561069c57600080fd5b5061034e6106ab366004613dbb565b611235565b3480156106bc57600080fd5b506102e76106cb366004613e28565b61127d565b3480156106dc57600080fd5b5061034e6106eb366004613ec4565b6113f4565b3480156106fc57600080fd5b5061034e61070b366004613f78565b6001600160a01b031660009081527f5ab42ced628888259c08ac98db1eb0cf702fc1501344311d8b100cd1bfe4bb00602052604090205490565b34801561075157600080fd5b5061075a6114b1565b60405161031a9796959493929190613fd1565b34801561077957600080fd5b5061034e610788366004614041565b61155d565b34801561079957600080fd5b506107a2611611565b60405165ffffffffffff909116815260200161031a565b3480156107c557600080fd5b50606461034e565b3480156107d957600080fd5b5061034e6107e8366004614092565b611680565b3480156107f957600080fd5b5061034e61168d565b34801561080e57600080fd5b506102e761081d366004613f78565b6116c8565b34801561082e57600080fd5b5061030e61083d366004613793565b6116d9565b34801561084e57600080fd5b5061034e61085d366004613793565b6000908152600080516020614995833981519152602052604090206001015465ffffffffffff1690565b34801561089357600080fd5b5061034e6116e2565b3480156108a857600080fd5b506103f66108b73660046140ea565b6116fa565b3480156108c857600080fd5b5061034e6108d7366004613793565b61173e565b6102e76108ea36600461417d565b61179f565b3480156108fb57600080fd5b5061034e61090a366004613ac3565b61181f565b34801561091b57600080fd5b506103be611859565b34801561093057600080fd5b506040805180820190915260208082527f737570706f72743d627261766f2671756f72756d3d666f722c6162737461696e90820152610391565b34801561097657600080fd5b5061034e7ff2aad550cf55f045cb27e9c559f9889fdfb6e6cdaa032301d6ea397784ae51d781565b3480156109aa57600080fd5b506102e76109b93660046141c0565b61187c565b3480156109ca57600080fd5b5061034e6109d93660046141db565b61188d565b3480156109ea57600080fd5b506102e76109f9366004613793565b6118b5565b348015610a0a57600080fd5b506103f6610a19366004614207565b6118c6565b348015610a2a57600080fd5b5061034e610a39366004613793565b61190a565b348015610a4a57600080fd5b506103be611915565b6000610a5d611859565b905090565b60006001600160e01b031982166332a2ad4360e11b1480610a9357506001600160e01b03198216630271189760e51b145b80610aae57506301ffc9a760e01b6001600160e01b03198316145b92915050565b610abc61193e565b610ac5816119c9565b50565b600080516020614a558339815191528054606091908190610ae89061426f565b80601f0160208091040260200160405190810160405280929190818152602001828054610b149061426f565b8015610b615780601f10610b3657610100808354040283529160200191610b61565b820191906000526020600020905b815481529060010190602001808311610b4457829003601f168201915b505050505091505090565b600090815260008051602061499583398151915260205260409020546001600160a01b031690565b600030610b9f610a53565b6001600160a01b031614610bc657604051637485328f60e11b815260040160405180910390fd5b50630a85bd0160e11b949350505050565b6000600080516020614a5583398151915281610bf58787878761181f565b9050610c0a81610c056004611a80565b611aa3565b506000610c1a8289898989611ae2565b905065ffffffffffff811615610c9557600082815260018481016020908152604092839020909101805465ffffffffffff191665ffffffffffff85169081179091558251858152918201527f9a2e42fd6722813d69113e7d0079d3d940171428df7373df9c7f7617cfda2892910160405180910390a1610cae565b604051634844252360e11b815260040160405180910390fd5b509695505050505050565b6000600080516020614a5583398151915281610cd78787878761181f565b9050610cf781610ce76005611a80565b610cf16004611a80565b17611aa3565b5060008181526001830160205260409020805460ff60f01b1916600160f01b17905530610d22610a53565b6001600160a01b031614610dae5760005b8751811015610dac57306001600160a01b0316888281518110610d5857610d586142a9565b60200260200101516001600160a01b031603610da457610da4868281518110610d8357610d836142a9565b60200260200101518051906020012084600201611af190919063ffffffff16565b600101610d33565b505b610dbb8188888888611b62565b30610dc4610a53565b6001600160a01b031614158015610df2575060028201546001600160801b03808216600160801b9092041614155b15610dff57600060028301555b6040518181527f712ae1383f79ac853f8d882153778e0260ef8f03b504e2866e0593e04d2b291f906020015b60405180910390a19695505050505050565b60009081526000805160206149958339815191526020526040902054600160a01b900465ffffffffffff1690565b6000610a5d6000805160206149b58339815191525465ffffffffffff1690565b6000610aae82611b76565b600080610ea58686868661181f565b9050610eb581610c056000611a80565b50610ebf81610b6c565b6001600160a01b0316336001600160a01b031614610ef75760405163233d98e360e01b81523360048201526024015b60405180910390fd5b610f0386868686611cc8565b9695505050505050565b6060610f17611915565b6001600160a01b0316634bf5d7e96040518163ffffffff1660e01b8152600401600060405180830381865afa925050508015610f7557506040513d6000823e601f3d908101601f19168201604052610f7291908101906142bf565b60015b610fb1575060408051808201909152601d81527f6d6f64653d626c6f636b6e756d6265722666726f6d3d64656661756c74000000602082015290565b919050565b600080339050610fd784828560405180602001604052806000815250611cdf565b949350505050565b6000806110a48761109e7f3e83946653575f9a39005e1545185629e92736b7528ab20ca3816f315424a8118c8c8c6110168e611d02565b8d8d60405161102692919061432c565b60405180910390208c805190602001206040516020016110839796959493929190968752602087019590955260ff9390931660408601526001600160a01b03919091166060850152608084015260a083015260c082015260e00190565b60405160208183030381529060405280519060200120611d44565b85611d71565b9050806110cf576040516394ab6c0760e01b81526001600160a01b0388166004820152602401610eee565b61111389888a89898080601f0160208091040260200160405190810160405280939291908181526020018383808284376000920191909152508b9250611dc9915050565b9998505050505050505050565b60008033905061116a87828888888080601f0160208091040260200160405190810160405280939291908181526020018383808284376000920191909152508a9250611dc9915050565b979650505050505050565b7fe770710421fd2cad75ad828c61aa98f2d77d423a440b67872d0f65554148e00080546000919082826111a9600184614352565b815481106111b9576111b96142a9565b6000918252602090912001805490915065ffffffffffff811690600160301b90046001600160d01b03168682116111fd576001600160d01b03169695505050505050565b61121061120988611ea6565b8690611edd565b6001600160d01b0316979650505050505050565b61122c61193e565b610ac581611f92565b600080339050610f0386828787878080601f016020809104026020016040519081016040528093929190818152602001838380828437600092019190915250611cdf92505050565b7ff0c57e16840df040f15088dc2f81fe391c3923bec73e23a9662efc9c229c6a008054600160401b810460ff1615906001600160401b03166000811580156112c25750825b90506000826001600160401b031660011480156112de5750303b155b9050811580156112ec575080155b1561130a5760405163f92ee8a960e01b815260040160405180910390fd5b845467ffffffffffffffff19166001178555831561133457845460ff60401b1916600160401b1785555b6113738a8a8080601f01602080910402602001604051908101604052809392919081815260200183838082843760009201919091525061201692505050565b6113848863ffffffff16888861204e565b61138d8d612066565b6113968b612077565b61139f8c612088565b83156113e557845460ff60401b19168555604051600181527fc7f505b2f371ae2175ee4913f4499e1f2633a7b5936321eed1cdaeb6115181d29060200160405180910390a15b50505050505050505050505050565b6000336114018184612099565b6114295760405163d9b3955760e01b81526001600160a01b0382166004820152602401610eee565b6000611450826001611439611611565b6114439190614365565b65ffffffffffff1661188d565b9050600061145c6116e2565b90508082101561149857604051636121770b60e11b81526001600160a01b03841660048201526024810183905260448101829052606401610eee565b6114a58888888887612184565b98975050505050505050565b600060608082808083816000805160206149d583398151915280549091501580156114de57506001810154155b6115225760405162461bcd60e51b81526020600482015260156024820152741152540dcc4c8e88155b9a5b9a5d1a585b1a5e9959605a1b6044820152606401610eee565b61152a6123c8565b611532612407565b60408051600080825260208201909252600f60f81b9c939b5091995046985030975095509350915050565b6000806115cb8461109e7ff2aad550cf55f045cb27e9c559f9889fdfb6e6cdaa032301d6ea397784ae51d78989896115948b611d02565b60408051602081019690965285019390935260ff90911660608401526001600160a01b0316608083015260a082015260c001611083565b9050806115f6576040516394ab6c0760e01b81526001600160a01b0385166004820152602401610eee565b610f0386858760405180602001604052806000815250611cdf565b600061161b611915565b6001600160a01b03166391ddadf46040518163ffffffff1660e01b8152600401602060405180830381865afa925050508015611674575060408051601f3d908101601f191682019092526116719181019061438b565b60015b610fb157610a5d612446565b6000610fd7848484612451565b60007fe770710421fd2cad75ad828c61aa98f2d77d423a440b67872d0f65554148e0006116b9816124ce565b6001600160d01b031691505090565b6116d061193e565b610ac581612507565b60006001610aae565b6000610a5d6000805160206149f58339815191525490565b600030611705610a53565b6001600160a01b03161461172c57604051637485328f60e11b815260040160405180910390fd5b5063bc197c8160e01b95945050505050565b60008181526000805160206149958339815191526020526040812054600080516020614a558339815191529061179090600160d01b810463ffffffff1690600160a01b900465ffffffffffff166143a8565b65ffffffffffff169392505050565b6117a761193e565b600080856001600160a01b03168585856040516117c592919061432c565b60006040518083038185875af1925050503d8060008114611802576040519150601f19603f3d011682016040523d82523d6000602084013e611807565b606091505b5091509150611816828261257d565b50505050505050565b600084848484604051602001611838949392919061445b565b60408051601f19818403018152919052805160209091012095945050505050565b600080600080516020614a358339815191525b546001600160a01b031692915050565b61188461193e565b610ac581612599565b60006118ae83836118a960408051602081019091526000815290565b612451565b9392505050565b6118bd61193e565b610ac581612649565b6000306118d1610a53565b6001600160a01b0316146118f857604051637485328f60e11b815260040160405180910390fd5b5063f23a6e6160e01b95945050505050565b6000610aae82612697565b6000807f3ba4977254e415696610a40ebf2258dbfa0ec6a2ff64e84bfe715ff16977cc0061186c565b600080516020614a5583398151915233611956610a53565b6001600160a01b03161461197f576040516347096e4760e01b8152336004820152602401610eee565b30611988610a53565b6001600160a01b031614610ac557600080366040516119a892919061432c565b604051809103902090505b806119c08360020161272e565b036119b3575050565b7fe770710421fd2cad75ad828c61aa98f2d77d423a440b67872d0f65554148e000606480831115611a175760405163243e544560e01b81526004810184905260248101829052604401610eee565b6000611a2161168d565b9050611a3f611a2e611611565b611a37866127ac565b8591906127e0565b505060408051828152602081018690527f0553476bf02ef2726e8ce5ced78d63e26e602e4a2257b1f559418e24b4633997910160405180910390a150505050565b6000816007811115611a9457611a94613b52565b600160ff919091161b92915050565b600080611aaf84610e8b565b9050600083611abd83611a80565b16036118ae578381846040516331b75e4d60e01b8152600401610eee939291906144a6565b6000610f0386868686866127fb565b81546001600160801b03600160801b820481169181166001830190911603611b2c57604051638acb5f2760e01b815260040160405180910390fd5b6001600160801b03808216600090815260018086016020526040909120939093558354919092018216600160801b029116179055565b611b6f85858585856129a2565b5050505050565b6000600080516020614a3583398151915281611b9184612a4a565b90506005816007811115611ba757611ba7613b52565b14611bb3579392505050565b6000848152600183016020526040908190205483549151632c258a9f60e11b81526004810182905290916001600160a01b03169063584b153e90602401602060405180830381865afa158015611c0d573d6000803e3d6000fd5b505050506040513d601f19601f82011682018060405250810190611c3191906144c8565b15611c4157506005949350505050565b8254604051632ab0f52960e01b8152600481018390526001600160a01b0390911690632ab0f52990602401602060405180830381865afa158015611c89573d6000803e3d6000fd5b505050506040513d601f19601f82011682018060405250810190611cad91906144c8565b15611cbd57506007949350505050565b506002949350505050565b6000611cd685858585612bc3565b95945050505050565b6000611cd685858585611cfd60408051602081019091526000815290565b611dc9565b6001600160a01b031660009081527f5ab42ced628888259c08ac98db1eb0cf702fc1501344311d8b100cd1bfe4bb006020526040902080546001810190915590565b6000610aae611d51612c75565b8360405161190160f01b8152600281019290925260228201526042902090565b6000806000611d808585612c7f565b5090925090506000816003811115611d9a57611d9a613b52565b148015611db85750856001600160a01b0316826001600160a01b0316145b80610f035750610f03868686612ccc565b6000611dd986610c056001611a80565b506000611def86611de989610e3d565b85612451565b9050611dfe8787878487612da7565b8251600003611e5357856001600160a01b03167fb8e138887d0aa13bab447e82de9d5c1777041ecd21ca36ba824ff1e6c07ddda488878488604051611e4694939291906144ea565b60405180910390a2610f03565b856001600160a01b03167fe2babfbac5889a709b63bb7f598b324e08bc5a4fb9ec647fb3cbc9ec07eb87128887848888604051611e94959493929190614512565b60405180910390a29695505050505050565b600065ffffffffffff821115611ed9576040516306dfcc6560e41b81526030600482015260248101839052604401610eee565b5090565b815460009081816005811115611f3c576000611ef884612eb0565b611f029085614352565b60008881526020902090915081015465ffffffffffff9081169087161015611f2c57809150611f3a565b611f3781600161454c565b92505b505b6000611f4a87878585612f98565b90508015611f8557611f6f87611f61600184614352565b600091825260209091200190565b54600160301b90046001600160d01b031661116a565b6000979650505050505050565b6000805160206149b5833981519152546040805165ffffffffffff9283168152918316602083015280516000805160206149f5833981519152927fc565b045403dc03c2eea82b81a0465edad9e2e7fc4d97e11421c209da93d7a9392908290030190a1600101805465ffffffffffff191665ffffffffffff92909216919091179055565b61201e612ffa565b612045816120406040805180820190915260018152603160f81b602082015290565b613045565b610ac5816130a6565b612056612ffa565b6120618383836130c8565b505050565b61206e612ffa565b610ac5816130eb565b61207f612ffa565b610ac581613134565b612090612ffa565b610ac58161313c565b805160009060348110156120b1576001915050610aae565b82810160131901516001600160a01b031981166b046e0e4dee0dee6cae47a60f60a31b146120e457600192505050610aae565b6000806120f2602885614352565b90505b8381101561216357600080612129888481518110612115576121156142a9565b01602001516001600160f81b031916613144565b91509150816121415760019650505050505050610aae565b8060ff166004856001600160a01b0316901b17935050508060010190506120f5565b50856001600160a01b0316816001600160a01b031614935050505092915050565b600080600080516020614a5583398151915290506121ab878787878051906020012061181f565b9150855187511415806121c057508451875114155b806121ca57508651155b156121ff57865185518751604051630447b05d60e41b8152600481019390935260248301919091526044820152606401610eee565b6000828152600182016020526040902054600160a01b900465ffffffffffff161561224c578161222e83610e8b565b6040516331b75e4d60e01b8152610eee9291906000906004016144a6565b6000612256610e6b565b61225e611611565b65ffffffffffff16612270919061454c565b905060006122986000805160206149b58339815191525463ffffffff600160301b9091041690565b6000858152600185016020526040902080546001600160a01b0319166001600160a01b0388161781559091506122cd83611ea6565b815465ffffffffffff91909116600160a01b0265ffffffffffff60a01b199091161781556122fa826131d6565b815463ffffffff91909116600160d01b0263ffffffff60d01b1990911617815589517f7d84a6263ae0d98d3329bd7b46bb4e8d6f98cd35a7adb45c274c8b7fd5ebd5e090869088908d908d906001600160401b0381111561235d5761235d613824565b60405190808252806020026020018201604052801561239057816020015b606081526020019060019003908161237b5790505b508d8961239d8a8261454c565b8f6040516123b39998979695949392919061455f565b60405180910390a15050505095945050505050565b7fa16a46d94261c7517cc8ff89f61c0ce93598e3c849801011dee649a6a557d10280546060916000805160206149d583398151915291610ae89061426f565b7fa16a46d94261c7517cc8ff89f61c0ce93598e3c849801011dee649a6a557d10380546060916000805160206149d583398151915291610ae89061426f565b6000610a5d43611ea6565b600061245b611915565b604051630748d63560e31b81526001600160a01b038681166004830152602482018690529190911690633a46b1a890604401602060405180830381865afa1580156124aa573d6000803e3d6000fd5b505050506040513d601f19601f82011682018060405250810190610fd79190614636565b805460009080156124fe576124e883611f61600184614352565b54600160301b90046001600160d01b03166118ae565b60009392505050565b600080516020614a358339815191528054604080516001600160a01b039283168152918416602083015280517f08f74ea46ef7894f65eabfb5e6e695de773a000b47c529ab559178069b2264019281900390910190a180546001600160a01b0319166001600160a01b0392909216919091179055565b6060826125925761258d82613207565b610aae565b5080610aae565b6000805160206149f583398151915263ffffffff82166000036125d25760405163f1cfbf0560e01b815260006004820152602401610eee565b60018101546040805163ffffffff600160301b9093048316815291841660208301527f7e3f7f0708a84de9203036abaa450dccc85ad5ff52f78c170f3edb55cf5e8828910160405180910390a1600101805463ffffffff909216600160301b0269ffffffff00000000000019909216919091179055565b6000805160206149f58339815191528054604080519182526020820184905280517fccb45da8d5717e6c4544694297c4ba5cf151d455c9bb0ed4fc7a38411bc054619281900390910190a155565b600060646126a483611175565b6126ac611915565b6001600160a01b0316638e539e8c856040518263ffffffff1660e01b81526004016126d991815260200190565b602060405180830381865afa1580156126f6573d6000803e3d6000fd5b505050506040513d601f19601f8201168201806040525081019061271a9190614636565b612724919061464f565b610aae919061467c565b80546000906001600160801b0380821691600160801b9004168103612766576040516375e52f4f60e01b815260040160405180910390fd5b6001600160801b038181166000908152600185810160205260408220805492905585546fffffffffffffffffffffffffffffffff19169301909116919091179092555090565b60006001600160d01b03821115611ed9576040516306dfcc6560e41b815260d0600482015260248101839052604401610eee565b6000806127ee858585613230565b915091505b935093915050565b600080516020614a3583398151915280546040805163793d064960e11b815290516000939284926001600160a01b039091169163f27a0c92916004808201926020929091908290030181865afa158015612859573d6000803e3d6000fd5b505050506040513d601f19601f8201168201806040525081019061287d9190614636565b905060003060601b6bffffffffffffffffffffffff19168518835460405163b1c5f42760e01b81529192506001600160a01b03169063b1c5f427906128cf908b908b908b90600090889060040161469e565b602060405180830381865afa1580156128ec573d6000803e3d6000fd5b505050506040513d601f19601f820116820180604052508101906129109190614636565b60008a815260018501602052604080822092909255845491516308f2a0bb60e41b81526001600160a01b0390921691638f2a0bb09161295c918c918c918c919088908a906004016146ec565b600060405180830381600087803b15801561297657600080fd5b505af115801561298a573d6000803e3d6000fd5b50505050611113824261299d919061454c565b611ea6565b600080516020614a35833981519152805460405163e38335e560e01b81526001600160a01b039091169063e38335e59034906129ff908990899089906000906bffffffffffffffffffffffff193060601b168b189060040161469e565b6000604051808303818588803b158015612a1857600080fd5b505af1158015612a2c573d6000803e3d6000fd5b50505060009788525050600101602052505060408320929092555050565b6000818152600080516020614995833981519152602052604081208054600080516020614a55833981519152919060ff600160f01b8204811691600160f81b9004168115612a9e5750600795945050505050565b8015612ab05750600295945050505050565b6000612abb87610e3d565b905080600003612ae157604051636ad0607560e01b815260048101889052602401610eee565b6000612aeb611611565b65ffffffffffff169050808210612b0a57506000979650505050505050565b6000612b158961173e565b9050818110612b2d5750600198975050505050505050565b612b36896133aa565b1580612b6357506000898152600080516020614a1583398151915260205260409020805460019091015411155b15612b775750600398975050505050505050565b6000898152600080516020614995833981519152602052604090206001015465ffffffffffff16600003612bb45750600498975050505050505050565b50600598975050505050505050565b6000600080516020614a3583398151915281612be1878787876133f1565b60008181526001840160205260409020549091508015610cae57825460405163c4d252f560e01b8152600481018390526001600160a01b039091169063c4d252f590602401600060405180830381600087803b158015612c4057600080fd5b505af1158015612c54573d6000803e3d6000fd5b50505060008381526001850160205260408120555050915050949350505050565b6000610a5d6134b3565b60008060008351604103612cb95760208401516040850151606086015160001a612cab88828585613527565b955095509550505050612cc5565b50508151600091506002905b9250925092565b6000806000856001600160a01b03168585604051602401612cee929190614744565b60408051601f198184030181529181526020820180516001600160e01b0316630b135d3f60e11b17905251612d23919061475d565b600060405180830381855afa9150503d8060008114612d5e576040519150601f19603f3d011682016040523d82523d6000602084013e612d63565b606091505b5091509150818015612d7757506020815110155b8015610f0357508051630b135d3f60e11b90612d9c9083016020908101908401614636565b149695505050505050565b6000858152600080516020614a15833981519152602081815260408084206001600160a01b0389168552600381019092529092205490919060ff1615612e0b576040516371c6af4960e01b81526001600160a01b0387166004820152602401610eee565b6001600160a01b03861660009081526003820160205260409020805460ff1916600117905560ff8516612e575783816000016000828254612e4c919061454c565b909155506118169050565b60001960ff861601612e775783816001016000828254612e4c919061454c565b60011960ff861601612e975783816002016000828254612e4c919061454c565b6040516303599be160e11b815260040160405180910390fd5b600081600003612ec257506000919050565b60006001612ecf846135f6565b901c6001901b90506001818481612ee857612ee8614666565b048201901c90506001818481612f0057612f00614666565b048201901c90506001818481612f1857612f18614666565b048201901c90506001818481612f3057612f30614666565b048201901c90506001818481612f4857612f48614666565b048201901c90506001818481612f6057612f60614666565b048201901c90506001818481612f7857612f78614666565b048201901c90506118ae81828581612f9257612f92614666565b0461368a565b60005b81831015612ff2576000612faf84846136a0565b60008781526020902090915065ffffffffffff86169082015465ffffffffffff161115612fde57809250612fec565b612fe981600161454c565b93505b50612f9b565b509392505050565b7ff0c57e16840df040f15088dc2f81fe391c3923bec73e23a9662efc9c229c6a0054600160401b900460ff1661304357604051631afcd79f60e31b815260040160405180910390fd5b565b61304d612ffa565b6000805160206149d58339815191527fa16a46d94261c7517cc8ff89f61c0ce93598e3c849801011dee649a6a557d10261308784826147c9565b506003810161309683826147c9565b5060008082556001909101555050565b6130ae612ffa565b600080516020614a558339815191528061206183826147c9565b6130d0612ffa565b6130d983611f92565b6130e282612599565b61206181612649565b6130f3612ffa565b7f3ba4977254e415696610a40ebf2258dbfa0ec6a2ff64e84bfe715ff16977cc0080546001600160a01b0319166001600160a01b0392909216919091179055565b610abc612ffa565b6116d0612ffa565b60008060f883901c602f8111801561315f5750603a8160ff16105b1561317457600194602f199091019350915050565b8060ff16604010801561318a575060478160ff16105b1561319f576001946036199091019350915050565b8060ff1660601080156131b5575060678160ff16105b156131ca576001946056199091019350915050565b50600093849350915050565b600063ffffffff821115611ed9576040516306dfcc6560e41b81526020600482015260248101839052604401610eee565b8051156132175780518082602001fd5b604051630a12f52160e11b815260040160405180910390fd5b82546000908190801561334f57600061324e87611f61600185614352565b60408051808201909152905465ffffffffffff808216808452600160301b9092046001600160d01b0316602084015291925090871610156132a257604051632520601d60e01b815260040160405180910390fd5b805165ffffffffffff8088169116036132ee57846132c588611f61600186614352565b80546001600160d01b0392909216600160301b0265ffffffffffff90921691909117905561333f565b6040805180820190915265ffffffffffff80881682526001600160d01b0380881660208085019182528b54600181018d5560008d81529190912094519151909216600160301b029216919091179101555b6020015192508391506127f39050565b50506040805180820190915265ffffffffffff80851682526001600160d01b0380851660208085019182528854600181018a5560008a815291822095519251909316600160301b0291909316179201919091559050816127f3565b6000818152600080516020614a15833981519152602081905260408220600281015460018201546133db919061454c565b6133e7610a3986610e3d565b1115949350505050565b6000600080516020614a558339815191528161340f8787878761181f565b905061345d8161341f6007611a80565b6134296006611a80565b6134336002611a80565b6001613440600782614888565b61344b906002614985565b6134559190614352565b181818611aa3565b5060008181526001830160205260409081902080546001600160f81b0316600160f81b179055517f789cf55be980739dad1d0699b93b58e806b51c9d96619bfa8fe0a28abaa7b30c90610e2b9083815260200190565b60007f8b73c3c69bb8fe3d512ecc4cf759cc79239f7b179b0ffacaa9a75d522b39400f6134de6136bb565b6134e6613725565b60408051602081019490945283019190915260608201524660808201523060a082015260c00160405160208183030381529060405280519060200120905090565b600080807f7fffffffffffffffffffffffffffffff5d576e7357a4501ddfe92f46681b20a084111561356257506000915060039050826135ec565b604080516000808252602082018084528a905260ff891692820192909252606081018790526080810186905260019060a0016020604051602081039080840390855afa1580156135b6573d6000803e3d6000fd5b5050604051601f1901519150506001600160a01b0381166135e2575060009250600191508290506135ec565b9250600091508190505b9450945094915050565b600080608083901c1561360b57608092831c92015b604083901c1561361d57604092831c92015b602083901c1561362f57602092831c92015b601083901c1561364157601092831c92015b600883901c1561365357600892831c92015b600483901c1561366557600492831c92015b600283901c1561367757600292831c92015b600183901c15610aae5760010192915050565b600081831061369957816118ae565b5090919050565b60006136af600284841861467c565b6118ae9084841661454c565b60006000805160206149d5833981519152816136d56123c8565b8051909150156136ed57805160209091012092915050565b815480156136fc579392505050565b7fc5d2460186f7233c927e7db2dcc703c0e500b653ca82273b7bfad8045d85a470935050505090565b60006000805160206149d58339815191528161373f612407565b80519091501561375757805160209091012092915050565b600182015480156136fc579392505050565b60006020828403121561377b57600080fd5b81356001600160e01b0319811681146118ae57600080fd5b6000602082840312156137a557600080fd5b5035919050565b60005b838110156137c75781810151838201526020016137af565b50506000910152565b600081518084526137e88160208601602086016137ac565b601f01601f19169290920160200192915050565b6020815260006118ae60208301846137d0565b6001600160a01b0381168114610ac557600080fd5b634e487b7160e01b600052604160045260246000fd5b604051601f8201601f191681016001600160401b038111828210171561386257613862613824565b604052919050565b60006001600160401b0382111561388357613883613824565b50601f01601f191660200190565b60006138a461389f8461386a565b61383a565b90508281528383830111156138b857600080fd5b828260208301376000602084830101529392505050565b600082601f8301126138e057600080fd5b6118ae83833560208501613891565b6000806000806080858703121561390557600080fd5b84356139108161380f565b935060208501356139208161380f565b92506040850135915060608501356001600160401b0381111561394257600080fd5b61394e878288016138cf565b91505092959194509250565b60006001600160401b0382111561397357613973613824565b5060051b60200190565b600082601f83011261398e57600080fd5b8135602061399e61389f8361395a565b8083825260208201915060208460051b8701019350868411156139c057600080fd5b602086015b84811015610cae5780356139d88161380f565b83529183019183016139c5565b600082601f8301126139f657600080fd5b81356020613a0661389f8361395a565b8083825260208201915060208460051b870101935086841115613a2857600080fd5b602086015b84811015610cae5780358352918301918301613a2d565b600082601f830112613a5557600080fd5b81356020613a6561389f8361395a565b82815260059290921b84018101918181019086841115613a8457600080fd5b8286015b84811015610cae5780356001600160401b03811115613aa75760008081fd5b613ab58986838b01016138cf565b845250918301918301613a88565b60008060008060808587031215613ad957600080fd5b84356001600160401b0380821115613af057600080fd5b613afc8883890161397d565b95506020870135915080821115613b1257600080fd5b613b1e888389016139e5565b94506040870135915080821115613b3457600080fd5b50613b4187828801613a44565b949793965093946060013593505050565b634e487b7160e01b600052602160045260246000fd5b60088110613b8657634e487b7160e01b600052602160045260246000fd5b9052565b60208101610aae8284613b68565b60008060408385031215613bab57600080fd5b823591506020830135613bbd8161380f565b809150509250929050565b803560ff81168114610fb157600080fd5b60008060408385031215613bec57600080fd5b82359150613bfc60208401613bc8565b90509250929050565b60008083601f840112613c1757600080fd5b5081356001600160401b03811115613c2e57600080fd5b602083019150836020828501011115613c4657600080fd5b9250929050565b600080600080600080600060c0888a031215613c6857600080fd5b87359650613c7860208901613bc8565b95506040880135613c888161380f565b945060608801356001600160401b0380821115613ca457600080fd5b613cb08b838c01613c05565b909650945060808a0135915080821115613cc957600080fd5b613cd58b838c016138cf565b935060a08a0135915080821115613ceb57600080fd5b50613cf88a828b016138cf565b91505092959891949750929550565b600080600080600060808688031215613d1f57600080fd5b85359450613d2f60208701613bc8565b935060408601356001600160401b0380821115613d4b57600080fd5b613d5789838a01613c05565b90955093506060880135915080821115613d7057600080fd5b50613d7d888289016138cf565b9150509295509295909350565b65ffffffffffff81168114610ac557600080fd5b600060208284031215613db057600080fd5b81356118ae81613d8a565b60008060008060608587031215613dd157600080fd5b84359350613de160208601613bc8565b925060408501356001600160401b03811115613dfc57600080fd5b613e0887828801613c05565b95989497509550505050565b803563ffffffff81168114610fb157600080fd5b60008060008060008060008060e0898b031215613e4457600080fd5b8835613e4f8161380f565b97506020890135613e5f8161380f565b96506040890135955060608901356001600160401b03811115613e8157600080fd5b613e8d8b828c01613c05565b9096509450613ea0905060808a01613e14565b9250613eae60a08a01613e14565b915060c089013590509295985092959890939650565b60008060008060808587031215613eda57600080fd5b84356001600160401b0380821115613ef157600080fd5b613efd8883890161397d565b95506020870135915080821115613f1357600080fd5b613f1f888389016139e5565b94506040870135915080821115613f3557600080fd5b613f4188838901613a44565b93506060870135915080821115613f5757600080fd5b508501601f81018713613f6957600080fd5b61394e87823560208401613891565b600060208284031215613f8a57600080fd5b81356118ae8161380f565b60008151808452602080850194506020840160005b83811015613fc657815187529582019590820190600101613faa565b509495945050505050565b60ff60f81b8816815260e060208201526000613ff060e08301896137d0565b828103604084015261400281896137d0565b606084018890526001600160a01b038716608085015260a0840186905283810360c085015290506140338185613f95565b9a9950505050505050505050565b6000806000806080858703121561405757600080fd5b8435935061406760208601613bc8565b925060408501356140778161380f565b915060608501356001600160401b0381111561394257600080fd5b6000806000606084860312156140a757600080fd5b83356140b28161380f565b92506020840135915060408401356001600160401b038111156140d457600080fd5b6140e0868287016138cf565b9150509250925092565b600080600080600060a0868803121561410257600080fd5b853561410d8161380f565b9450602086013561411d8161380f565b935060408601356001600160401b038082111561413957600080fd5b61414589838a016139e5565b9450606088013591508082111561415b57600080fd5b61416789838a016139e5565b93506080880135915080821115613d7057600080fd5b6000806000806060858703121561419357600080fd5b843561419e8161380f565b93506020850135925060408501356001600160401b03811115613dfc57600080fd5b6000602082840312156141d257600080fd5b6118ae82613e14565b600080604083850312156141ee57600080fd5b82356141f98161380f565b946020939093013593505050565b600080600080600060a0868803121561421f57600080fd5b853561422a8161380f565b9450602086013561423a8161380f565b9350604086013592506060860135915060808601356001600160401b0381111561426357600080fd5b613d7d888289016138cf565b600181811c9082168061428357607f821691505b6020821081036142a357634e487b7160e01b600052602260045260246000fd5b50919050565b634e487b7160e01b600052603260045260246000fd5b6000602082840312156142d157600080fd5b81516001600160401b038111156142e757600080fd5b8201601f810184136142f857600080fd5b805161430661389f8261386a565b81815285602083850101111561431b57600080fd5b611cd68260208301602086016137ac565b8183823760009101908152919050565b634e487b7160e01b600052601160045260246000fd5b81810381811115610aae57610aae61433c565b65ffffffffffff8281168282160390808211156143845761438461433c565b5092915050565b60006020828403121561439d57600080fd5b81516118ae81613d8a565b65ffffffffffff8181168382160190808211156143845761438461433c565b60008151808452602080850194506020840160005b83811015613fc65781516001600160a01b0316875295820195908201906001016143dc565b60008282518085526020808601955060208260051b8401016020860160005b8481101561444e57601f1986840301895261443c8383516137d0565b98840198925090830190600101614420565b5090979650505050505050565b60808152600061446e60808301876143c7565b82810360208401526144808187613f95565b905082810360408401526144948186614401565b91505082606083015295945050505050565b838152606081016144ba6020830185613b68565b826040830152949350505050565b6000602082840312156144da57600080fd5b815180151581146118ae57600080fd5b84815260ff84166020820152826040820152608060608201526000610f0360808301846137d0565b85815260ff8516602082015283604082015260a06060820152600061453a60a08301856137d0565b82810360808401526114a581856137d0565b80820180821115610aae57610aae61433c565b60006101208b8352602060018060a01b038c16818501528160408501526145888285018c6143c7565b9150838203606085015261459c828b613f95565b915083820360808501528189518084528284019150828160051b850101838c0160005b838110156145ed57601f198784030185526145db8383516137d0565b948601949250908501906001016145bf565b505086810360a0880152614601818c614401565b9450505050508560c08401528460e084015282810361010084015261462681856137d0565b9c9b505050505050505050505050565b60006020828403121561464857600080fd5b5051919050565b8082028115828204841417610aae57610aae61433c565b634e487b7160e01b600052601260045260246000fd5b60008261469957634e487b7160e01b600052601260045260246000fd5b500490565b60a0815260006146b160a08301886143c7565b82810360208401526146c38188613f95565b905082810360408401526146d78187614401565b60608401959095525050608001529392505050565b60c0815260006146ff60c08301896143c7565b82810360208401526147118189613f95565b905082810360408401526147258188614401565b60608401969096525050608081019290925260a0909101529392505050565b828152604060208201526000610fd760408301846137d0565b6000825161476f8184602087016137ac565b9190910192915050565b601f821115612061576000816000526020600020601f850160051c810160208610156147a25750805b601f850160051c820191505b818110156147c1578281556001016147ae565b505050505050565b81516001600160401b038111156147e2576147e2613824565b6147f6816147f0845461426f565b84614779565b602080601f83116001811461482b57600084156148135750858301515b600019600386901b1c1916600185901b1785556147c1565b600085815260208120601f198616915b8281101561485a5788860151825594840194600190910190840161483b565b50858210156148785787850151600019600388901b60f8161c191681555b5050505050600190811b01905550565b60ff8181168382160190811115610aae57610aae61433c565b600181815b808511156148dc5781600019048211156148c2576148c261433c565b808516156148cf57918102915b93841c93908002906148a6565b509250929050565b6000826148f357506001610aae565b8161490057506000610aae565b816001811461491657600281146149205761493c565b6001915050610aae565b60ff8411156149315761493161433c565b50506001821b610aae565b5060208310610133831016604e8410600b841016171561495f575081810a610aae565b61496983836148a1565b806000190482111561497d5761497d61433c565b029392505050565b60006118ae60ff8416836148e456fe7c712897014dbe49c045ef1299aa2d5f9e67e48eea4403efa21f1e0f3ac0cb0100d7616c8fe29c6c2fbe1d0c5bc8f2faa4c35b43746e70b24b4d532752affd01a16a46d94261c7517cc8ff89f61c0ce93598e3c849801011dee649a6a557d10000d7616c8fe29c6c2fbe1d0c5bc8f2faa4c35b43746e70b24b4d532752affd00a1cefa0f43667ef127a258e673c94202a79b656e62899531c4376d87a7f398000d5829787b8befdbc6044ef7457d8a95c2a04bc99235349f1a212c063e59d4007c712897014dbe49c045ef1299aa2d5f9e67e48eea4403efa21f1e0f3ac0cb00a264697066735822122012a8ea4983faf5a76333ecca98e2335366f292a128e2ff054c980a7c3225d66a64736f6c63430008180033","linkReferences":{}},"methodIdentifiers":{"BALLOT_TYPEHASH()":"deaaa7cc","CLOCK_MODE()":"4bf5d7e9","COUNTING_MODE()":"dd4e2ba5","EXTENDED_BALLOT_TYPEHASH()":"2fe3e261","cancel(address[],uint256[],bytes[],bytes32)":"452115d6","castVote(uint256,uint8)":"56781388","castVoteBySig(uint256,uint8,address,bytes)":"8ff262e3","castVoteWithReason(uint256,uint8,string)":"7b3c71d3","castVoteWithReasonAndParams(uint256,uint8,string,bytes)":"5f398a14","castVoteWithReasonAndParamsBySig(uint256,uint8,address,string,bytes,bytes)":"5b8d0e0d","clock()":"91ddadf4","eip712Domain()":"84b0196e","execute(address[],uint256[],bytes[],bytes32)":"2656227d","getVotes(address,uint256)":"eb9019d4","getVotesWithParams(address,uint256,bytes)":"9a802a6d","hasVoted(uint256,address)":"43859632","hashProposal(address[],uint256[],bytes[],bytes32)":"c59057e4","initialize(address,address,uint256,string,uint32,uint32,uint256)":"7bdc7783","name()":"06fdde03","nonces(address)":"7ecebe00","onERC1155BatchReceived(address,address,uint256[],uint256[],bytes)":"bc197c81","onERC1155Received(address,address,uint256,uint256,bytes)":"f23a6e61","onERC721Received(address,address,uint256,bytes)":"150b7a02","proposalDeadline(uint256)":"c01f9e37","proposalEta(uint256)":"ab58fb8e","proposalNeedsQueuing(uint256)":"a9a95294","proposalProposer(uint256)":"143489d0","proposalSnapshot(uint256)":"2d63f693","proposalThreshold()":"b58131b0","proposalVotes(uint256)":"544ffc9c","propose(address[],uint256[],bytes[],string)":"7d5e81e2","queue(address[],uint256[],bytes[],bytes32)":"160cbed7","quorum(uint256)":"f8ce560a","quorumDenominator()":"97c3d334","quorumNumerator()":"a7713a70","quorumNumerator(uint256)":"60c4247f","relay(address,uint256,bytes)":"c28bc2fa","setProposalThreshold(uint256)":"ece40cc1","setVotingDelay(uint48)":"79051887","setVotingPeriod(uint32)":"e540d01d","state(uint256)":"3e4f49e6","supportsInterface(bytes4)":"01ffc9a7","timelock()":"d33219b4","token()":"fc0c546a","updateQuorumNumerator(uint256)":"06f3f9e6","updateTimelock(address)":"a890c910","version()":"54fd4d50","votingDelay()":"3932abb1","votingPeriod()":"02a251a3"},"id":73}