{"abi":[{"type":"function","name":"createContract","inputs":[{"name":"implementation","type":"address","internalType":"address"},{"name":"initializationData","type":"bytes","internalType":"bytes"},{"name":"salt","type":"bytes32","internalType":"bytes32"}],"outputs":[{"name":"","type":"address","internalType":"address"}],"stateMutability":"nonpayable"},{"type":"function","name":"deployedContracts","inputs":[{"name":"","type":"uint256","internalType":"uint256"}],"outputs":[{"name":"","type":"address","internalType":"address"}],"stateMutability":"view"},{"type":"event","name":"ContractDeployed","inputs":[{"name":"implementation","type":"address","indexed":false,"internalType":"address"},{"name":"contractAddress","type":"address","indexed":false,"internalType":"address"}],"anonymous":false},{"type":"error","name":"ERC1167FailedCreateClone","inputs":[]}],"bytecode":{"object":"0x608060405234801561001057600080fd5b50610361806100206000396000f3fe608060405234801561001057600080fd5b50600436106100365760003560e01c80639a47e2bf1461003b5780639ad1ee101461006a575b600080fd5b61004e61004936600461026b565b61007d565b6040516001600160a01b03909116815260200160405180910390f35b61004e610078366004610302565b6101cd565b60008061008a86846101f7565b604080516001600160a01b03808a168252831660208201529192507f33c981baba081f8fd2c52ac6ad1ea95b6814b4376640f55689051f6584729688910160405180910390a16000816001600160a01b031686866040516100ec92919061031b565b6000604051808303816000865af19150503d8060008114610129576040519150601f19603f3d011682016040523d82523d6000602084013e61012e565b606091505b505090508061017b5760405162461bcd60e51b8152602060048201526015602482015274125b9a5d1a585b1a5e985d1a5bdb8819985a5b1959605a1b604482015260640160405180910390fd5b50600080546001810182559080527f290decd9548b62a8d60345a988386fc84ba6bc95484008f6362f93160ef3e5630180546001600160a01b0319166001600160a01b03831617905595945050505050565b600081815481106101dd57600080fd5b6000918252602090912001546001600160a01b0316905081565b6000763d602d80600a3d3981f3363d3d373d3d3d363d730000008360601b60e81c176000526e5af43d82803e903d91602b57fd5bf38360781b1760205281603760096000f590506001600160a01b038116610265576040516330be1a3d60e21b815260040160405180910390fd5b92915050565b6000806000806060858703121561028157600080fd5b84356001600160a01b038116811461029857600080fd5b9350602085013567ffffffffffffffff808211156102b557600080fd5b818701915087601f8301126102c957600080fd5b8135818111156102d857600080fd5b8860208285010111156102ea57600080fd5b95986020929092019750949560400135945092505050565b60006020828403121561031457600080fd5b5035919050565b818382376000910190815291905056fea2646970667358221220ca73a61f2708ad4993960cd0129d205bb4e6d4eaa632578ecf9fd65badf2d28d64736f6c63430008180033","linkReferences":{}},"methodIdentifiers":{"createContract(address,bytes,bytes32)":"9a47e2bf","deployedContracts(uint256)":"9ad1ee10"},"id":71}